{"contracts/DtfFactoryFull.sol":{"DtfFactory":{"abi":[{"inputs":[{"internalType":"address","name":"_wethAddress","type":"address"},{"internalType":"address","name":"_uniswapRouterAddress","type":"address"},{"internalType":"uint256","name":"_defaultDeadlineOffset","type":"uint256"},{"internalType":"address","name":"_bytecodeContract","type":"address"}],"stateMutability":"nonpayable","type":"constructor"},{"anonymous":false,"inputs":[{"indexed":true,"internalType":"address","name":"fundAddress","type":"address"},{"indexed":true,"internalType":"address","name":"creator","type":"address"},{"indexed":false,"internalType":"string","name":"name","type":"string"},{"indexed":false,"internalType":"string","name":"symbol","type":"string"},{"indexed":false,"internalType":"uint256","name":"timestamp","type":"uint256"}],"name":"FundCreated","type":"event"},{"inputs":[],"name":"bytecodeContract","outputs":[{"internalType":"contract FundBytecode","name":"","type":"address"}],"stateMutability":"view","type":"function"},{"inputs":[{"internalType":"string","name":"_shareName","type":"string"},{"internalType":"string","name":"_shareSymbol","type":"string"},{"internalType":"bool","name":"_depositsEnabled","type":"bool"},{"internalType":"uint256","name":"_minimumDeposit","type":"uint256"},{"internalType":"uint256","name":"_slippageTolerance","type":"uint256"},{"internalType":"uint256","name":"_depositFee","type":"uint256"},{"internalType":"uint256","name":"_withdrawalFee","type":"uint256"}],"name":"createFund","outputs":[{"internalType":"address","name":"","type":"address"}],"stateMutability":"nonpayable","type":"function"},{"inputs":[],"name":"defaultDeadlineOffset","outputs":[{"internalType":"uint256","name":"","type":"uint256"}],"stateMutability":"view","type":"function"},{"inputs":[{"internalType":"uint256","name":"","type":"uint256"}],"name":"deployedFunds","outputs":[{"internalType":"address","name":"","type":"address"}],"stateMutability":"view","type":"function"},{"inputs":[],"name":"getAllFunds","outputs":[{"internalType":"address[]","name":"","type":"address[]"}],"stateMutability":"view","type":"function"},{"inputs":[],"name":"getFundCount","outputs":[{"internalType":"uint256","name":"","type":"uint256"}],"stateMutability":"view","type":"function"},{"inputs":[{"internalType":"address","name":"_user","type":"address"}],"name":"getFundsCreatedBy","outputs":[{"internalType":"address[]","name":"","type":"address[]"}],"stateMutability":"view","type":"function"},{"inputs":[{"internalType":"address","name":"","type":"address"}],"name":"isFund","outputs":[{"internalType":"bool","name":"","type":"bool"}],"stateMutability":"view","type":"function"},{"inputs":[{"internalType":"string","name":"_shareName","type":"string"},{"internalType":"string","name":"_shareSymbol","type":"string"}],"name":"predictFundAddress","outputs":[{"internalType":"address","name":"","type":"address"}],"stateMutability":"view","type":"function"},{"inputs":[],"name":"uniswapRouterAddress","outputs":[{"internalType":"address","name":"","type":"address"}],"stateMutability":"view","type":"function"},{"inputs":[{"internalType":"address","name":"","type":"address"},{"internalType":"uint256","name":"","type":"uint256"}],"name":"userFunds","outputs":[{"internalType":"address","name":"","type":"address"}],"stateMutability":"view","type":"function"},{"inputs":[],"name":"wethAddress","outputs":[{"internalType":"address","name":"","type":"address"}],"stateMutability":"view","type":"function"}],"evm":{"bytecode":{"linkReferences":{},"object":"61010060405234801561001157600080fd5b50604051610de2380380610de28339810160408190526100309161006c565b6001600160a01b0393841660805291831660a05260c0521660e0526100b9565b80516001600160a01b038116811461006757600080fd5b919050565b6000806000806080858703121561008257600080fd5b61008b85610050565b935061009960208601610050565b9250604085015191506100ae60608601610050565b905092959194509250565b60805160a05160c05160e051610cce61011460003960008181610163015281816102ca01526104b90152600081816101f6015261058701526000818160ea015261056601526000818161012901526105430152610cce6000f3fe608060405234801561001057600080fd5b50600436106100b45760003560e01c80639a068bd6116100715780639a068bd614610185578063a9d31f8514610198578063c7153b89146101ab578063e0e6449f146101de578063e8feca30146101f1578063fd6fdc741461021857600080fd5b806311648a4d146100b95780631c69b464146100d057806320ca3c7f146100e55780634f0e0ef3146101245780635b11044f1461014b57806361b33e611461015e575b600080fd5b6000545b6040519081526020015b60405180910390f35b6100d861022b565b6040516100c791906107ef565b61010c7f000000000000000000000000000000000000000000000000000000000000000081565b6040516001600160a01b0390911681526020016100c7565b61010c7f000000000000000000000000000000000000000000000000000000000000000081565b61010c610159366004610901565b61028d565b61010c7f000000000000000000000000000000000000000000000000000000000000000081565b61010c610193366004610965565b6103dc565b6100d86101a636600461099a565b610406565b6101ce6101b936600461099a565b60016020526000908152604090205460ff1681565b60405190151581526020016100c7565b61010c6101ec3660046109bc565b61047c565b6100bd7f000000000000000000000000000000000000000000000000000000000000000081565b61010c6102263660046109e6565b6104b4565b6060600080548060200260200160405190810160405280929190818152602001828054801561028357602002820191906000526020600020905b81546001600160a01b03168152600190910190602001808311610265575b5050505050905090565b600080338484426040516020016102a79493929190610aaa565b604051602081830303815290604052805190602001209050600060ff60f81b30837f00000000000000000000000000000000000000000000000000000000000000006001600160a01b0316638487d3206040518163ffffffff1660e01b8152600401600060405180830381865afa158015610326573d6000803e3d6000fd5b505050506040513d6000823e601f3d908101601f1916820160405261034e9190810190610b00565b60405160200161035e9190610b77565b604051602081830303815290604052805190602001206040516020016103bb94939291906001600160f81b031994909416845260609290921b6bffffffffffffffffffffffff191660018401526015830152603582015260550190565b60408051808303601f19018152919052805160209091012095945050505050565b600081815481106103ec57600080fd5b6000918252602090912001546001600160a01b0316905081565b6001600160a01b03811660009081526002602090815260409182902080548351818402810184019094528084526060939283018282801561047057602002820191906000526020600020905b81546001600160a01b03168152600190910190602001808311610452575b50505050509050919050565b6002602052816000526040600020818154811061049857600080fd5b6000918252602090912001546001600160a01b03169150829050565b6000807f00000000000000000000000000000000000000000000000000000000000000006001600160a01b0316638487d3206040518163ffffffff1660e01b8152600401600060405180830381865afa158015610515573d6000803e3d6000fd5b505050506040513d6000823e601f3d908101601f1916820160405261053d9190810190610b00565b905060007f00000000000000000000000000000000000000000000000000000000000000008a8a7f00000000000000000000000000000000000000000000000000000000000000007f00000000000000000000000000000000000000000000000000000000000000008c8c8c8c8c6040516020016105c49a99989796959493929190610bbf565b6040516020818303038152906040529050600082826040516020016105ea929190610c33565b60405160208183030381529060405290506000338c8c426040516020016106149493929190610aaa565b6040516020818303038152906040528051906020012090506000818351602085016000f59050803b61064557600080fd5b60405163f2fde38b60e01b81523360048201526001600160a01b0382169063f2fde38b90602401600060405180830381600087803b15801561068657600080fd5b505af115801561069a573d6000803e3d6000fd5b505050506000819080600181540180825580915050600190039060005260206000200160009091909190916101000a8154816001600160a01b0302191690836001600160a01b031602179055506001806000836001600160a01b03166001600160a01b0316815260200190815260200160002060006101000a81548160ff02191690831515021790555060026000336001600160a01b03166001600160a01b03168152602001908152602001600020819080600181540180825580915050600190039060005260206000200160009091909190916101000a8154816001600160a01b0302191690836001600160a01b03160217905550336001600160a01b0316816001600160a01b03167fab6ddbb22bfb67279e9b459ed92bcb90a725d7f6afab7953f8b59e96303c0d478f8f426040516107d793929190610c62565b60405180910390a39c9b505050505050505050505050565b6020808252825182820181905260009190848201906040850190845b818110156108305783516001600160a01b03168352928401929184019160010161080b565b50909695505050505050565b634e487b7160e01b600052604160045260246000fd5b604051601f8201601f1916810167ffffffffffffffff8111828210171561087b5761087b61083c565b604052919050565b600067ffffffffffffffff82111561089d5761089d61083c565b50601f01601f191660200190565b600082601f8301126108bc57600080fd5b81356108cf6108ca82610883565b610852565b8181528460208386010111156108e457600080fd5b816020850160208301376000918101602001919091529392505050565b6000806040838503121561091457600080fd5b823567ffffffffffffffff8082111561092c57600080fd5b610938868387016108ab565b9350602085013591508082111561094e57600080fd5b5061095b858286016108ab565b9150509250929050565b60006020828403121561097757600080fd5b5035919050565b80356001600160a01b038116811461099557600080fd5b919050565b6000602082840312156109ac57600080fd5b6109b58261097e565b9392505050565b600080604083850312156109cf57600080fd5b6109d88361097e565b946020939093013593505050565b600080600080600080600060e0888a031215610a0157600080fd5b873567ffffffffffffffff80821115610a1957600080fd5b610a258b838c016108ab565b985060208a0135915080821115610a3b57600080fd5b50610a488a828b016108ab565b96505060408801358015158114610a5e57600080fd5b969995985095966060810135965060808101359560a0820135955060c0909101359350915050565b60005b83811015610aa1578181015183820152602001610a89565b50506000910152565b6bffffffffffffffffffffffff198560601b16815260008451610ad4816014850160208901610a86565b845190830190610aeb816014840160208901610a86565b01601481019390935250506034019392505050565b600060208284031215610b1257600080fd5b815167ffffffffffffffff811115610b2957600080fd5b8201601f81018413610b3a57600080fd5b8051610b486108ca82610883565b818152856020838501011115610b5d57600080fd5b610b6e826020830160208601610a86565b95945050505050565b60008251610b89818460208701610a86565b9190910192915050565b60008151808452610bab816020860160208601610a86565b601f01601f19169290920160200192915050565b6001600160a01b038b8116825261014060208301819052600091610be58483018e610b93565b91508382036040850152610bf9828d610b93565b9a1660608401525050608081019690965293151560a086015260c085019290925260e0840152610100830152610120909101529392505050565b60008351610c45818460208801610a86565b835190830190610c59818360208801610a86565b01949350505050565b606081526000610c756060830186610b93565b8281036020840152610c878186610b93565b91505082604083015294935050505056fea26469706673582212202b5748604ae73af51ffebf79f02205d8e8751ce337c49537ec955b490dc6e7e364736f6c63430008190033","opcodes":"PUSH2 0x100 PUSH1 0x40 MSTORE CALLVALUE DUP1 ISZERO PUSH2 0x11 JUMPI PUSH1 0x0 DUP1 REVERT JUMPDEST POP PUSH1 0x40 MLOAD PUSH2 0xDE2 CODESIZE SUB DUP1 PUSH2 0xDE2 DUP4 CODECOPY DUP2 ADD PUSH1 0x40 DUP2 SWAP1 MSTORE PUSH2 0x30 SWAP2 PUSH2 0x6C JUMP JUMPDEST PUSH1 0x1 PUSH1 0x1 PUSH1 0xA0 SHL SUB SWAP4 DUP5 AND PUSH1 0x80 MSTORE SWAP2 DUP4 AND PUSH1 0xA0 MSTORE PUSH1 0xC0 MSTORE AND PUSH1 0xE0 MSTORE PUSH2 0xB9 JUMP JUMPDEST DUP1 MLOAD PUSH1 0x1 PUSH1 0x1 PUSH1 0xA0 SHL SUB DUP2 AND DUP2 EQ PUSH2 0x67 JUMPI PUSH1 0x0 DUP1 REVERT JUMPDEST SWAP2 SWAP1 POP JUMP JUMPDEST PUSH1 0x0 DUP1 PUSH1 0x0 DUP1 PUSH1 0x80 DUP6 DUP8 SUB SLT ISZERO PUSH2 0x82 JUMPI PUSH1 0x0 DUP1 REVERT JUMPDEST PUSH2 0x8B DUP6 PUSH2 0x50 JUMP JUMPDEST SWAP4 POP PUSH2 0x99 PUSH1 0x20 DUP7 ADD PUSH2 0x50 JUMP JUMPDEST SWAP3 POP PUSH1 0x40 DUP6 ADD MLOAD SWAP2 POP PUSH2 0xAE PUSH1 0x60 DUP7 ADD PUSH2 0x50 JUMP JUMPDEST SWAP1 POP SWAP3 SWAP6 SWAP2 SWAP5 POP SWAP3 POP JUMP JUMPDEST PUSH1 0x80 MLOAD PUSH1 0xA0 MLOAD PUSH1 0xC0 MLOAD PUSH1 0xE0 MLOAD PUSH2 0xCCE PUSH2 0x114 PUSH1 0x0 CODECOPY PUSH1 0x0 DUP2 DUP2 PUSH2 0x163 ADD MSTORE DUP2 DUP2 PUSH2 0x2CA ADD MSTORE PUSH2 0x4B9 ADD MSTORE PUSH1 0x0 DUP2 DUP2 PUSH2 0x1F6 ADD MSTORE PUSH2 0x587 ADD MSTORE PUSH1 0x0 DUP2 DUP2 PUSH1 0xEA ADD MSTORE PUSH2 0x566 ADD MSTORE PUSH1 0x0 DUP2 DUP2 PUSH2 0x129 ADD MSTORE PUSH2 0x543 ADD MSTORE PUSH2 0xCCE PUSH1 0x0 RETURN INVALID PUSH1 0x80 PUSH1 0x40 MSTORE CALLVALUE DUP1 ISZERO PUSH2 0x10 JUMPI PUSH1 0x0 DUP1 REVERT JUMPDEST POP PUSH1 0x4 CALLDATASIZE LT PUSH2 0xB4 JUMPI PUSH1 0x0 CALLDATALOAD PUSH1 0xE0 SHR DUP1 PUSH4 0x9A068BD6 GT PUSH2 0x71 JUMPI DUP1 PUSH4 0x9A068BD6 EQ PUSH2 0x185 JUMPI DUP1 PUSH4 0xA9D31F85 EQ PUSH2 0x198 JUMPI DUP1 PUSH4 0xC7153B89 EQ PUSH2 0x1AB JUMPI DUP1 PUSH4 0xE0E6449F EQ PUSH2 0x1DE JUMPI DUP1 PUSH4 0xE8FECA30 EQ PUSH2 0x1F1 JUMPI DUP1 PUSH4 0xFD6FDC74 EQ PUSH2 0x218 JUMPI PUSH1 0x0 DUP1 REVERT JUMPDEST DUP1 PUSH4 0x11648A4D EQ PUSH2 0xB9 JUMPI DUP1 PUSH4 0x1C69B464 EQ PUSH2 0xD0 JUMPI DUP1 PUSH4 0x20CA3C7F EQ PUSH2 0xE5 JUMPI DUP1 PUSH4 0x4F0E0EF3 EQ PUSH2 0x124 JUMPI DUP1 PUSH4 0x5B11044F EQ PUSH2 0x14B JUMPI DUP1 PUSH4 0x61B33E61 EQ PUSH2 0x15E JUMPI JUMPDEST PUSH1 0x0 DUP1 REVERT JUMPDEST PUSH1 0x0 SLOAD JUMPDEST PUSH1 0x40 MLOAD SWAP1 DUP2 MSTORE PUSH1 0x20 ADD JUMPDEST PUSH1 0x40 MLOAD DUP1 SWAP2 SUB SWAP1 RETURN JUMPDEST PUSH2 0xD8 PUSH2 0x22B JUMP JUMPDEST PUSH1 0x40 MLOAD PUSH2 0xC7 SWAP2 SWAP1 PUSH2 0x7EF JUMP JUMPDEST PUSH2 0x10C PUSH32 0x0 DUP2 JUMP JUMPDEST PUSH1 0x40 MLOAD PUSH1 0x1 PUSH1 0x1 PUSH1 0xA0 SHL SUB SWAP1 SWAP2 AND DUP2 MSTORE PUSH1 0x20 ADD PUSH2 0xC7 JUMP JUMPDEST PUSH2 0x10C PUSH32 0x0 DUP2 JUMP JUMPDEST PUSH2 0x10C PUSH2 0x159 CALLDATASIZE PUSH1 0x4 PUSH2 0x901 JUMP JUMPDEST PUSH2 0x28D JUMP JUMPDEST PUSH2 0x10C PUSH32 0x0 DUP2 JUMP JUMPDEST PUSH2 0x10C PUSH2 0x193 CALLDATASIZE PUSH1 0x4 PUSH2 0x965 JUMP JUMPDEST PUSH2 0x3DC JUMP JUMPDEST PUSH2 0xD8 PUSH2 0x1A6 CALLDATASIZE PUSH1 0x4 PUSH2 0x99A JUMP JUMPDEST PUSH2 0x406 JUMP JUMPDEST PUSH2 0x1CE PUSH2 0x1B9 CALLDATASIZE PUSH1 0x4 PUSH2 0x99A JUMP JUMPDEST PUSH1 0x1 PUSH1 0x20 MSTORE PUSH1 0x0 SWAP1 DUP2 MSTORE PUSH1 0x40 SWAP1 KECCAK256 SLOAD PUSH1 0xFF AND DUP2 JUMP JUMPDEST PUSH1 0x40 MLOAD SWAP1 ISZERO ISZERO DUP2 MSTORE PUSH1 0x20 ADD PUSH2 0xC7 JUMP JUMPDEST PUSH2 0x10C PUSH2 0x1EC CALLDATASIZE PUSH1 0x4 PUSH2 0x9BC JUMP JUMPDEST PUSH2 0x47C JUMP JUMPDEST PUSH2 0xBD PUSH32 0x0 DUP2 JUMP JUMPDEST PUSH2 0x10C PUSH2 0x226 CALLDATASIZE PUSH1 0x4 PUSH2 0x9E6 JUMP JUMPDEST PUSH2 0x4B4 JUMP JUMPDEST PUSH1 0x60 PUSH1 0x0 DUP1 SLOAD DUP1 PUSH1 0x20 MUL PUSH1 0x20 ADD PUSH1 0x40 MLOAD SWAP1 DUP2 ADD PUSH1 0x40 MSTORE DUP1 SWAP3 SWAP2 SWAP1 DUP2 DUP2 MSTORE PUSH1 0x20 ADD DUP3 DUP1 SLOAD DUP1 ISZERO PUSH2 0x283 JUMPI PUSH1 0x20 MUL DUP3 ADD SWAP2 SWAP1 PUSH1 0x0 MSTORE PUSH1 0x20 PUSH1 0x0 KECCAK256 SWAP1 JUMPDEST DUP2 SLOAD PUSH1 0x1 PUSH1 0x1 PUSH1 0xA0 SHL SUB AND DUP2 MSTORE PUSH1 0x1 SWAP1 SWAP2 ADD SWAP1 PUSH1 0x20 ADD DUP1 DUP4 GT PUSH2 0x265 JUMPI JUMPDEST POP POP POP POP POP SWAP1 POP SWAP1 JUMP JUMPDEST PUSH1 0x0 DUP1 CALLER DUP5 DUP5 TIMESTAMP PUSH1 0x40 MLOAD PUSH1 0x20 ADD PUSH2 0x2A7 SWAP5 SWAP4 SWAP3 SWAP2 SWAP1 PUSH2 0xAAA JUMP JUMPDEST PUSH1 0x40 MLOAD PUSH1 0x20 DUP2 DUP4 SUB SUB DUP2 MSTORE SWAP1 PUSH1 0x40 MSTORE DUP1 MLOAD SWAP1 PUSH1 0x20 ADD KECCAK256 SWAP1 POP PUSH1 0x0 PUSH1 0xFF PUSH1 0xF8 SHL ADDRESS DUP4 PUSH32 0x0 PUSH1 0x1 PUSH1 0x1 PUSH1 0xA0 SHL SUB AND PUSH4 0x8487D320 PUSH1 0x40 MLOAD DUP2 PUSH4 0xFFFFFFFF AND PUSH1 0xE0 SHL DUP2 MSTORE PUSH1 0x4 ADD PUSH1 0x0 PUSH1 0x40 MLOAD DUP1 DUP4 SUB DUP2 DUP7 GAS STATICCALL ISZERO DUP1 ISZERO PUSH2 0x326 JUMPI RETURNDATASIZE PUSH1 0x0 DUP1 RETURNDATACOPY RETURNDATASIZE PUSH1 0x0 REVERT JUMPDEST POP POP POP POP PUSH1 0x40 MLOAD RETURNDATASIZE PUSH1 0x0 DUP3 RETURNDATACOPY PUSH1 0x1F RETURNDATASIZE SWAP1 DUP2 ADD PUSH1 0x1F NOT AND DUP3 ADD PUSH1 0x40 MSTORE PUSH2 0x34E SWAP2 SWAP1 DUP2 ADD SWAP1 PUSH2 0xB00 JUMP JUMPDEST PUSH1 0x40 MLOAD PUSH1 0x20 ADD PUSH2 0x35E SWAP2 SWAP1 PUSH2 0xB77 JUMP JUMPDEST PUSH1 0x40 MLOAD PUSH1 0x20 DUP2 DUP4 SUB SUB DUP2 MSTORE SWAP1 PUSH1 0x40 MSTORE DUP1 MLOAD SWAP1 PUSH1 0x20 ADD KECCAK256 PUSH1 0x40 MLOAD PUSH1 0x20 ADD PUSH2 0x3BB SWAP5 SWAP4 SWAP3 SWAP2 SWAP1 PUSH1 0x1 PUSH1 0x1 PUSH1 0xF8 SHL SUB NOT SWAP5 SWAP1 SWAP5 AND DUP5 MSTORE PUSH1 0x60 SWAP3 SWAP1 SWAP3 SHL PUSH12 0xFFFFFFFFFFFFFFFFFFFFFFFF NOT AND PUSH1 0x1 DUP5 ADD MSTORE PUSH1 0x15 DUP4 ADD MSTORE PUSH1 0x35 DUP3 ADD MSTORE PUSH1 0x55 ADD SWAP1 JUMP JUMPDEST PUSH1 0x40 DUP1 MLOAD DUP1 DUP4 SUB PUSH1 0x1F NOT ADD DUP2 MSTORE SWAP2 SWAP1 MSTORE DUP1 MLOAD PUSH1 0x20 SWAP1 SWAP2 ADD KECCAK256 SWAP6 SWAP5 POP POP POP POP POP JUMP JUMPDEST PUSH1 0x0 DUP2 DUP2 SLOAD DUP2 LT PUSH2 0x3EC JUMPI PUSH1 0x0 DUP1 REVERT JUMPDEST PUSH1 0x0 SWAP2 DUP3 MSTORE PUSH1 0x20 SWAP1 SWAP2 KECCAK256 ADD SLOAD PUSH1 0x1 PUSH1 0x1 PUSH1 0xA0 SHL SUB AND SWAP1 POP DUP2 JUMP JUMPDEST PUSH1 0x1 PUSH1 0x1 PUSH1 0xA0 SHL SUB DUP2 AND PUSH1 0x0 SWAP1 DUP2 MSTORE PUSH1 0x2 PUSH1 0x20 SWAP1 DUP2 MSTORE PUSH1 0x40 SWAP2 DUP3 SWAP1 KECCAK256 DUP1 SLOAD DUP4 MLOAD DUP2 DUP5 MUL DUP2 ADD DUP5 ADD SWAP1 SWAP5 MSTORE DUP1 DUP5 MSTORE PUSH1 0x60 SWAP4 SWAP3 DUP4 ADD DUP3 DUP3 DUP1 ISZERO PUSH2 0x470 JUMPI PUSH1 0x20 MUL DUP3 ADD SWAP2 SWAP1 PUSH1 0x0 MSTORE PUSH1 0x20 PUSH1 0x0 KECCAK256 SWAP1 JUMPDEST DUP2 SLOAD PUSH1 0x1 PUSH1 0x1 PUSH1 0xA0 SHL SUB AND DUP2 MSTORE PUSH1 0x1 SWAP1 SWAP2 ADD SWAP1 PUSH1 0x20 ADD DUP1 DUP4 GT PUSH2 0x452 JUMPI JUMPDEST POP POP POP POP POP SWAP1 POP SWAP2 SWAP1 POP JUMP JUMPDEST PUSH1 0x2 PUSH1 0x20 MSTORE DUP2 PUSH1 0x0 MSTORE PUSH1 0x40 PUSH1 0x0 KECCAK256 DUP2 DUP2 SLOAD DUP2 LT PUSH2 0x498 JUMPI PUSH1 0x0 DUP1 REVERT JUMPDEST PUSH1 0x0 SWAP2 DUP3 MSTORE PUSH1 0x20 SWAP1 SWAP2 KECCAK256 ADD SLOAD PUSH1 0x1 PUSH1 0x1 PUSH1 0xA0 SHL SUB AND SWAP2 POP DUP3 SWAP1 POP JUMP JUMPDEST PUSH1 0x0 DUP1 PUSH32 0x0 PUSH1 0x1 PUSH1 0x1 PUSH1 0xA0 SHL SUB AND PUSH4 0x8487D320 PUSH1 0x40 MLOAD DUP2 PUSH4 0xFFFFFFFF AND PUSH1 0xE0 SHL DUP2 MSTORE PUSH1 0x4 ADD PUSH1 0x0 PUSH1 0x40 MLOAD DUP1 DUP4 SUB DUP2 DUP7 GAS STATICCALL ISZERO DUP1 ISZERO PUSH2 0x515 JUMPI RETURNDATASIZE PUSH1 0x0 DUP1 RETURNDATACOPY RETURNDATASIZE PUSH1 0x0 REVERT JUMPDEST POP POP POP POP PUSH1 0x40 MLOAD RETURNDATASIZE PUSH1 0x0 DUP3 RETURNDATACOPY PUSH1 0x1F RETURNDATASIZE SWAP1 DUP2 ADD PUSH1 0x1F NOT AND DUP3 ADD PUSH1 0x40 MSTORE PUSH2 0x53D SWAP2 SWAP1 DUP2 ADD SWAP1 PUSH2 0xB00 JUMP JUMPDEST SWAP1 POP PUSH1 0x0 PUSH32 0x0 DUP11 DUP11 PUSH32 0x0 PUSH32 0x0 DUP13 DUP13 DUP13 DUP13 DUP13 PUSH1 0x40 MLOAD PUSH1 0x20 ADD PUSH2 0x5C4 SWAP11 SWAP10 SWAP9 SWAP8 SWAP7 SWAP6 SWAP5 SWAP4 SWAP3 SWAP2 SWAP1 PUSH2 0xBBF JUMP JUMPDEST PUSH1 0x40 MLOAD PUSH1 0x20 DUP2 DUP4 SUB SUB DUP2 MSTORE SWAP1 PUSH1 0x40 MSTORE SWAP1 POP PUSH1 0x0 DUP3 DUP3 PUSH1 0x40 MLOAD PUSH1 0x20 ADD PUSH2 0x5EA SWAP3 SWAP2 SWAP1 PUSH2 0xC33 JUMP JUMPDEST PUSH1 0x40 MLOAD PUSH1 0x20 DUP2 DUP4 SUB SUB DUP2 MSTORE SWAP1 PUSH1 0x40 MSTORE SWAP1 POP PUSH1 0x0 CALLER DUP13 DUP13 TIMESTAMP PUSH1 0x40 MLOAD PUSH1 0x20 ADD PUSH2 0x614 SWAP5 SWAP4 SWAP3 SWAP2 SWAP1 PUSH2 0xAAA JUMP JUMPDEST PUSH1 0x40 MLOAD PUSH1 0x20 DUP2 DUP4 SUB SUB DUP2 MSTORE SWAP1 PUSH1 0x40 MSTORE DUP1 MLOAD SWAP1 PUSH1 0x20 ADD KECCAK256 SWAP1 POP PUSH1 0x0 DUP2 DUP4 MLOAD PUSH1 0x20 DUP6 ADD PUSH1 0x0 CREATE2 SWAP1 POP DUP1 EXTCODESIZE PUSH2 0x645 JUMPI PUSH1 0x0 DUP1 REVERT JUMPDEST PUSH1 0x40 MLOAD PUSH4 0xF2FDE38B PUSH1 0xE0 SHL DUP2 MSTORE CALLER PUSH1 0x4 DUP3 ADD MSTORE PUSH1 0x1 PUSH1 0x1 PUSH1 0xA0 SHL SUB DUP3 AND SWAP1 PUSH4 0xF2FDE38B SWAP1 PUSH1 0x24 ADD PUSH1 0x0 PUSH1 0x40 MLOAD DUP1 DUP4 SUB DUP2 PUSH1 0x0 DUP8 DUP1 EXTCODESIZE ISZERO DUP1 ISZERO PUSH2 0x686 JUMPI PUSH1 0x0 DUP1 REVERT JUMPDEST POP GAS CALL ISZERO DUP1 ISZERO PUSH2 0x69A JUMPI RETURNDATASIZE PUSH1 0x0 DUP1 RETURNDATACOPY RETURNDATASIZE PUSH1 0x0 REVERT JUMPDEST POP POP POP POP PUSH1 0x0 DUP2 SWAP1 DUP1 PUSH1 0x1 DUP2 SLOAD ADD DUP1 DUP3 SSTORE DUP1 SWAP2 POP POP PUSH1 0x1 SWAP1 SUB SWAP1 PUSH1 0x0 MSTORE PUSH1 0x20 PUSH1 0x0 KECCAK256 ADD PUSH1 0x0 SWAP1 SWAP2 SWAP1 SWAP2 SWAP1 SWAP2 PUSH2 0x100 EXP DUP2 SLOAD DUP2 PUSH1 0x1 PUSH1 0x1 PUSH1 0xA0 SHL SUB MUL NOT AND SWAP1 DUP4 PUSH1 0x1 PUSH1 0x1 PUSH1 0xA0 SHL SUB AND MUL OR SWAP1 SSTORE POP PUSH1 0x1 DUP1 PUSH1 0x0 DUP4 PUSH1 0x1 PUSH1 0x1 PUSH1 0xA0 SHL SUB AND PUSH1 0x1 PUSH1 0x1 PUSH1 0xA0 SHL SUB AND DUP2 MSTORE PUSH1 0x20 ADD SWAP1 DUP2 MSTORE PUSH1 0x20 ADD PUSH1 0x0 KECCAK256 PUSH1 0x0 PUSH2 0x100 EXP DUP2 SLOAD DUP2 PUSH1 0xFF MUL NOT AND SWAP1 DUP4 ISZERO ISZERO MUL OR SWAP1 SSTORE POP PUSH1 0x2 PUSH1 0x0 CALLER PUSH1 0x1 PUSH1 0x1 PUSH1 0xA0 SHL SUB AND PUSH1 0x1 PUSH1 0x1 PUSH1 0xA0 SHL SUB AND DUP2 MSTORE PUSH1 0x20 ADD SWAP1 DUP2 MSTORE PUSH1 0x20 ADD PUSH1 0x0 KECCAK256 DUP2 SWAP1 DUP1 PUSH1 0x1 DUP2 SLOAD ADD DUP1 DUP3 SSTORE DUP1 SWAP2 POP POP PUSH1 0x1 SWAP1 SUB SWAP1 PUSH1 0x0 MSTORE PUSH1 0x20 PUSH1 0x0 KECCAK256 ADD PUSH1 0x0 SWAP1 SWAP2 SWAP1 SWAP2 SWAP1 SWAP2 PUSH2 0x100 EXP DUP2 SLOAD DUP2 PUSH1 0x1 PUSH1 0x1 PUSH1 0xA0 SHL SUB MUL NOT AND SWAP1 DUP4 PUSH1 0x1 PUSH1 0x1 PUSH1 0xA0 SHL SUB AND MUL OR SWAP1 SSTORE POP CALLER PUSH1 0x1 PUSH1 0x1 PUSH1 0xA0 SHL SUB AND DUP2 PUSH1 0x1 PUSH1 0x1 PUSH1 0xA0 SHL SUB AND PUSH32 0xAB6DDBB22BFB67279E9B459ED92BCB90A725D7F6AFAB7953F8B59E96303C0D47 DUP16 DUP16 TIMESTAMP PUSH1 0x40 MLOAD PUSH2 0x7D7 SWAP4 SWAP3 SWAP2 SWAP1 PUSH2 0xC62 JUMP JUMPDEST PUSH1 0x40 MLOAD DUP1 SWAP2 SUB SWAP1 LOG3 SWAP13 SWAP12 POP POP POP POP POP POP POP POP POP POP POP POP JUMP JUMPDEST PUSH1 0x20 DUP1 DUP3 MSTORE DUP3 MLOAD DUP3 DUP3 ADD DUP2 SWAP1 MSTORE PUSH1 0x0 SWAP2 SWAP1 DUP5 DUP3 ADD SWAP1 PUSH1 0x40 DUP6 ADD SWAP1 DUP5 JUMPDEST DUP2 DUP2 LT ISZERO PUSH2 0x830 JUMPI DUP4 MLOAD PUSH1 0x1 PUSH1 0x1 PUSH1 0xA0 SHL SUB AND DUP4 MSTORE SWAP3 DUP5 ADD SWAP3 SWAP2 DUP5 ADD SWAP2 PUSH1 0x1 ADD PUSH2 0x80B JUMP JUMPDEST POP SWAP1 SWAP7 SWAP6 POP POP POP POP POP POP JUMP JUMPDEST PUSH4 0x4E487B71 PUSH1 0xE0 SHL PUSH1 0x0 MSTORE PUSH1 0x41 PUSH1 0x4 MSTORE PUSH1 0x24 PUSH1 0x0 REVERT JUMPDEST PUSH1 0x40 MLOAD PUSH1 0x1F DUP3 ADD PUSH1 0x1F NOT AND DUP2 ADD PUSH8 0xFFFFFFFFFFFFFFFF DUP2 GT DUP3 DUP3 LT OR ISZERO PUSH2 0x87B JUMPI PUSH2 0x87B PUSH2 0x83C JUMP JUMPDEST PUSH1 0x40 MSTORE SWAP2 SWAP1 POP JUMP JUMPDEST PUSH1 0x0 PUSH8 0xFFFFFFFFFFFFFFFF DUP3 GT ISZERO PUSH2 0x89D JUMPI PUSH2 0x89D PUSH2 0x83C JUMP JUMPDEST POP PUSH1 0x1F ADD PUSH1 0x1F NOT AND PUSH1 0x20 ADD SWAP1 JUMP JUMPDEST PUSH1 0x0 DUP3 PUSH1 0x1F DUP4 ADD SLT PUSH2 0x8BC JUMPI PUSH1 0x0 DUP1 REVERT JUMPDEST DUP2 CALLDATALOAD PUSH2 0x8CF PUSH2 0x8CA DUP3 PUSH2 0x883 JUMP JUMPDEST PUSH2 0x852 JUMP JUMPDEST DUP2 DUP2 MSTORE DUP5 PUSH1 0x20 DUP4 DUP7 ADD ADD GT ISZERO PUSH2 0x8E4 JUMPI PUSH1 0x0 DUP1 REVERT JUMPDEST DUP2 PUSH1 0x20 DUP6 ADD PUSH1 0x20 DUP4 ADD CALLDATACOPY PUSH1 0x0 SWAP2 DUP2 ADD PUSH1 0x20 ADD SWAP2 SWAP1 SWAP2 MSTORE SWAP4 SWAP3 POP POP POP JUMP JUMPDEST PUSH1 0x0 DUP1 PUSH1 0x40 DUP4 DUP6 SUB SLT ISZERO PUSH2 0x914 JUMPI PUSH1 0x0 DUP1 REVERT JUMPDEST DUP3 CALLDATALOAD PUSH8 0xFFFFFFFFFFFFFFFF DUP1 DUP3 GT ISZERO PUSH2 0x92C JUMPI PUSH1 0x0 DUP1 REVERT JUMPDEST PUSH2 0x938 DUP7 DUP4 DUP8 ADD PUSH2 0x8AB JUMP JUMPDEST SWAP4 POP PUSH1 0x20 DUP6 ADD CALLDATALOAD SWAP2 POP DUP1 DUP3 GT ISZERO PUSH2 0x94E JUMPI PUSH1 0x0 DUP1 REVERT JUMPDEST POP PUSH2 0x95B DUP6 DUP3 DUP7 ADD PUSH2 0x8AB JUMP JUMPDEST SWAP2 POP POP SWAP3 POP SWAP3 SWAP1 POP JUMP JUMPDEST PUSH1 0x0 PUSH1 0x20 DUP3 DUP5 SUB SLT ISZERO PUSH2 0x977 JUMPI PUSH1 0x0 DUP1 REVERT JUMPDEST POP CALLDATALOAD SWAP2 SWAP1 POP JUMP JUMPDEST DUP1 CALLDATALOAD PUSH1 0x1 PUSH1 0x1 PUSH1 0xA0 SHL SUB DUP2 AND DUP2 EQ PUSH2 0x995 JUMPI PUSH1 0x0 DUP1 REVERT JUMPDEST SWAP2 SWAP1 POP JUMP JUMPDEST PUSH1 0x0 PUSH1 0x20 DUP3 DUP5 SUB SLT ISZERO PUSH2 0x9AC JUMPI PUSH1 0x0 DUP1 REVERT JUMPDEST PUSH2 0x9B5 DUP3 PUSH2 0x97E JUMP JUMPDEST SWAP4 SWAP3 POP POP POP JUMP JUMPDEST PUSH1 0x0 DUP1 PUSH1 0x40 DUP4 DUP6 SUB SLT ISZERO PUSH2 0x9CF JUMPI PUSH1 0x0 DUP1 REVERT JUMPDEST PUSH2 0x9D8 DUP4 PUSH2 0x97E JUMP JUMPDEST SWAP5 PUSH1 0x20 SWAP4 SWAP1 SWAP4 ADD CALLDATALOAD SWAP4 POP POP POP JUMP JUMPDEST PUSH1 0x0 DUP1 PUSH1 0x0 DUP1 PUSH1 0x0 DUP1 PUSH1 0x0 PUSH1 0xE0 DUP9 DUP11 SUB SLT ISZERO PUSH2 0xA01 JUMPI PUSH1 0x0 DUP1 REVERT JUMPDEST DUP8 CALLDATALOAD PUSH8 0xFFFFFFFFFFFFFFFF DUP1 DUP3 GT ISZERO PUSH2 0xA19 JUMPI PUSH1 0x0 DUP1 REVERT JUMPDEST PUSH2 0xA25 DUP12 DUP4 DUP13 ADD PUSH2 0x8AB JUMP JUMPDEST SWAP9 POP PUSH1 0x20 DUP11 ADD CALLDATALOAD SWAP2 POP DUP1 DUP3 GT ISZERO PUSH2 0xA3B JUMPI PUSH1 0x0 DUP1 REVERT JUMPDEST POP PUSH2 0xA48 DUP11 DUP3 DUP12 ADD PUSH2 0x8AB JUMP JUMPDEST SWAP7 POP POP PUSH1 0x40 DUP9 ADD CALLDATALOAD DUP1 ISZERO ISZERO DUP2 EQ PUSH2 0xA5E JUMPI PUSH1 0x0 DUP1 REVERT JUMPDEST SWAP7 SWAP10 SWAP6 SWAP9 POP SWAP6 SWAP7 PUSH1 0x60 DUP2 ADD CALLDATALOAD SWAP7 POP PUSH1 0x80 DUP2 ADD CALLDATALOAD SWAP6 PUSH1 0xA0 DUP3 ADD CALLDATALOAD SWAP6 POP PUSH1 0xC0 SWAP1 SWAP2 ADD CALLDATALOAD SWAP4 POP SWAP2 POP POP JUMP JUMPDEST PUSH1 0x0 JUMPDEST DUP4 DUP2 LT ISZERO PUSH2 0xAA1 JUMPI DUP2 DUP2 ADD MLOAD DUP4 DUP3 ADD MSTORE PUSH1 0x20 ADD PUSH2 0xA89 JUMP JUMPDEST POP POP PUSH1 0x0 SWAP2 ADD MSTORE JUMP JUMPDEST PUSH12 0xFFFFFFFFFFFFFFFFFFFFFFFF NOT DUP6 PUSH1 0x60 SHL AND DUP2 MSTORE PUSH1 0x0 DUP5 MLOAD PUSH2 0xAD4 DUP2 PUSH1 0x14 DUP6 ADD PUSH1 0x20 DUP10 ADD PUSH2 0xA86 JUMP JUMPDEST DUP5 MLOAD SWAP1 DUP4 ADD SWAP1 PUSH2 0xAEB DUP2 PUSH1 0x14 DUP5 ADD PUSH1 0x20 DUP10 ADD PUSH2 0xA86 JUMP JUMPDEST ADD PUSH1 0x14 DUP2 ADD SWAP4 SWAP1 SWAP4 MSTORE POP POP PUSH1 0x34 ADD SWAP4 SWAP3 POP POP POP JUMP JUMPDEST PUSH1 0x0 PUSH1 0x20 DUP3 DUP5 SUB SLT ISZERO PUSH2 0xB12 JUMPI PUSH1 0x0 DUP1 REVERT JUMPDEST DUP2 MLOAD PUSH8 0xFFFFFFFFFFFFFFFF DUP2 GT ISZERO PUSH2 0xB29 JUMPI PUSH1 0x0 DUP1 REVERT JUMPDEST DUP3 ADD PUSH1 0x1F DUP2 ADD DUP5 SGT PUSH2 0xB3A JUMPI PUSH1 0x0 DUP1 REVERT JUMPDEST DUP1 MLOAD PUSH2 0xB48 PUSH2 0x8CA DUP3 PUSH2 0x883 JUMP JUMPDEST DUP2 DUP2 MSTORE DUP6 PUSH1 0x20 DUP4 DUP6 ADD ADD GT ISZERO PUSH2 0xB5D JUMPI PUSH1 0x0 DUP1 REVERT JUMPDEST PUSH2 0xB6E DUP3 PUSH1 0x20 DUP4 ADD PUSH1 0x20 DUP7 ADD PUSH2 0xA86 JUMP JUMPDEST SWAP6 SWAP5 POP POP POP POP POP JUMP JUMPDEST PUSH1 0x0 DUP3 MLOAD PUSH2 0xB89 DUP2 DUP5 PUSH1 0x20 DUP8 ADD PUSH2 0xA86 JUMP JUMPDEST SWAP2 SWAP1 SWAP2 ADD SWAP3 SWAP2 POP POP JUMP JUMPDEST PUSH1 0x0 DUP2 MLOAD DUP1 DUP5 MSTORE PUSH2 0xBAB DUP2 PUSH1 0x20 DUP7 ADD PUSH1 0x20 DUP7 ADD PUSH2 0xA86 JUMP JUMPDEST PUSH1 0x1F ADD PUSH1 0x1F NOT AND SWAP3 SWAP1 SWAP3 ADD PUSH1 0x20 ADD SWAP3 SWAP2 POP POP JUMP JUMPDEST PUSH1 0x1 PUSH1 0x1 PUSH1 0xA0 SHL SUB DUP12 DUP2 AND DUP3 MSTORE PUSH2 0x140 PUSH1 0x20 DUP4 ADD DUP2 SWAP1 MSTORE PUSH1 0x0 SWAP2 PUSH2 0xBE5 DUP5 DUP4 ADD DUP15 PUSH2 0xB93 JUMP JUMPDEST SWAP2 POP DUP4 DUP3 SUB PUSH1 0x40 DUP6 ADD MSTORE PUSH2 0xBF9 DUP3 DUP14 PUSH2 0xB93 JUMP JUMPDEST SWAP11 AND PUSH1 0x60 DUP5 ADD MSTORE POP POP PUSH1 0x80 DUP2 ADD SWAP7 SWAP1 SWAP7 MSTORE SWAP4 ISZERO ISZERO PUSH1 0xA0 DUP7 ADD MSTORE PUSH1 0xC0 DUP6 ADD SWAP3 SWAP1 SWAP3 MSTORE PUSH1 0xE0 DUP5 ADD MSTORE PUSH2 0x100 DUP4 ADD MSTORE PUSH2 0x120 SWAP1 SWAP2 ADD MSTORE SWAP4 SWAP3 POP POP POP JUMP JUMPDEST PUSH1 0x0 DUP4 MLOAD PUSH2 0xC45 DUP2 DUP5 PUSH1 0x20 DUP9 ADD PUSH2 0xA86 JUMP JUMPDEST DUP4 MLOAD SWAP1 DUP4 ADD SWAP1 PUSH2 0xC59 DUP2 DUP4 PUSH1 0x20 DUP9 ADD PUSH2 0xA86 JUMP JUMPDEST ADD SWAP5 SWAP4 POP POP POP POP JUMP JUMPDEST PUSH1 0x60 DUP2 MSTORE PUSH1 0x0 PUSH2 0xC75 PUSH1 0x60 DUP4 ADD DUP7 PUSH2 0xB93 JUMP JUMPDEST DUP3 DUP2 SUB PUSH1 0x20 DUP5 ADD MSTORE PUSH2 0xC87 DUP2 DUP7 PUSH2 0xB93 JUMP JUMPDEST SWAP2 POP POP DUP3 PUSH1 0x40 DUP4 ADD MSTORE SWAP5 SWAP4 POP POP POP POP JUMP INVALID LOG2 PUSH5 0x6970667358 0x22 SLT KECCAK256 0x2B JUMPI BASEFEE PUSH1 0x4A 0xE7 GASPRICE CREATE2 0x1F INVALID 0xBF PUSH26 0xF02205D8E8751CE337C49537EC955B490DC6E7E364736F6C6343 STOP ADDMOD NOT STOP CALLER "},"methodIdentifiers":{"bytecodeContract()":"61b33e61","createFund(string,string,bool,uint256,uint256,uint256,uint256)":"fd6fdc74","defaultDeadlineOffset()":"e8feca30","deployedFunds(uint256)":"9a068bd6","getAllFunds()":"1c69b464","getFundCount()":"11648a4d","getFundsCreatedBy(address)":"a9d31f85","isFund(address)":"c7153b89","predictFundAddress(string,string)":"5b11044f","uniswapRouterAddress()":"20ca3c7f","userFunds(address,uint256)":"e0e6449f","wethAddress()":"4f0e0ef3"}}}}}