{"contracts/FundBytecode.sol":{"FundBytecode":{"abi":[{"inputs":[],"name":"FUND_BYTECODE","outputs":[{"internalType":"bytes","name":"","type":"bytes"}],"stateMutability":"view","type":"function"}],"evm":{"bytecode":{"linkReferences":{},"object":"6080604052348015600f57600080fd5b506140388061001f6000396000f3fe608060405234801561001057600080fd5b506004361061002b5760003560e01c80638487d32014610030575b600080fd5b61003861004e565b604051610045919061006d565b60405180910390f35b60405180613f800160405280613f4681526020016100bd613f46913981565b60006020808352835180602085015260005b8181101561009b5785810183015185820160400152820161007f565b506000604082860101526040601f19601f830116850101925050509291505056fe61012060405234801561001157600080fd5b50604051613f46380380613f4683398101604081905261003091610247565b338061005657604051631e4fbdf760e01b81526000600482015260240160405180910390fd5b61005f816100fd565b506001600160a01b038a166080526040518990899061007d9061014d565b61008892919061033b565b604051809103906000f0801580156100a4573d6000803e3d6000fd5b506001600160a01b0390811660a0529690961660e05260049490945560008054931515600160a01b0260ff60a01b1990941693909317909255600155600555600281905560c05260088190556101005250610369915050565b600080546001600160a01b038381166001600160a01b0319831681178455604051919092169283917f8be0079c531659141344cd1fd0a4f28419497f9722a3daafe3b4186f6b6457e09190a35050565b610c95806132b183390190565b80516001600160a01b038116811461017157600080fd5b919050565b634e487b7160e01b600052604160045260246000fd5b60005b838110156101a757818101518382015260200161018f565b50506000910152565b600082601f8301126101c157600080fd5b81516001600160401b03808211156101db576101db610176565b604051601f8301601f19908116603f0116810190828211818310171561020357610203610176565b8160405283815286602085880101111561021c57600080fd5b61022d84602083016020890161018c565b9695505050505050565b8051801515811461017157600080fd5b6000806000806000806000806000806101408b8d03121561026757600080fd5b6102708b61015a565b60208c0151909a506001600160401b038082111561028d57600080fd5b6102998e838f016101b0565b9a5060408d01519150808211156102af57600080fd5b506102bc8d828e016101b0565b9850506102cb60608c0161015a565b965060808b015195506102e060a08c01610237565b945060c08b0151935060e08b015192506101008b015191506101208b015190509295989b9194979a5092959850565b6000815180845261032781602086016020860161018c565b601f01601f19169290920160200192915050565b60408152600061034e604083018561030f565b8281036020840152610360818561030f565b95945050505050565b60805160a05160c05160e05161010051612e7861043960003960006113cb0152600081816107cc01528181610cc1015281816110d601528181611a4601528181611d4c0152818161211601526123d40152600081816104340152610bcb015260008181610324015281816109f101528181610adc015281816114550152611b240152600081816101eb0152818161056e015281816108fc01528181610df901528181611588015281816117b201528181611976015281816124060152818161266b01526127740152612e786000f3fe6080604052600436106101db5760003560e01c806372a960d711610102578063c5e2bdc311610095578063d8e159f811610064578063d8e159f8146105e0578063e78ec42e146105f5578063f2fde38b14610615578063f82462cf146106355761025f565b8063c5e2bdc31461055f578063c79bd7e814610592578063d0e30db0146105b2578063d3d03458146105ba5761025f565b80639f04586c116100d15780639f04586c146104ea578063a9e972071461050a578063ac1e50251461052a578063b3ce25721461054a5761025f565b806372a960d71461046d578063770f91f3146104825780638da5cb5b146104ac5780639076c166146104ca5761025f565b806315c0fc701161017a5780635b1dac60116101495780635b1dac60146103fb5780636639a81d1461041057806370ee263014610425578063715018a6146104585761025f565b806315c0fc701461039c57806315d3b5d8146103b1578063490ae210146103c65780634a706bdb146103e65761025f565b80630de705b5116101b65780630de705b51461030057806310680b8414610315578063114379411461035c578063117da1ee1461037c5761025f565b8062f714ce146102a7578063035cf142146102c757806306807597146102eb5761025f565b3661025f57336001600160a01b037f0000000000000000000000000000000000000000000000000000000000000000161461025d5760405162461bcd60e51b815260206004820181905260248201527f44697265637420455448207472616e7366657273206e6f7420616c6c6f77656460448201526064015b60405180910390fd5b005b60405162461bcd60e51b815260206004820181905260248201527f44697265637420455448207472616e7366657273206e6f7420616c6c6f7765646044820152606401610254565b3480156102b357600080fd5b5061025d6102c23660046127ef565b61064a565b3480156102d357600080fd5b506001545b6040519081526020015b60405180910390f35b3480156102f757600080fd5b506005546102d8565b34801561030c57600080fd5b506002546102d8565b34801561032157600080fd5b507f00000000000000000000000000000000000000000000000000000000000000005b6040516001600160a01b0390911681526020016102e2565b34801561036857600080fd5b506102d861037736600461281f565b610aba565b34801561038857600080fd5b5061025d610397366004612843565b610b4f565b3480156103a857600080fd5b506009546102d8565b3480156103bd57600080fd5b506102d8610b5c565b3480156103d257600080fd5b5061025d6103e1366004612843565b610bc1565b3480156103f257600080fd5b506004546102d8565b34801561040757600080fd5b506102d8610c80565b34801561041c57600080fd5b506102d8610cbd565b34801561043157600080fd5b507f00000000000000000000000000000000000000000000000000000000000000006102d8565b34801561046457600080fd5b5061025d610dc3565b34801561047957600080fd5b506102d8610dd7565b34801561048e57600080fd5b50600054600160a01b900460ff1660405190151581526020016102e2565b3480156104b857600080fd5b506000546001600160a01b0316610344565b3480156104d657600080fd5b5061025d6104e536600461285c565b610e9e565b3480156104f657600080fd5b5061025d610505366004612896565b61138e565b34801561051657600080fd5b5061025d610525366004612843565b6113b4565b34801561053657600080fd5b5061025d610545366004612843565b6113c1565b34801561055657600080fd5b506102d8611451565b34801561056b57600080fd5b507f0000000000000000000000000000000000000000000000000000000000000000610344565b34801561059e57600080fd5b5061025d6105ad36600461285c565b6114da565b61025d611664565b3480156105c657600080fd5b506105cf611bc0565b6040516102e295949392919061294d565b3480156105ec57600080fd5b506008546102d8565b34801561060157600080fd5b5061025d610610366004612843565b611fd8565b34801561062157600080fd5b5061025d61063036600461281f565b611fe5565b34801561064157600080fd5b506003546102d8565b6000610654611451565b90506000811161069f5760405162461bcd60e51b815260206004820152601660248201527527379039b430b932b99037baba39ba30b73234b7339760511b6044820152606401610254565b600083116106f95760405162461bcd60e51b815260206004820152602160248201527f596f75206d7573742073656c6c206174206c65617374206f6e652073686172656044820152601760f91b6064820152608401610254565b600061070433610aba565b9050838110156107715760405162461bcd60e51b815260206004820152603260248201527f53656c6c20616d6f756e742069732067726561746572207468616e206375727260448201527132b73a1039b430b932903130b630b731b29760711b6064820152608401610254565b600061077b610c80565b6107859086612a2a565b905060006107956004600a612b25565b9050600081836008546107a89190612a2a565b6107b29190612b34565b905080600960008282546107c69190612b56565b909155507f0000000000000000000000000000000000000000000000000000000000000000905060005b6007548110156108be5760006007828154811061080f5761080f612b69565b60009182526020822001546040516370a0823160e01b81523060048201526001600160a01b0390911692508291908a9083906370a0823190602401602060405180830381865afa158015610867573d6000803e3d6000fd5b505050506040513d601f19601f8201168201806040525081019061088b9190612b7f565b610895908e612a2a565b61089f9190612b34565b905080156108b3576108b385848330612023565b5050506001016107f0565b506000866108ca610dd7565b6108d4908b612a2a565b6108de9190612b34565b905080156109d557604051632e1a7d4d60e01b8152600481018290527f00000000000000000000000000000000000000000000000000000000000000006001600160a01b031690632e1a7d4d90602401600060405180830381600087803b15801561094857600080fd5b505af115801561095c573d6000803e3d6000fd5b505050506000886001600160a01b03168260405160006040518083038185875af1925050503d80600081146109ad576040519150601f19603f3d011682016040523d82523d6000602084013e6109b2565b606091505b50509050806109d35760405162461bcd60e51b815260040161025490612b98565b505b604051632770a7eb60e21b8152336004820152602481018a90527f00000000000000000000000000000000000000000000000000000000000000006001600160a01b031690639dc29fac90604401600060405180830381600087803b158015610a3d57600080fd5b505af1158015610a51573d6000803e3d6000fd5b503392507ff341246adaac6f497bc2a656f546ab9e182111d630394f0c57c710a59a2cb56791508a90508b610a86878a612bc5565b604080516001600160a01b0390941684526020840192909252908201526060015b60405180910390a2505050505050505050565b6040516370a0823160e01b81526001600160a01b0382811660048301526000917f0000000000000000000000000000000000000000000000000000000000000000909116906370a0823190602401602060405180830381865afa158015610b25573d6000803e3d6000fd5b505050506040513d601f19601f82011682018060405250810190610b499190612b7f565b92915050565b610b57612213565b600555565b600080805b600754811015610bbb576006600060078381548110610b8257610b82612b69565b60009182526020808320909101546001600160a01b03168352820192909252604001902054610bb19083612b56565b9150600101610b61565b50919050565b610bc9612213565b7f0000000000000000000000000000000000000000000000000000000000000000811115610c7b5760405162461bcd60e51b815260206004820152605360248201527f4465706f736974206665652063616e6e6f74206265207365742068696768657260448201527f207468616e207468652076616c7565206974207761732073657420746f206f6e6064820152721031b7b73a3930b1ba1031b932b0ba34b7b71760691b608482015260a401610254565b600255565b600080610c8b611451565b905080600003610c9d57600091505090565b610ca5611451565b610cad610cbd565b610cb79190612b34565b91505090565b60007f000000000000000000000000000000000000000000000000000000000000000081610ce9610dd7565b905060005b600754811015610dbc57600060078281548110610d0d57610d0d612b69565b60009182526020822001546040516370a0823160e01b81523060048201526001600160a01b03909116925082919082906370a0823190602401602060405180830381865afa158015610d63573d6000803e3d6000fd5b505050506040513d601f19601f82011682018060405250810190610d879190612b7f565b905080600003610d9957505050610db4565b610da4868483612240565b610dae9086612b56565b94505050505b600101610cee565b5092915050565b610dcb612213565b610dd560006122f8565b565b6040516370a0823160e01b815230600482015260009081906001600160a01b037f000000000000000000000000000000000000000000000000000000000000000016906370a0823190602401602060405180830381865afa158015610e40573d6000803e3d6000fd5b505050506040513d601f19601f82011682018060405250810190610e649190612b7f565b9050600954600354610e769190612b56565b8111610e8457600091505090565b600954600354610e949083612bc5565b610cb79190612bc5565b610ea6612213565b610eb26004600a612b25565b811115610f115760405162461bcd60e51b815260206004820152602760248201527f417373657420616c6c6f636174696f6e206d757374206265203e3d203020616e60448201526632101e1e90189760c91b6064820152608401610254565b6001600160a01b0382166000908152600660205260409020548103610f945760405162461bcd60e51b815260206004820152603360248201527f4e657720616c6c6f636174696f6e2063616e6e6f74206265207468652073616d604482015272329030b99037b6321030b63637b1b0ba34b7b760691b6064820152608401610254565b6001600160a01b038216600090815260066020526040812054610fb79083612bd8565b9050610fc56004600a612b25565b81610fce610b5c565b610fd89190612bf8565b13156110345760405162461bcd60e51b815260206004820152602560248201527f546f74616c20617373657420616c6c6f636174696f6e2063616e6e6f74206265604482015264101f10189760d91b6064820152608401610254565b600061103e610cbd565b9050600061104e6004600a612b25565b6110588386612a2a565b6110629190612b34565b6040516370a0823160e01b815230600482015290915085906000906001600160a01b038316906370a0823190602401602060405180830381865afa1580156110ae573d6000803e3d6000fd5b505050506040513d601f19601f820116820180604052508101906110d29190612b7f565b90507f000000000000000000000000000000000000000000000000000000000000000060008261110357600061110e565b61110e828a85612240565b9050848110156111585760006111248287612bc5565b9050806000611131610dd7565b90508082111561113f578091505b811561115057611150858d84612348565b50505061119c565b8481111561119c57600061116c8683612bc5565b905060008261117b8684612a2a565b6111859190612b34565b9050801561119957611199848c8330612023565b50505b871580156111c157506001600160a01b03891660009081526006602052604090205415155b156112ca5760005b6007548110156112c457896001600160a01b0316600782815481106111f0576111f0612b69565b6000918252602090912001546001600160a01b0316036112bc576007805461121a90600190612bc5565b8154811061122a5761122a612b69565b600091825260209091200154600780546001600160a01b03909216918390811061125657611256612b69565b9060005260206000200160006101000a8154816001600160a01b0302191690836001600160a01b03160217905550600780548061129557611295612c20565b600082815260209020810160001990810180546001600160a01b03191690550190556112c4565b6001016111c9565b50611341565b6000881180156112f057506001600160a01b038916600090815260066020526040902054155b1561134157600780546001810182556000919091527fa66cc928b5edb82af9bd49922954155ab7b0942694bea4ce44661d9a8736c6880180546001600160a01b0319166001600160a01b038b161790555b6001600160a01b038916600081815260066020526040908190208a9055517f7a994e2e422225102fed915394da80aeeea86e2c0ca3f41d6d48421252f83b9290610aa7908b815260200190565b611396612213565b60008054911515600160a01b0260ff60a01b19909216919091179055565b6113bc612213565b600455565b6113c9612213565b7f000000000000000000000000000000000000000000000000000000000000000081111561144c5760405162461bcd60e51b815260206004820152602a60248201527f4665652063616e6e6f742062652073657420686967686572207468616e206372604482015269656174696f6e2066656560b01b6064820152608401610254565b600855565b60007f00000000000000000000000000000000000000000000000000000000000000006001600160a01b03166318160ddd6040518163ffffffff1660e01b8152600401602060405180830381865afa1580156114b1573d6000803e3d6000fd5b505050506040513d601f19601f820116820180604052508101906114d59190612b7f565b905090565b6114e2612213565b6009546003546114f29190612b56565b81111561154f5760405162461bcd60e51b815260206004820152602560248201527f5769746864726177616c20616d6f756e742065786365656473206665652062616044820152646c616e636560d81b6064820152608401610254565b806009546003546115609190612b56565b61156a9190612bc5565b6003556000600955604051632e1a7d4d60e01b8152600481018290527f00000000000000000000000000000000000000000000000000000000000000006001600160a01b031690632e1a7d4d90602401600060405180830381600087803b1580156115d457600080fd5b505af11580156115e8573d6000803e3d6000fd5b505050506000826001600160a01b03168260405160006040518083038185875af1925050503d8060008114611639576040519150601f19603f3d011682016040523d82523d6000602084013e61163e565b606091505b505090508061165f5760405162461bcd60e51b815260040161025490612b98565b505050565b600054600160a01b900460ff16806116ee5750306001600160a01b0316638da5cb5b6040518163ffffffff1660e01b8152600401602060405180830381865afa1580156116b5573d6000803e3d6000fd5b505050506040513d601f19601f820116820180604052508101906116d99190612c36565b6001600160a01b0316336001600160a01b0316145b6117455760405162461bcd60e51b815260206004820152602260248201527f4465706f73697473206172652074656d706f726172696c792064697361626c65604482015261321760f11b6064820152608401610254565b6001543410156117b05760405162461bcd60e51b815260206004820152603060248201527f4465706f73697420616d6f756e74206973206c657373207468616e207468652060448201526f36b4b734b6bab6903232b837b9b4ba1760811b6064820152608401610254565b7f00000000000000000000000000000000000000000000000000000000000000006001600160a01b031663d0e30db0346040518263ffffffff1660e01b81526004016000604051808303818588803b15801561180b57600080fd5b505af115801561181f573d6000803e3d6000fd5b505050505060006004600a6118349190612b25565b9050600081346002546118479190612a2a565b6118519190612b34565b9050600061185f8234612bc5565b905081600360008282546118739190612b56565b90915550600090508080611885611451565b9050806000036118c157620186a061189f6012600a612b25565b6118a98287612a2a565b6118b39190612b34565b9350839150849250506118e3565b6118c9610cbd565b9150816118d68286612a2a565b6118e09190612b34565b92505b600083116119335760405162461bcd60e51b815260206004820181905260248201527f596f75206d75737420627579206174206c65617374206f6e652073686172652e6044820152606401610254565b6000816119408486612a2a565b61194a9190612b34565b905060006119588287612bc5565b90508015611a4457604051632e1a7d4d60e01b8152600481018290527f00000000000000000000000000000000000000000000000000000000000000006001600160a01b031690632e1a7d4d90602401600060405180830381600087803b1580156119c257600080fd5b505af11580156119d6573d6000803e3d6000fd5b50506040516000925033915083908381818185875af1925050503d8060008114611a1c576040519150601f19603f3d011682016040523d82523d6000602084013e611a21565b606091505b5050905080611a425760405162461bcd60e51b815260040161025490612b98565b505b7f000000000000000000000000000000000000000000000000000000000000000060005b600754811015611b0757600060078281548110611a8757611a87612b69565b60009182526020822001546001600160a01b03169150611aa96004600a612b25565b611ab3868c612bc5565b6001600160a01b038416600090815260066020526040902054611ad69190612a2a565b611ae09190612b34565b905080600003611af1575050611aff565b611afc848383612348565b50505b600101611a68565b506040516340c10f1960e01b8152336004820152602481018790527f00000000000000000000000000000000000000000000000000000000000000006001600160a01b0316906340c10f1990604401600060405180830381600087803b158015611b7057600080fd5b505af1158015611b84573d6000803e3d6000fd5b505060408051898152602081018790523393507f90890809c654f11d6e72a28fa60149770a0d11ec6c92319d6ceb2bb0a4ea1a15925001610aa7565b6060806060806060600060078054905067ffffffffffffffff811115611be857611be8612c53565b604051908082528060200260200182016040528015611c11578160200160208202803683370190505b5060075490915060009067ffffffffffffffff811115611c3357611c33612c53565b604051908082528060200260200182016040528015611c5c578160200160208202803683370190505b5060075490915060009067ffffffffffffffff811115611c7e57611c7e612c53565b604051908082528060200260200182016040528015611cb157816020015b6060815260200190600190039081611c9c5790505b5060075490915060009067ffffffffffffffff811115611cd357611cd3612c53565b604051908082528060200260200182016040528015611cfc578160200160208202803683370190505b5060075490915060009067ffffffffffffffff811115611d1e57611d1e612c53565b604051908082528060200260200182016040528015611d47578160200160208202803683370190505b5090507f000000000000000000000000000000000000000000000000000000000000000060005b600754811015611fc657600060078281548110611d8d57611d8d612b69565b9060005260206000200160009054906101000a90046001600160a01b0316905080888381518110611dc057611dc0612b69565b60200260200101906001600160a01b031690816001600160a01b03168152505060066000826001600160a01b03166001600160a01b0316815260200190815260200160002054878381518110611e1857611e18612b69565b6020026020010181815250506000819050806001600160a01b03166395d89b416040518163ffffffff1660e01b8152600401600060405180830381865afa158015611e67573d6000803e3d6000fd5b505050506040513d6000823e601f3d908101601f19168201604052611e8f9190810190612c9a565b878481518110611ea157611ea1612b69565b60209081029190910101526040516370a0823160e01b81523060048201526001600160a01b038216906370a0823190602401602060405180830381865afa158015611ef0573d6000803e3d6000fd5b505050506040513d601f19601f82011682018060405250810190611f149190612b7f565b868481518110611f2657611f26612b69565b6020026020010181815250506000868481518110611f4657611f46612b69565b60200260200101511115611f9b57611f788483888681518110611f6b57611f6b612b69565b6020026020010151612240565b858481518110611f8a57611f8a612b69565b602002602001018181525050611fbc565b6000858481518110611faf57611faf612b69565b6020026020010181815250505b5050600101611d6e565b50949a93995091975095509350915050565b611fe0612213565b600155565b611fed612213565b6001600160a01b03811661201757604051631e4fbdf760e01b815260006004820152602401610254565b612020816122f8565b50565b6040516370a0823160e01b815230600482015283906001600160a01b038216906370a0823190602401602060405180830381865afa158015612069573d6000803e3d6000fd5b505050506040513d601f19601f8201168201806040525081019061208d9190612b7f565b8311156120dc5760405162461bcd60e51b815260206004820152601b60248201527f496e73756666696369656e7420746f6b656e2062616c616e63652e00000000006044820152606401610254565b60006120f16120ec878787612240565b6124f0565b905060006120ff878761252d565b60405163095ea7b360e01b81526001600160a01b037f000000000000000000000000000000000000000000000000000000000000000081166004830152602482018890529192509084169063095ea7b3906044016020604051808303816000875af1158015612172573d6000803e3d6000fd5b505050506040513d601f19601f820116820180604052508101906121969190612d2e565b50866001600160a01b0316635c11d79586848488600454426121b89190612b56565b6040518663ffffffff1660e01b81526004016121d8959493929190612d4b565b600060405180830381600087803b1580156121f257600080fd5b505af1158015612206573d6000803e3d6000fd5b5050505050505050505050565b6000546001600160a01b03163314610dd55760405163118cdaa760e01b8152336004820152602401610254565b60008061224d858561252d565b90506000856001600160a01b031663d06ca61f85846040518363ffffffff1660e01b815260040161227f929190612d87565b600060405180830381865afa15801561229c573d6000803e3d6000fd5b505050506040513d6000823e601f3d908101601f191682016040526122c49190810190612da8565b905080600182516122d59190612bc5565b815181106122e5576122e5612b69565b6020026020010151925050509392505050565b600080546001600160a01b038381166001600160a01b0319831681178455604051919092169283917f8be0079c531659141344cd1fd0a4f28419497f9722a3daafe3b4186f6b6457e09190a35050565b612350610dd7565b81111561239f5760405162461bcd60e51b815260206004820152601a60248201527f496e73756666696369656e7420574554482062616c616e63652e0000000000006044820152606401610254565b60006123af6120ec8585856126be565b905060006123bd85856126c7565b60405163095ea7b360e01b81526001600160a01b037f000000000000000000000000000000000000000000000000000000000000000081166004830152602482018690529192507f00000000000000000000000000000000000000000000000000000000000000009091169063095ea7b3906044016020604051808303816000875af1158015612451573d6000803e3d6000fd5b505050506040513d601f19601f820116820180604052508101906124759190612d2e565b50846001600160a01b0316635c11d79584848430600454426124979190612b56565b6040518663ffffffff1660e01b81526004016124b7959493929190612d4b565b600060405180830381600087803b1580156124d157600080fd5b505af11580156124e5573d6000803e3d6000fd5b505050505050505050565b60006124fe6004600a612b25565b600554839061250f6004600a612b25565b6125199190612bc5565b6125239190612a2a565b610b499190612b34565b60606000836001600160a01b031663ad5c46486040518163ffffffff1660e01b8152600401602060405180830381865afa15801561256f573d6000803e3d6000fd5b505050506040513d601f19601f820116820180604052508101906125939190612c36565b9050806001600160a01b0316836001600160a01b03160361261457600060015b6040519080825280602002602001820160405280156125dc578160200160208202803683370190505b50905081816000815181106125f3576125f3612b69565b6001600160a01b03909216602092830291909101909101529150610b499050565b604080516002808252606082018352600092602083019080368337019050509050838160008151811061264957612649612b69565b60200260200101906001600160a01b031690816001600160a01b0316815250507f00000000000000000000000000000000000000000000000000000000000000008160018151811061269d5761269d612b69565b6001600160a01b039092166020928302919091019091015291505092915050565b60008061224d85855b60606000836001600160a01b031663ad5c46486040518163ffffffff1660e01b8152600401602060405180830381865afa158015612709573d6000803e3d6000fd5b505050506040513d601f19601f8201168201806040525081019061272d9190612c36565b9050806001600160a01b0316836001600160a01b03160361275157600060016125b3565b6040805160028082526060820183526000926020830190803683370190505090507f0000000000000000000000000000000000000000000000000000000000000000816000815181106127a6576127a6612b69565b60200260200101906001600160a01b031690816001600160a01b031681525050838160018151811061269d5761269d612b69565b6001600160a01b038116811461202057600080fd5b6000806040838503121561280257600080fd5b823591506020830135612814816127da565b809150509250929050565b60006020828403121561283157600080fd5b813561283c816127da565b9392505050565b60006020828403121561285557600080fd5b5035919050565b6000806040838503121561286f57600080fd5b823561287a816127da565b946020939093013593505050565b801515811461202057600080fd5b6000602082840312156128a857600080fd5b813561283c81612888565b60008151808452602080850194506020840160005b838110156128ed5781516001600160a01b0316875295820195908201906001016128c8565b509495945050505050565b60008151808452602080850194506020840160005b838110156128ed5781518752958201959082019060010161290d565b60005b8381101561294457818101518382015260200161292c565b50506000910152565b60a08152600061296060a08301886128b3565b60208382038185015261297382896128f8565b915083820360408501528187518084528284019150828160051b850101838a0160005b838110156129dc57601f1980888503018652825180518086526129be818a88018b8501612929565b96880196601f01909116939093018601925090850190600101612996565b505086810360608801526129f0818a6128f8565b9450505050508281036080840152612a0881856128f8565b98975050505050505050565b634e487b7160e01b600052601160045260246000fd5b8082028115828204841417610b4957610b49612a14565b600181815b80851115612a7c578160001904821115612a6257612a62612a14565b80851615612a6f57918102915b93841c9390800290612a46565b509250929050565b600082612a9357506001610b49565b81612aa057506000610b49565b8160018114612ab65760028114612ac057612adc565b6001915050610b49565b60ff841115612ad157612ad1612a14565b50506001821b610b49565b5060208310610133831016604e8410600b8410161715612aff575081810a610b49565b612b098383612a41565b8060001904821115612b1d57612b1d612a14565b029392505050565b600061283c60ff841683612a84565b600082612b5157634e487b7160e01b600052601260045260246000fd5b500490565b80820180821115610b4957610b49612a14565b634e487b7160e01b600052603260045260246000fd5b600060208284031215612b9157600080fd5b5051919050565b602080825260139082015272115512081d1c985b9cd9995c8819985a5b1959606a1b604082015260600190565b81810381811115610b4957610b49612a14565b8181036000831280158383131683831282161715610dbc57610dbc612a14565b8082018281126000831280158216821582161715612c1857612c18612a14565b505092915050565b634e487b7160e01b600052603160045260246000fd5b600060208284031215612c4857600080fd5b815161283c816127da565b634e487b7160e01b600052604160045260246000fd5b604051601f8201601f1916810167ffffffffffffffff81118282101715612c9257612c92612c53565b604052919050565b600060208284031215612cac57600080fd5b815167ffffffffffffffff80821115612cc457600080fd5b818401915084601f830112612cd857600080fd5b815181811115612cea57612cea612c53565b612cfd601f8201601f1916602001612c69565b9150808252856020828501011115612d1457600080fd5b612d25816020840160208601612929565b50949350505050565b600060208284031215612d4057600080fd5b815161283c81612888565b85815284602082015260a060408201526000612d6a60a08301866128b3565b6001600160a01b0394909416606083015250608001529392505050565b828152604060208201526000612da060408301846128b3565b949350505050565b60006020808385031215612dbb57600080fd5b825167ffffffffffffffff80821115612dd357600080fd5b818501915085601f830112612de757600080fd5b815181811115612df957612df9612c53565b8060051b9150612e0a848301612c69565b8181529183018401918481019088841115612e2457600080fd5b938501935b83851015612a0857845182529385019390850190612e2956fea2646970667358221220313c93545b798acffe2fadfec87e18b9cc3e8606dad090441795c9ae4413db4364736f6c63430008190033608060405234801561001057600080fd5b50604051610c95380380610c9583398101604081905261002f9161019d565b338282600361003e838261028b565b50600461004b828261028b565b5050506001600160a01b03811661007c57604051631e4fbdf760e01b81526000600482015260240160405180910390fd5b6100858161008d565b50505061034a565b600580546001600160a01b038381166001600160a01b0319831681179093556040519116919082907f8be0079c531659141344cd1fd0a4f28419497f9722a3daafe3b4186f6b6457e090600090a35050565b634e487b7160e01b600052604160045260246000fd5b600082601f83011261010657600080fd5b81516001600160401b0380821115610120576101206100df565b604051601f8301601f19908116603f01168101908282118183101715610148576101486100df565b816040528381526020925086602085880101111561016557600080fd5b600091505b83821015610187578582018301518183018401529082019061016a565b6000602085830101528094505050505092915050565b600080604083850312156101b057600080fd5b82516001600160401b03808211156101c757600080fd5b6101d3868387016100f5565b935060208501519150808211156101e957600080fd5b506101f6858286016100f5565b9150509250929050565b600181811c9082168061021457607f821691505b60208210810361023457634e487b7160e01b600052602260045260246000fd5b50919050565b601f821115610286576000816000526020600020601f850160051c810160208610156102635750805b601f850160051c820191505b818110156102825782815560010161026f565b5050505b505050565b81516001600160401b038111156102a4576102a46100df565b6102b8816102b28454610200565b8461023a565b602080601f8311600181146102ed57600084156102d55750858301515b600019600386901b1c1916600185901b178555610282565b600085815260208120601f198616915b8281101561031c578886015182559484019460019091019084016102fd565b508582101561033a5787850151600019600388901b60f8161c191681555b5050505050600190811b01905550565b61093c806103596000396000f3fe608060405234801561001057600080fd5b50600436106100ea5760003560e01c8063715018a61161008c5780639dc29fac116100665780639dc29fac146101cd578063a9059cbb146101e0578063dd62ed3e146101f3578063f2fde38b1461022c57600080fd5b8063715018a6146101a25780638da5cb5b146101aa57806395d89b41146101c557600080fd5b806323b872dd116100c857806323b872dd14610142578063313ce5671461015557806340c10f191461016457806370a082311461017957600080fd5b806306fdde03146100ef578063095ea7b31461010d57806318160ddd14610130575b600080fd5b6100f761023f565b6040516101049190610785565b60405180910390f35b61012061011b3660046107f0565b6102d1565b6040519015158152602001610104565b6002545b604051908152602001610104565b61012061015036600461081a565b6102eb565b60405160008152602001610104565b6101776101723660046107f0565b61030f565b005b610134610187366004610856565b6001600160a01b031660009081526020819052604090205490565b610177610325565b6005546040516001600160a01b039091168152602001610104565b6100f7610339565b6101776101db3660046107f0565b610348565b6101206101ee3660046107f0565b61035a565b610134610201366004610878565b6001600160a01b03918216600090815260016020908152604080832093909416825291909152205490565b61017761023a366004610856565b610368565b60606003805461024e906108ab565b80601f016020809104026020016040519081016040528092919081815260200182805461027a906108ab565b80156102c75780601f1061029c576101008083540402835291602001916102c7565b820191906000526020600020905b8154815290600101906020018083116102aa57829003601f168201915b5050505050905090565b6000336102df8185856103ab565b60019150505b92915050565b6000336102f98582856103bd565b61030485858561043c565b506001949350505050565b61031761049b565b61032182826104c8565b5050565b61032d61049b565b61033760006104fe565b565b60606004805461024e906108ab565b61035061049b565b6103218282610550565b6000336102df81858561043c565b61037061049b565b6001600160a01b03811661039f57604051631e4fbdf760e01b8152600060048201526024015b60405180910390fd5b6103a8816104fe565b50565b6103b88383836001610586565b505050565b6001600160a01b03838116600090815260016020908152604080832093861683529290522054600019811015610436578181101561042757604051637dc7a0d960e11b81526001600160a01b03841660048201526024810182905260448101839052606401610396565b61043684848484036000610586565b50505050565b6001600160a01b03831661046657604051634b637e8f60e11b815260006004820152602401610396565b6001600160a01b0382166104905760405163ec442f0560e01b815260006004820152602401610396565b6103b883838361065b565b6005546001600160a01b031633146103375760405163118cdaa760e01b8152336004820152602401610396565b6001600160a01b0382166104f25760405163ec442f0560e01b815260006004820152602401610396565b6103216000838361065b565b600580546001600160a01b038381166001600160a01b0319831681179093556040519116919082907f8be0079c531659141344cd1fd0a4f28419497f9722a3daafe3b4186f6b6457e090600090a35050565b6001600160a01b03821661057a57604051634b637e8f60e11b815260006004820152602401610396565b6103218260008361065b565b6001600160a01b0384166105b05760405163e602df0560e01b815260006004820152602401610396565b6001600160a01b0383166105da57604051634a1406b160e11b815260006004820152602401610396565b6001600160a01b038085166000908152600160209081526040808320938716835292905220829055801561043657826001600160a01b0316846001600160a01b03167f8c5be1e5ebec7d5bd14f71427d1e84f3dd0314c0f7b2291e5b200ac8c7c3b9258460405161064d91815260200190565b60405180910390a350505050565b6001600160a01b03831661068657806002600082825461067b91906108e5565b909155506106f89050565b6001600160a01b038316600090815260208190526040902054818110156106d95760405163391434e360e21b81526001600160a01b03851660048201526024810182905260448101839052606401610396565b6001600160a01b03841660009081526020819052604090209082900390555b6001600160a01b03821661071457600280548290039055610733565b6001600160a01b03821660009081526020819052604090208054820190555b816001600160a01b0316836001600160a01b03167fddf252ad1be2c89b69c2b068fc378daa952ba7f163c4a11628f55a4df523b3ef8360405161077891815260200190565b60405180910390a3505050565b60006020808352835180602085015260005b818110156107b357858101830151858201604001528201610797565b506000604082860101526040601f19601f8301168501019250505092915050565b80356001600160a01b03811681146107eb57600080fd5b919050565b6000806040838503121561080357600080fd5b61080c836107d4565b946020939093013593505050565b60008060006060848603121561082f57600080fd5b610838846107d4565b9250610846602085016107d4565b9150604084013590509250925092565b60006020828403121561086857600080fd5b610871826107d4565b9392505050565b6000806040838503121561088b57600080fd5b610894836107d4565b91506108a2602084016107d4565b90509250929050565b600181811c908216806108bf57607f821691505b6020821081036108df57634e487b7160e01b600052602260045260246000fd5b50919050565b808201808211156102e557634e487b7160e01b600052601160045260246000fdfea2646970667358221220a746e9f520f3b4f43b0f2b66c519fcbc1bcdb56232b3b9f2a26f7db33305bd7664736f6c63430008190033a2646970667358221220b220966f2bbe1517226979c0bd2bbe000b9b43c861b7684af86c4a7c4d16440964736f6c63430008190033","opcodes":"PUSH1 0x80 PUSH1 0x40 MSTORE CALLVALUE DUP1 ISZERO PUSH1 0xF JUMPI PUSH1 0x0 DUP1 REVERT JUMPDEST POP PUSH2 0x4038 DUP1 PUSH2 0x1F PUSH1 0x0 CODECOPY PUSH1 0x0 RETURN INVALID PUSH1 0x80 PUSH1 0x40 MSTORE CALLVALUE DUP1 ISZERO PUSH2 0x10 JUMPI PUSH1 0x0 DUP1 REVERT JUMPDEST POP PUSH1 0x4 CALLDATASIZE LT PUSH2 0x2B JUMPI PUSH1 0x0 CALLDATALOAD PUSH1 0xE0 SHR DUP1 PUSH4 0x8487D320 EQ PUSH2 0x30 JUMPI JUMPDEST PUSH1 0x0 DUP1 REVERT JUMPDEST PUSH2 0x38 PUSH2 0x4E JUMP JUMPDEST PUSH1 0x40 MLOAD PUSH2 0x45 SWAP2 SWAP1 PUSH2 0x6D JUMP JUMPDEST PUSH1 0x40 MLOAD DUP1 SWAP2 SUB SWAP1 RETURN JUMPDEST PUSH1 0x40 MLOAD DUP1 PUSH2 0x3F80 ADD PUSH1 0x40 MSTORE DUP1 PUSH2 0x3F46 DUP2 MSTORE PUSH1 0x20 ADD PUSH2 0xBD PUSH2 0x3F46 SWAP2 CODECOPY DUP2 JUMP JUMPDEST PUSH1 0x0 PUSH1 0x20 DUP1 DUP4 MSTORE DUP4 MLOAD DUP1 PUSH1 0x20 DUP6 ADD MSTORE PUSH1 0x0 JUMPDEST DUP2 DUP2 LT ISZERO PUSH2 0x9B JUMPI DUP6 DUP2 ADD DUP4 ADD MLOAD DUP6 DUP3 ADD PUSH1 0x40 ADD MSTORE DUP3 ADD PUSH2 0x7F JUMP JUMPDEST POP PUSH1 0x0 PUSH1 0x40 DUP3 DUP7 ADD ADD MSTORE PUSH1 0x40 PUSH1 0x1F NOT PUSH1 0x1F DUP4 ADD AND DUP6 ADD ADD SWAP3 POP POP POP SWAP3 SWAP2 POP POP JUMP INVALID PUSH2 0x120 PUSH1 0x40 MSTORE CALLVALUE DUP1 ISZERO PUSH2 0x11 JUMPI PUSH1 0x0 DUP1 REVERT JUMPDEST POP PUSH1 0x40 MLOAD PUSH2 0x3F46 CODESIZE SUB DUP1 PUSH2 0x3F46 DUP4 CODECOPY DUP2 ADD PUSH1 0x40 DUP2 SWAP1 MSTORE PUSH2 0x30 SWAP2 PUSH2 0x247 JUMP JUMPDEST CALLER DUP1 PUSH2 0x56 JUMPI PUSH1 0x40 MLOAD PUSH4 0x1E4FBDF7 PUSH1 0xE0 SHL DUP2 MSTORE PUSH1 0x0 PUSH1 0x4 DUP3 ADD MSTORE PUSH1 0x24 ADD PUSH1 0x40 MLOAD DUP1 SWAP2 SUB SWAP1 REVERT JUMPDEST PUSH2 0x5F DUP2 PUSH2 0xFD JUMP JUMPDEST POP PUSH1 0x1 PUSH1 0x1 PUSH1 0xA0 SHL SUB DUP11 AND PUSH1 0x80 MSTORE PUSH1 0x40 MLOAD DUP10 SWAP1 DUP10 SWAP1 PUSH2 0x7D SWAP1 PUSH2 0x14D JUMP JUMPDEST PUSH2 0x88 SWAP3 SWAP2 SWAP1 PUSH2 0x33B JUMP JUMPDEST PUSH1 0x40 MLOAD DUP1 SWAP2 SUB SWAP1 PUSH1 0x0 CREATE DUP1 ISZERO DUP1 ISZERO PUSH2 0xA4 JUMPI RETURNDATASIZE PUSH1 0x0 DUP1 RETURNDATACOPY RETURNDATASIZE PUSH1 0x0 REVERT JUMPDEST POP PUSH1 0x1 PUSH1 0x1 PUSH1 0xA0 SHL SUB SWAP1 DUP2 AND PUSH1 0xA0 MSTORE SWAP7 SWAP1 SWAP7 AND PUSH1 0xE0 MSTORE PUSH1 0x4 SWAP5 SWAP1 SWAP5 SSTORE PUSH1 0x0 DUP1 SLOAD SWAP4 ISZERO ISZERO PUSH1 0x1 PUSH1 0xA0 SHL MUL PUSH1 0xFF PUSH1 0xA0 SHL NOT SWAP1 SWAP5 AND SWAP4 SWAP1 SWAP4 OR SWAP1 SWAP3 SSTORE PUSH1 0x1 SSTORE PUSH1 0x5 SSTORE PUSH1 0x2 DUP2 SWAP1 SSTORE PUSH1 0xC0 MSTORE PUSH1 0x8 DUP2 SWAP1 SSTORE PUSH2 0x100 MSTORE POP PUSH2 0x369 SWAP2 POP POP JUMP JUMPDEST PUSH1 0x0 DUP1 SLOAD PUSH1 0x1 PUSH1 0x1 PUSH1 0xA0 SHL SUB DUP4 DUP2 AND PUSH1 0x1 PUSH1 0x1 PUSH1 0xA0 SHL SUB NOT DUP4 AND DUP2 OR DUP5 SSTORE PUSH1 0x40 MLOAD SWAP2 SWAP1 SWAP3 AND SWAP3 DUP4 SWAP2 PUSH32 0x8BE0079C531659141344CD1FD0A4F28419497F9722A3DAAFE3B4186F6B6457E0 SWAP2 SWAP1 LOG3 POP POP JUMP JUMPDEST PUSH2 0xC95 DUP1 PUSH2 0x32B1 DUP4 CODECOPY ADD SWAP1 JUMP JUMPDEST DUP1 MLOAD PUSH1 0x1 PUSH1 0x1 PUSH1 0xA0 SHL SUB DUP2 AND DUP2 EQ PUSH2 0x171 JUMPI PUSH1 0x0 DUP1 REVERT JUMPDEST SWAP2 SWAP1 POP JUMP JUMPDEST PUSH4 0x4E487B71 PUSH1 0xE0 SHL PUSH1 0x0 MSTORE PUSH1 0x41 PUSH1 0x4 MSTORE PUSH1 0x24 PUSH1 0x0 REVERT JUMPDEST PUSH1 0x0 JUMPDEST DUP4 DUP2 LT ISZERO PUSH2 0x1A7 JUMPI DUP2 DUP2 ADD MLOAD DUP4 DUP3 ADD MSTORE PUSH1 0x20 ADD PUSH2 0x18F JUMP JUMPDEST POP POP PUSH1 0x0 SWAP2 ADD MSTORE JUMP JUMPDEST PUSH1 0x0 DUP3 PUSH1 0x1F DUP4 ADD SLT PUSH2 0x1C1 JUMPI PUSH1 0x0 DUP1 REVERT JUMPDEST DUP2 MLOAD PUSH1 0x1 PUSH1 0x1 PUSH1 0x40 SHL SUB DUP1 DUP3 GT ISZERO PUSH2 0x1DB JUMPI PUSH2 0x1DB PUSH2 0x176 JUMP JUMPDEST PUSH1 0x40 MLOAD PUSH1 0x1F DUP4 ADD PUSH1 0x1F NOT SWAP1 DUP2 AND PUSH1 0x3F ADD AND DUP2 ADD SWAP1 DUP3 DUP3 GT DUP2 DUP4 LT OR ISZERO PUSH2 0x203 JUMPI PUSH2 0x203 PUSH2 0x176 JUMP JUMPDEST DUP2 PUSH1 0x40 MSTORE DUP4 DUP2 MSTORE DUP7 PUSH1 0x20 DUP6 DUP9 ADD ADD GT ISZERO PUSH2 0x21C JUMPI PUSH1 0x0 DUP1 REVERT JUMPDEST PUSH2 0x22D DUP5 PUSH1 0x20 DUP4 ADD PUSH1 0x20 DUP10 ADD PUSH2 0x18C JUMP JUMPDEST SWAP7 SWAP6 POP POP POP POP POP POP JUMP JUMPDEST DUP1 MLOAD DUP1 ISZERO ISZERO DUP2 EQ PUSH2 0x171 JUMPI PUSH1 0x0 DUP1 REVERT JUMPDEST PUSH1 0x0 DUP1 PUSH1 0x0 DUP1 PUSH1 0x0 DUP1 PUSH1 0x0 DUP1 PUSH1 0x0 DUP1 PUSH2 0x140 DUP12 DUP14 SUB SLT ISZERO PUSH2 0x267 JUMPI PUSH1 0x0 DUP1 REVERT JUMPDEST PUSH2 0x270 DUP12 PUSH2 0x15A JUMP JUMPDEST PUSH1 0x20 DUP13 ADD MLOAD SWAP1 SWAP11 POP PUSH1 0x1 PUSH1 0x1 PUSH1 0x40 SHL SUB DUP1 DUP3 GT ISZERO PUSH2 0x28D JUMPI PUSH1 0x0 DUP1 REVERT JUMPDEST PUSH2 0x299 DUP15 DUP4 DUP16 ADD PUSH2 0x1B0 JUMP JUMPDEST SWAP11 POP PUSH1 0x40 DUP14 ADD MLOAD SWAP2 POP DUP1 DUP3 GT ISZERO PUSH2 0x2AF JUMPI PUSH1 0x0 DUP1 REVERT JUMPDEST POP PUSH2 0x2BC DUP14 DUP3 DUP15 ADD PUSH2 0x1B0 JUMP JUMPDEST SWAP9 POP POP PUSH2 0x2CB PUSH1 0x60 DUP13 ADD PUSH2 0x15A JUMP JUMPDEST SWAP7 POP PUSH1 0x80 DUP12 ADD MLOAD SWAP6 POP PUSH2 0x2E0 PUSH1 0xA0 DUP13 ADD PUSH2 0x237 JUMP JUMPDEST SWAP5 POP PUSH1 0xC0 DUP12 ADD MLOAD SWAP4 POP PUSH1 0xE0 DUP12 ADD MLOAD SWAP3 POP PUSH2 0x100 DUP12 ADD MLOAD SWAP2 POP PUSH2 0x120 DUP12 ADD MLOAD SWAP1 POP SWAP3 SWAP6 SWAP9 SWAP12 SWAP2 SWAP5 SWAP8 SWAP11 POP SWAP3 SWAP6 SWAP9 POP JUMP JUMPDEST PUSH1 0x0 DUP2 MLOAD DUP1 DUP5 MSTORE PUSH2 0x327 DUP2 PUSH1 0x20 DUP7 ADD PUSH1 0x20 DUP7 ADD PUSH2 0x18C JUMP JUMPDEST PUSH1 0x1F ADD PUSH1 0x1F NOT AND SWAP3 SWAP1 SWAP3 ADD PUSH1 0x20 ADD SWAP3 SWAP2 POP POP JUMP JUMPDEST PUSH1 0x40 DUP2 MSTORE PUSH1 0x0 PUSH2 0x34E PUSH1 0x40 DUP4 ADD DUP6 PUSH2 0x30F JUMP JUMPDEST DUP3 DUP2 SUB PUSH1 0x20 DUP5 ADD MSTORE PUSH2 0x360 DUP2 DUP6 PUSH2 0x30F JUMP JUMPDEST SWAP6 SWAP5 POP POP POP POP POP JUMP JUMPDEST PUSH1 0x80 MLOAD PUSH1 0xA0 MLOAD PUSH1 0xC0 MLOAD PUSH1 0xE0 MLOAD PUSH2 0x100 MLOAD PUSH2 0x2E78 PUSH2 0x439 PUSH1 0x0 CODECOPY PUSH1 0x0 PUSH2 0x13CB ADD MSTORE PUSH1 0x0 DUP2 DUP2 PUSH2 0x7CC ADD MSTORE DUP2 DUP2 PUSH2 0xCC1 ADD MSTORE DUP2 DUP2 PUSH2 0x10D6 ADD MSTORE DUP2 DUP2 PUSH2 0x1A46 ADD MSTORE DUP2 DUP2 PUSH2 0x1D4C ADD MSTORE DUP2 DUP2 PUSH2 0x2116 ADD MSTORE PUSH2 0x23D4 ADD MSTORE PUSH1 0x0 DUP2 DUP2 PUSH2 0x434 ADD MSTORE PUSH2 0xBCB ADD MSTORE PUSH1 0x0 DUP2 DUP2 PUSH2 0x324 ADD MSTORE DUP2 DUP2 PUSH2 0x9F1 ADD MSTORE DUP2 DUP2 PUSH2 0xADC ADD MSTORE DUP2 DUP2 PUSH2 0x1455 ADD MSTORE PUSH2 0x1B24 ADD MSTORE PUSH1 0x0 DUP2 DUP2 PUSH2 0x1EB ADD MSTORE DUP2 DUP2 PUSH2 0x56E ADD MSTORE DUP2 DUP2 PUSH2 0x8FC ADD MSTORE DUP2 DUP2 PUSH2 0xDF9 ADD MSTORE DUP2 DUP2 PUSH2 0x1588 ADD MSTORE DUP2 DUP2 PUSH2 0x17B2 ADD MSTORE DUP2 DUP2 PUSH2 0x1976 ADD MSTORE DUP2 DUP2 PUSH2 0x2406 ADD MSTORE DUP2 DUP2 PUSH2 0x266B ADD MSTORE PUSH2 0x2774 ADD MSTORE PUSH2 0x2E78 PUSH1 0x0 RETURN INVALID PUSH1 0x80 PUSH1 0x40 MSTORE PUSH1 0x4 CALLDATASIZE LT PUSH2 0x1DB JUMPI PUSH1 0x0 CALLDATALOAD PUSH1 0xE0 SHR DUP1 PUSH4 0x72A960D7 GT PUSH2 0x102 JUMPI DUP1 PUSH4 0xC5E2BDC3 GT PUSH2 0x95 JUMPI DUP1 PUSH4 0xD8E159F8 GT PUSH2 0x64 JUMPI DUP1 PUSH4 0xD8E159F8 EQ PUSH2 0x5E0 JUMPI DUP1 PUSH4 0xE78EC42E EQ PUSH2 0x5F5 JUMPI DUP1 PUSH4 0xF2FDE38B EQ PUSH2 0x615 JUMPI DUP1 PUSH4 0xF82462CF EQ PUSH2 0x635 JUMPI PUSH2 0x25F JUMP JUMPDEST DUP1 PUSH4 0xC5E2BDC3 EQ PUSH2 0x55F JUMPI DUP1 PUSH4 0xC79BD7E8 EQ PUSH2 0x592 JUMPI DUP1 PUSH4 0xD0E30DB0 EQ PUSH2 0x5B2 JUMPI DUP1 PUSH4 0xD3D03458 EQ PUSH2 0x5BA JUMPI PUSH2 0x25F JUMP JUMPDEST DUP1 PUSH4 0x9F04586C GT PUSH2 0xD1 JUMPI DUP1 PUSH4 0x9F04586C EQ PUSH2 0x4EA JUMPI DUP1 PUSH4 0xA9E97207 EQ PUSH2 0x50A JUMPI DUP1 PUSH4 0xAC1E5025 EQ PUSH2 0x52A JUMPI DUP1 PUSH4 0xB3CE2572 EQ PUSH2 0x54A JUMPI PUSH2 0x25F JUMP JUMPDEST DUP1 PUSH4 0x72A960D7 EQ PUSH2 0x46D JUMPI DUP1 PUSH4 0x770F91F3 EQ PUSH2 0x482 JUMPI DUP1 PUSH4 0x8DA5CB5B EQ PUSH2 0x4AC JUMPI DUP1 PUSH4 0x9076C166 EQ PUSH2 0x4CA JUMPI PUSH2 0x25F JUMP JUMPDEST DUP1 PUSH4 0x15C0FC70 GT PUSH2 0x17A JUMPI DUP1 PUSH4 0x5B1DAC60 GT PUSH2 0x149 JUMPI DUP1 PUSH4 0x5B1DAC60 EQ PUSH2 0x3FB JUMPI DUP1 PUSH4 0x6639A81D EQ PUSH2 0x410 JUMPI DUP1 PUSH4 0x70EE2630 EQ PUSH2 0x425 JUMPI DUP1 PUSH4 0x715018A6 EQ PUSH2 0x458 JUMPI PUSH2 0x25F JUMP JUMPDEST DUP1 PUSH4 0x15C0FC70 EQ PUSH2 0x39C JUMPI DUP1 PUSH4 0x15D3B5D8 EQ PUSH2 0x3B1 JUMPI DUP1 PUSH4 0x490AE210 EQ PUSH2 0x3C6 JUMPI DUP1 PUSH4 0x4A706BDB EQ PUSH2 0x3E6 JUMPI PUSH2 0x25F JUMP JUMPDEST DUP1 PUSH4 0xDE705B5 GT PUSH2 0x1B6 JUMPI DUP1 PUSH4 0xDE705B5 EQ PUSH2 0x300 JUMPI DUP1 PUSH4 0x10680B84 EQ PUSH2 0x315 JUMPI DUP1 PUSH4 0x11437941 EQ PUSH2 0x35C JUMPI DUP1 PUSH4 0x117DA1EE EQ PUSH2 0x37C JUMPI PUSH2 0x25F JUMP JUMPDEST DUP1 PUSH3 0xF714CE EQ PUSH2 0x2A7 JUMPI DUP1 PUSH4 0x35CF142 EQ PUSH2 0x2C7 JUMPI DUP1 PUSH4 0x6807597 EQ PUSH2 0x2EB JUMPI PUSH2 0x25F JUMP JUMPDEST CALLDATASIZE PUSH2 0x25F JUMPI CALLER PUSH1 0x1 PUSH1 0x1 PUSH1 0xA0 SHL SUB PUSH32 0x0 AND EQ PUSH2 0x25D JUMPI PUSH1 0x40 MLOAD PUSH3 0x461BCD PUSH1 0xE5 SHL DUP2 MSTORE PUSH1 0x20 PUSH1 0x4 DUP3 ADD DUP2 SWAP1 MSTORE PUSH1 0x24 DUP3 ADD MSTORE PUSH32 0x44697265637420455448207472616E7366657273206E6F7420616C6C6F776564 PUSH1 0x44 DUP3 ADD MSTORE PUSH1 0x64 ADD JUMPDEST PUSH1 0x40 MLOAD DUP1 SWAP2 SUB SWAP1 REVERT JUMPDEST STOP JUMPDEST PUSH1 0x40 MLOAD PUSH3 0x461BCD PUSH1 0xE5 SHL DUP2 MSTORE PUSH1 0x20 PUSH1 0x4 DUP3 ADD DUP2 SWAP1 MSTORE PUSH1 0x24 DUP3 ADD MSTORE PUSH32 0x44697265637420455448207472616E7366657273206E6F7420616C6C6F776564 PUSH1 0x44 DUP3 ADD MSTORE PUSH1 0x64 ADD PUSH2 0x254 JUMP JUMPDEST CALLVALUE DUP1 ISZERO PUSH2 0x2B3 JUMPI PUSH1 0x0 DUP1 REVERT JUMPDEST POP PUSH2 0x25D PUSH2 0x2C2 CALLDATASIZE PUSH1 0x4 PUSH2 0x27EF JUMP JUMPDEST PUSH2 0x64A JUMP JUMPDEST CALLVALUE DUP1 ISZERO PUSH2 0x2D3 JUMPI PUSH1 0x0 DUP1 REVERT JUMPDEST POP PUSH1 0x1 SLOAD JUMPDEST PUSH1 0x40 MLOAD SWAP1 DUP2 MSTORE PUSH1 0x20 ADD JUMPDEST PUSH1 0x40 MLOAD DUP1 SWAP2 SUB SWAP1 RETURN JUMPDEST CALLVALUE DUP1 ISZERO PUSH2 0x2F7 JUMPI PUSH1 0x0 DUP1 REVERT JUMPDEST POP PUSH1 0x5 SLOAD PUSH2 0x2D8 JUMP JUMPDEST CALLVALUE DUP1 ISZERO PUSH2 0x30C JUMPI PUSH1 0x0 DUP1 REVERT JUMPDEST POP PUSH1 0x2 SLOAD PUSH2 0x2D8 JUMP JUMPDEST CALLVALUE DUP1 ISZERO PUSH2 0x321 JUMPI PUSH1 0x0 DUP1 REVERT JUMPDEST POP PUSH32 0x0 JUMPDEST PUSH1 0x40 MLOAD PUSH1 0x1 PUSH1 0x1 PUSH1 0xA0 SHL SUB SWAP1 SWAP2 AND DUP2 MSTORE PUSH1 0x20 ADD PUSH2 0x2E2 JUMP JUMPDEST CALLVALUE DUP1 ISZERO PUSH2 0x368 JUMPI PUSH1 0x0 DUP1 REVERT JUMPDEST POP PUSH2 0x2D8 PUSH2 0x377 CALLDATASIZE PUSH1 0x4 PUSH2 0x281F JUMP JUMPDEST PUSH2 0xABA JUMP JUMPDEST CALLVALUE DUP1 ISZERO PUSH2 0x388 JUMPI PUSH1 0x0 DUP1 REVERT JUMPDEST POP PUSH2 0x25D PUSH2 0x397 CALLDATASIZE PUSH1 0x4 PUSH2 0x2843 JUMP JUMPDEST PUSH2 0xB4F JUMP JUMPDEST CALLVALUE DUP1 ISZERO PUSH2 0x3A8 JUMPI PUSH1 0x0 DUP1 REVERT JUMPDEST POP PUSH1 0x9 SLOAD PUSH2 0x2D8 JUMP JUMPDEST CALLVALUE DUP1 ISZERO PUSH2 0x3BD JUMPI PUSH1 0x0 DUP1 REVERT JUMPDEST POP PUSH2 0x2D8 PUSH2 0xB5C JUMP JUMPDEST CALLVALUE DUP1 ISZERO PUSH2 0x3D2 JUMPI PUSH1 0x0 DUP1 REVERT JUMPDEST POP PUSH2 0x25D PUSH2 0x3E1 CALLDATASIZE PUSH1 0x4 PUSH2 0x2843 JUMP JUMPDEST PUSH2 0xBC1 JUMP JUMPDEST CALLVALUE DUP1 ISZERO PUSH2 0x3F2 JUMPI PUSH1 0x0 DUP1 REVERT JUMPDEST POP PUSH1 0x4 SLOAD PUSH2 0x2D8 JUMP JUMPDEST CALLVALUE DUP1 ISZERO PUSH2 0x407 JUMPI PUSH1 0x0 DUP1 REVERT JUMPDEST POP PUSH2 0x2D8 PUSH2 0xC80 JUMP JUMPDEST CALLVALUE DUP1 ISZERO PUSH2 0x41C JUMPI PUSH1 0x0 DUP1 REVERT JUMPDEST POP PUSH2 0x2D8 PUSH2 0xCBD JUMP JUMPDEST CALLVALUE DUP1 ISZERO PUSH2 0x431 JUMPI PUSH1 0x0 DUP1 REVERT JUMPDEST POP PUSH32 0x0 PUSH2 0x2D8 JUMP JUMPDEST CALLVALUE DUP1 ISZERO PUSH2 0x464 JUMPI PUSH1 0x0 DUP1 REVERT JUMPDEST POP PUSH2 0x25D PUSH2 0xDC3 JUMP JUMPDEST CALLVALUE DUP1 ISZERO PUSH2 0x479 JUMPI PUSH1 0x0 DUP1 REVERT JUMPDEST POP PUSH2 0x2D8 PUSH2 0xDD7 JUMP JUMPDEST CALLVALUE DUP1 ISZERO PUSH2 0x48E JUMPI PUSH1 0x0 DUP1 REVERT JUMPDEST POP PUSH1 0x0 SLOAD PUSH1 0x1 PUSH1 0xA0 SHL SWAP1 DIV PUSH1 0xFF AND PUSH1 0x40 MLOAD SWAP1 ISZERO ISZERO DUP2 MSTORE PUSH1 0x20 ADD PUSH2 0x2E2 JUMP JUMPDEST CALLVALUE DUP1 ISZERO PUSH2 0x4B8 JUMPI PUSH1 0x0 DUP1 REVERT JUMPDEST POP PUSH1 0x0 SLOAD PUSH1 0x1 PUSH1 0x1 PUSH1 0xA0 SHL SUB AND PUSH2 0x344 JUMP JUMPDEST CALLVALUE DUP1 ISZERO PUSH2 0x4D6 JUMPI PUSH1 0x0 DUP1 REVERT JUMPDEST POP PUSH2 0x25D PUSH2 0x4E5 CALLDATASIZE PUSH1 0x4 PUSH2 0x285C JUMP JUMPDEST PUSH2 0xE9E JUMP JUMPDEST CALLVALUE DUP1 ISZERO PUSH2 0x4F6 JUMPI PUSH1 0x0 DUP1 REVERT JUMPDEST POP PUSH2 0x25D PUSH2 0x505 CALLDATASIZE PUSH1 0x4 PUSH2 0x2896 JUMP JUMPDEST PUSH2 0x138E JUMP JUMPDEST CALLVALUE DUP1 ISZERO PUSH2 0x516 JUMPI PUSH1 0x0 DUP1 REVERT JUMPDEST POP PUSH2 0x25D PUSH2 0x525 CALLDATASIZE PUSH1 0x4 PUSH2 0x2843 JUMP JUMPDEST PUSH2 0x13B4 JUMP JUMPDEST CALLVALUE DUP1 ISZERO PUSH2 0x536 JUMPI PUSH1 0x0 DUP1 REVERT JUMPDEST POP PUSH2 0x25D PUSH2 0x545 CALLDATASIZE PUSH1 0x4 PUSH2 0x2843 JUMP JUMPDEST PUSH2 0x13C1 JUMP JUMPDEST CALLVALUE DUP1 ISZERO PUSH2 0x556 JUMPI PUSH1 0x0 DUP1 REVERT JUMPDEST POP PUSH2 0x2D8 PUSH2 0x1451 JUMP JUMPDEST CALLVALUE DUP1 ISZERO PUSH2 0x56B JUMPI PUSH1 0x0 DUP1 REVERT JUMPDEST POP PUSH32 0x0 PUSH2 0x344 JUMP JUMPDEST CALLVALUE DUP1 ISZERO PUSH2 0x59E JUMPI PUSH1 0x0 DUP1 REVERT JUMPDEST POP PUSH2 0x25D PUSH2 0x5AD CALLDATASIZE PUSH1 0x4 PUSH2 0x285C JUMP JUMPDEST PUSH2 0x14DA JUMP JUMPDEST PUSH2 0x25D PUSH2 0x1664 JUMP JUMPDEST CALLVALUE DUP1 ISZERO PUSH2 0x5C6 JUMPI PUSH1 0x0 DUP1 REVERT JUMPDEST POP PUSH2 0x5CF PUSH2 0x1BC0 JUMP JUMPDEST PUSH1 0x40 MLOAD PUSH2 0x2E2 SWAP6 SWAP5 SWAP4 SWAP3 SWAP2 SWAP1 PUSH2 0x294D JUMP JUMPDEST CALLVALUE DUP1 ISZERO PUSH2 0x5EC JUMPI PUSH1 0x0 DUP1 REVERT JUMPDEST POP PUSH1 0x8 SLOAD PUSH2 0x2D8 JUMP JUMPDEST CALLVALUE DUP1 ISZERO PUSH2 0x601 JUMPI PUSH1 0x0 DUP1 REVERT JUMPDEST POP PUSH2 0x25D PUSH2 0x610 CALLDATASIZE PUSH1 0x4 PUSH2 0x2843 JUMP JUMPDEST PUSH2 0x1FD8 JUMP JUMPDEST CALLVALUE DUP1 ISZERO PUSH2 0x621 JUMPI PUSH1 0x0 DUP1 REVERT JUMPDEST POP PUSH2 0x25D PUSH2 0x630 CALLDATASIZE PUSH1 0x4 PUSH2 0x281F JUMP JUMPDEST PUSH2 0x1FE5 JUMP JUMPDEST CALLVALUE DUP1 ISZERO PUSH2 0x641 JUMPI PUSH1 0x0 DUP1 REVERT JUMPDEST POP PUSH1 0x3 SLOAD PUSH2 0x2D8 JUMP JUMPDEST PUSH1 0x0 PUSH2 0x654 PUSH2 0x1451 JUMP JUMPDEST SWAP1 POP PUSH1 0x0 DUP2 GT PUSH2 0x69F JUMPI PUSH1 0x40 MLOAD PUSH3 0x461BCD PUSH1 0xE5 SHL DUP2 MSTORE PUSH1 0x20 PUSH1 0x4 DUP3 ADD MSTORE PUSH1 0x16 PUSH1 0x24 DUP3 ADD MSTORE PUSH22 0x27379039B430B932B99037BABA39BA30B73234B73397 PUSH1 0x51 SHL PUSH1 0x44 DUP3 ADD MSTORE PUSH1 0x64 ADD PUSH2 0x254 JUMP JUMPDEST PUSH1 0x0 DUP4 GT PUSH2 0x6F9 JUMPI PUSH1 0x40 MLOAD PUSH3 0x461BCD PUSH1 0xE5 SHL DUP2 MSTORE PUSH1 0x20 PUSH1 0x4 DUP3 ADD MSTORE PUSH1 0x21 PUSH1 0x24 DUP3 ADD MSTORE PUSH32 0x596F75206D7573742073656C6C206174206C65617374206F6E65207368617265 PUSH1 0x44 DUP3 ADD MSTORE PUSH1 0x17 PUSH1 0xF9 SHL PUSH1 0x64 DUP3 ADD MSTORE PUSH1 0x84 ADD PUSH2 0x254 JUMP JUMPDEST PUSH1 0x0 PUSH2 0x704 CALLER PUSH2 0xABA JUMP JUMPDEST SWAP1 POP DUP4 DUP2 LT ISZERO PUSH2 0x771 JUMPI PUSH1 0x40 MLOAD PUSH3 0x461BCD PUSH1 0xE5 SHL DUP2 MSTORE PUSH1 0x20 PUSH1 0x4 DUP3 ADD MSTORE PUSH1 0x32 PUSH1 0x24 DUP3 ADD MSTORE PUSH32 0x53656C6C20616D6F756E742069732067726561746572207468616E2063757272 PUSH1 0x44 DUP3 ADD MSTORE PUSH18 0x32B73A1039B430B932903130B630B731B297 PUSH1 0x71 SHL PUSH1 0x64 DUP3 ADD MSTORE PUSH1 0x84 ADD PUSH2 0x254 JUMP JUMPDEST PUSH1 0x0 PUSH2 0x77B PUSH2 0xC80 JUMP JUMPDEST PUSH2 0x785 SWAP1 DUP7 PUSH2 0x2A2A JUMP JUMPDEST SWAP1 POP PUSH1 0x0 PUSH2 0x795 PUSH1 0x4 PUSH1 0xA PUSH2 0x2B25 JUMP JUMPDEST SWAP1 POP PUSH1 0x0 DUP2 DUP4 PUSH1 0x8 SLOAD PUSH2 0x7A8 SWAP2 SWAP1 PUSH2 0x2A2A JUMP JUMPDEST PUSH2 0x7B2 SWAP2 SWAP1 PUSH2 0x2B34 JUMP JUMPDEST SWAP1 POP DUP1 PUSH1 0x9 PUSH1 0x0 DUP3 DUP3 SLOAD PUSH2 0x7C6 SWAP2 SWAP1 PUSH2 0x2B56 JUMP JUMPDEST SWAP1 SWAP2 SSTORE POP PUSH32 0x0 SWAP1 POP PUSH1 0x0 JUMPDEST PUSH1 0x7 SLOAD DUP2 LT ISZERO PUSH2 0x8BE JUMPI PUSH1 0x0 PUSH1 0x7 DUP3 DUP2 SLOAD DUP2 LT PUSH2 0x80F JUMPI PUSH2 0x80F PUSH2 0x2B69 JUMP JUMPDEST PUSH1 0x0 SWAP2 DUP3 MSTORE PUSH1 0x20 DUP3 KECCAK256 ADD SLOAD PUSH1 0x40 MLOAD PUSH4 0x70A08231 PUSH1 0xE0 SHL DUP2 MSTORE ADDRESS PUSH1 0x4 DUP3 ADD MSTORE PUSH1 0x1 PUSH1 0x1 PUSH1 0xA0 SHL SUB SWAP1 SWAP2 AND SWAP3 POP DUP3 SWAP2 SWAP1 DUP11 SWAP1 DUP4 SWAP1 PUSH4 0x70A08231 SWAP1 PUSH1 0x24 ADD PUSH1 0x20 PUSH1 0x40 MLOAD DUP1 DUP4 SUB DUP2 DUP7 GAS STATICCALL ISZERO DUP1 ISZERO PUSH2 0x867 JUMPI RETURNDATASIZE PUSH1 0x0 DUP1 RETURNDATACOPY RETURNDATASIZE PUSH1 0x0 REVERT JUMPDEST POP POP POP POP PUSH1 0x40 MLOAD RETURNDATASIZE PUSH1 0x1F NOT PUSH1 0x1F DUP3 ADD AND DUP3 ADD DUP1 PUSH1 0x40 MSTORE POP DUP2 ADD SWAP1 PUSH2 0x88B SWAP2 SWAP1 PUSH2 0x2B7F JUMP JUMPDEST PUSH2 0x895 SWAP1 DUP15 PUSH2 0x2A2A JUMP JUMPDEST PUSH2 0x89F SWAP2 SWAP1 PUSH2 0x2B34 JUMP JUMPDEST SWAP1 POP DUP1 ISZERO PUSH2 0x8B3 JUMPI PUSH2 0x8B3 DUP6 DUP5 DUP4 ADDRESS PUSH2 0x2023 JUMP JUMPDEST POP POP POP PUSH1 0x1 ADD PUSH2 0x7F0 JUMP JUMPDEST POP PUSH1 0x0 DUP7 PUSH2 0x8CA PUSH2 0xDD7 JUMP JUMPDEST PUSH2 0x8D4 SWAP1 DUP12 PUSH2 0x2A2A JUMP JUMPDEST PUSH2 0x8DE SWAP2 SWAP1 PUSH2 0x2B34 JUMP JUMPDEST SWAP1 POP DUP1 ISZERO PUSH2 0x9D5 JUMPI PUSH1 0x40 MLOAD PUSH4 0x2E1A7D4D PUSH1 0xE0 SHL DUP2 MSTORE PUSH1 0x4 DUP2 ADD DUP3 SWAP1 MSTORE PUSH32 0x0 PUSH1 0x1 PUSH1 0x1 PUSH1 0xA0 SHL SUB AND SWAP1 PUSH4 0x2E1A7D4D SWAP1 PUSH1 0x24 ADD PUSH1 0x0 PUSH1 0x40 MLOAD DUP1 DUP4 SUB DUP2 PUSH1 0x0 DUP8 DUP1 EXTCODESIZE ISZERO DUP1 ISZERO PUSH2 0x948 JUMPI PUSH1 0x0 DUP1 REVERT JUMPDEST POP GAS CALL ISZERO DUP1 ISZERO PUSH2 0x95C JUMPI RETURNDATASIZE PUSH1 0x0 DUP1 RETURNDATACOPY RETURNDATASIZE PUSH1 0x0 REVERT JUMPDEST POP POP POP POP PUSH1 0x0 DUP9 PUSH1 0x1 PUSH1 0x1 PUSH1 0xA0 SHL SUB AND DUP3 PUSH1 0x40 MLOAD PUSH1 0x0 PUSH1 0x40 MLOAD DUP1 DUP4 SUB DUP2 DUP6 DUP8 GAS CALL SWAP3 POP POP POP RETURNDATASIZE DUP1 PUSH1 0x0 DUP2 EQ PUSH2 0x9AD JUMPI PUSH1 0x40 MLOAD SWAP2 POP PUSH1 0x1F NOT PUSH1 0x3F RETURNDATASIZE ADD AND DUP3 ADD PUSH1 0x40 MSTORE RETURNDATASIZE DUP3 MSTORE RETURNDATASIZE PUSH1 0x0 PUSH1 0x20 DUP5 ADD RETURNDATACOPY PUSH2 0x9B2 JUMP JUMPDEST PUSH1 0x60 SWAP2 POP JUMPDEST POP POP SWAP1 POP DUP1 PUSH2 0x9D3 JUMPI PUSH1 0x40 MLOAD PUSH3 0x461BCD PUSH1 0xE5 SHL DUP2 MSTORE PUSH1 0x4 ADD PUSH2 0x254 SWAP1 PUSH2 0x2B98 JUMP JUMPDEST POP JUMPDEST PUSH1 0x40 MLOAD PUSH4 0x2770A7EB PUSH1 0xE2 SHL DUP2 MSTORE CALLER PUSH1 0x4 DUP3 ADD MSTORE PUSH1 0x24 DUP2 ADD DUP11 SWAP1 MSTORE PUSH32 0x0 PUSH1 0x1 PUSH1 0x1 PUSH1 0xA0 SHL SUB AND SWAP1 PUSH4 0x9DC29FAC SWAP1 PUSH1 0x44 ADD PUSH1 0x0 PUSH1 0x40 MLOAD DUP1 DUP4 SUB DUP2 PUSH1 0x0 DUP8 DUP1 EXTCODESIZE ISZERO DUP1 ISZERO PUSH2 0xA3D JUMPI PUSH1 0x0 DUP1 REVERT JUMPDEST POP GAS CALL ISZERO DUP1 ISZERO PUSH2 0xA51 JUMPI RETURNDATASIZE PUSH1 0x0 DUP1 RETURNDATACOPY RETURNDATASIZE PUSH1 0x0 REVERT JUMPDEST POP CALLER SWAP3 POP PUSH32 0xF341246ADAAC6F497BC2A656F546AB9E182111D630394F0C57C710A59A2CB567 SWAP2 POP DUP11 SWAP1 POP DUP12 PUSH2 0xA86 DUP8 DUP11 PUSH2 0x2BC5 JUMP JUMPDEST PUSH1 0x40 DUP1 MLOAD PUSH1 0x1 PUSH1 0x1 PUSH1 0xA0 SHL SUB SWAP1 SWAP5 AND DUP5 MSTORE PUSH1 0x20 DUP5 ADD SWAP3 SWAP1 SWAP3 MSTORE SWAP1 DUP3 ADD MSTORE PUSH1 0x60 ADD JUMPDEST PUSH1 0x40 MLOAD DUP1 SWAP2 SUB SWAP1 LOG2 POP POP POP POP POP POP POP POP POP JUMP JUMPDEST PUSH1 0x40 MLOAD PUSH4 0x70A08231 PUSH1 0xE0 SHL DUP2 MSTORE PUSH1 0x1 PUSH1 0x1 PUSH1 0xA0 SHL SUB DUP3 DUP2 AND PUSH1 0x4 DUP4 ADD MSTORE PUSH1 0x0 SWAP2 PUSH32 0x0 SWAP1 SWAP2 AND SWAP1 PUSH4 0x70A08231 SWAP1 PUSH1 0x24 ADD PUSH1 0x20 PUSH1 0x40 MLOAD DUP1 DUP4 SUB DUP2 DUP7 GAS STATICCALL ISZERO DUP1 ISZERO PUSH2 0xB25 JUMPI RETURNDATASIZE PUSH1 0x0 DUP1 RETURNDATACOPY RETURNDATASIZE PUSH1 0x0 REVERT JUMPDEST POP POP POP POP PUSH1 0x40 MLOAD RETURNDATASIZE PUSH1 0x1F NOT PUSH1 0x1F DUP3 ADD AND DUP3 ADD DUP1 PUSH1 0x40 MSTORE POP DUP2 ADD SWAP1 PUSH2 0xB49 SWAP2 SWAP1 PUSH2 0x2B7F JUMP JUMPDEST SWAP3 SWAP2 POP POP JUMP JUMPDEST PUSH2 0xB57 PUSH2 0x2213 JUMP JUMPDEST PUSH1 0x5 SSTORE JUMP JUMPDEST PUSH1 0x0 DUP1 DUP1 JUMPDEST PUSH1 0x7 SLOAD DUP2 LT ISZERO PUSH2 0xBBB JUMPI PUSH1 0x6 PUSH1 0x0 PUSH1 0x7 DUP4 DUP2 SLOAD DUP2 LT PUSH2 0xB82 JUMPI PUSH2 0xB82 PUSH2 0x2B69 JUMP JUMPDEST PUSH1 0x0 SWAP2 DUP3 MSTORE PUSH1 0x20 DUP1 DUP4 KECCAK256 SWAP1 SWAP2 ADD SLOAD PUSH1 0x1 PUSH1 0x1 PUSH1 0xA0 SHL SUB AND DUP4 MSTORE DUP3 ADD SWAP3 SWAP1 SWAP3 MSTORE PUSH1 0x40 ADD SWAP1 KECCAK256 SLOAD PUSH2 0xBB1 SWAP1 DUP4 PUSH2 0x2B56 JUMP JUMPDEST SWAP2 POP PUSH1 0x1 ADD PUSH2 0xB61 JUMP JUMPDEST POP SWAP2 SWAP1 POP JUMP JUMPDEST PUSH2 0xBC9 PUSH2 0x2213 JUMP JUMPDEST PUSH32 0x0 DUP2 GT ISZERO PUSH2 0xC7B JUMPI PUSH1 0x40 MLOAD PUSH3 0x461BCD PUSH1 0xE5 SHL DUP2 MSTORE PUSH1 0x20 PUSH1 0x4 DUP3 ADD MSTORE PUSH1 0x53 PUSH1 0x24 DUP3 ADD MSTORE PUSH32 0x4465706F736974206665652063616E6E6F742062652073657420686967686572 PUSH1 0x44 DUP3 ADD MSTORE PUSH32 0x207468616E207468652076616C7565206974207761732073657420746F206F6E PUSH1 0x64 DUP3 ADD MSTORE PUSH19 0x1031B7B73A3930B1BA1031B932B0BA34B7B717 PUSH1 0x69 SHL PUSH1 0x84 DUP3 ADD MSTORE PUSH1 0xA4 ADD PUSH2 0x254 JUMP JUMPDEST PUSH1 0x2 SSTORE JUMP JUMPDEST PUSH1 0x0 DUP1 PUSH2 0xC8B PUSH2 0x1451 JUMP JUMPDEST SWAP1 POP DUP1 PUSH1 0x0 SUB PUSH2 0xC9D JUMPI PUSH1 0x0 SWAP2 POP POP SWAP1 JUMP JUMPDEST PUSH2 0xCA5 PUSH2 0x1451 JUMP JUMPDEST PUSH2 0xCAD PUSH2 0xCBD JUMP JUMPDEST PUSH2 0xCB7 SWAP2 SWAP1 PUSH2 0x2B34 JUMP JUMPDEST SWAP2 POP POP SWAP1 JUMP JUMPDEST PUSH1 0x0 PUSH32 0x0 DUP2 PUSH2 0xCE9 PUSH2 0xDD7 JUMP JUMPDEST SWAP1 POP PUSH1 0x0 JUMPDEST PUSH1 0x7 SLOAD DUP2 LT ISZERO PUSH2 0xDBC JUMPI PUSH1 0x0 PUSH1 0x7 DUP3 DUP2 SLOAD DUP2 LT PUSH2 0xD0D JUMPI PUSH2 0xD0D PUSH2 0x2B69 JUMP JUMPDEST PUSH1 0x0 SWAP2 DUP3 MSTORE PUSH1 0x20 DUP3 KECCAK256 ADD SLOAD PUSH1 0x40 MLOAD PUSH4 0x70A08231 PUSH1 0xE0 SHL DUP2 MSTORE ADDRESS PUSH1 0x4 DUP3 ADD MSTORE PUSH1 0x1 PUSH1 0x1 PUSH1 0xA0 SHL SUB SWAP1 SWAP2 AND SWAP3 POP DUP3 SWAP2 SWAP1 DUP3 SWAP1 PUSH4 0x70A08231 SWAP1 PUSH1 0x24 ADD PUSH1 0x20 PUSH1 0x40 MLOAD DUP1 DUP4 SUB DUP2 DUP7 GAS STATICCALL ISZERO DUP1 ISZERO PUSH2 0xD63 JUMPI RETURNDATASIZE PUSH1 0x0 DUP1 RETURNDATACOPY RETURNDATASIZE PUSH1 0x0 REVERT JUMPDEST POP POP POP POP PUSH1 0x40 MLOAD RETURNDATASIZE PUSH1 0x1F NOT PUSH1 0x1F DUP3 ADD AND DUP3 ADD DUP1 PUSH1 0x40 MSTORE POP DUP2 ADD SWAP1 PUSH2 0xD87 SWAP2 SWAP1 PUSH2 0x2B7F JUMP JUMPDEST SWAP1 POP DUP1 PUSH1 0x0 SUB PUSH2 0xD99 JUMPI POP POP POP PUSH2 0xDB4 JUMP JUMPDEST PUSH2 0xDA4 DUP7 DUP5 DUP4 PUSH2 0x2240 JUMP JUMPDEST PUSH2 0xDAE SWAP1 DUP7 PUSH2 0x2B56 JUMP JUMPDEST SWAP5 POP POP POP POP JUMPDEST PUSH1 0x1 ADD PUSH2 0xCEE JUMP JUMPDEST POP SWAP3 SWAP2 POP POP JUMP JUMPDEST PUSH2 0xDCB PUSH2 0x2213 JUMP JUMPDEST PUSH2 0xDD5 PUSH1 0x0 PUSH2 0x22F8 JUMP JUMPDEST JUMP JUMPDEST PUSH1 0x40 MLOAD PUSH4 0x70A08231 PUSH1 0xE0 SHL DUP2 MSTORE ADDRESS PUSH1 0x4 DUP3 ADD MSTORE PUSH1 0x0 SWAP1 DUP2 SWAP1 PUSH1 0x1 PUSH1 0x1 PUSH1 0xA0 SHL SUB PUSH32 0x0 AND SWAP1 PUSH4 0x70A08231 SWAP1 PUSH1 0x24 ADD PUSH1 0x20 PUSH1 0x40 MLOAD DUP1 DUP4 SUB DUP2 DUP7 GAS STATICCALL ISZERO DUP1 ISZERO PUSH2 0xE40 JUMPI RETURNDATASIZE PUSH1 0x0 DUP1 RETURNDATACOPY RETURNDATASIZE PUSH1 0x0 REVERT JUMPDEST POP POP POP POP PUSH1 0x40 MLOAD RETURNDATASIZE PUSH1 0x1F NOT PUSH1 0x1F DUP3 ADD AND DUP3 ADD DUP1 PUSH1 0x40 MSTORE POP DUP2 ADD SWAP1 PUSH2 0xE64 SWAP2 SWAP1 PUSH2 0x2B7F JUMP JUMPDEST SWAP1 POP PUSH1 0x9 SLOAD PUSH1 0x3 SLOAD PUSH2 0xE76 SWAP2 SWAP1 PUSH2 0x2B56 JUMP JUMPDEST DUP2 GT PUSH2 0xE84 JUMPI PUSH1 0x0 SWAP2 POP POP SWAP1 JUMP JUMPDEST PUSH1 0x9 SLOAD PUSH1 0x3 SLOAD PUSH2 0xE94 SWAP1 DUP4 PUSH2 0x2BC5 JUMP JUMPDEST PUSH2 0xCB7 SWAP2 SWAP1 PUSH2 0x2BC5 JUMP JUMPDEST PUSH2 0xEA6 PUSH2 0x2213 JUMP JUMPDEST PUSH2 0xEB2 PUSH1 0x4 PUSH1 0xA PUSH2 0x2B25 JUMP JUMPDEST DUP2 GT ISZERO PUSH2 0xF11 JUMPI PUSH1 0x40 MLOAD PUSH3 0x461BCD PUSH1 0xE5 SHL DUP2 MSTORE PUSH1 0x20 PUSH1 0x4 DUP3 ADD MSTORE PUSH1 0x27 PUSH1 0x24 DUP3 ADD MSTORE PUSH32 0x417373657420616C6C6F636174696F6E206D757374206265203E3D203020616E PUSH1 0x44 DUP3 ADD MSTORE PUSH7 0x32101E1E901897 PUSH1 0xC9 SHL PUSH1 0x64 DUP3 ADD MSTORE PUSH1 0x84 ADD PUSH2 0x254 JUMP JUMPDEST PUSH1 0x1 PUSH1 0x1 PUSH1 0xA0 SHL SUB DUP3 AND PUSH1 0x0 SWAP1 DUP2 MSTORE PUSH1 0x6 PUSH1 0x20 MSTORE PUSH1 0x40 SWAP1 KECCAK256 SLOAD DUP2 SUB PUSH2 0xF94 JUMPI PUSH1 0x40 MLOAD PUSH3 0x461BCD PUSH1 0xE5 SHL DUP2 MSTORE PUSH1 0x20 PUSH1 0x4 DUP3 ADD MSTORE PUSH1 0x33 PUSH1 0x24 DUP3 ADD MSTORE PUSH32 0x4E657720616C6C6F636174696F6E2063616E6E6F74206265207468652073616D PUSH1 0x44 DUP3 ADD MSTORE PUSH19 0x329030B99037B6321030B63637B1B0BA34B7B7 PUSH1 0x69 SHL PUSH1 0x64 DUP3 ADD MSTORE PUSH1 0x84 ADD PUSH2 0x254 JUMP JUMPDEST PUSH1 0x1 PUSH1 0x1 PUSH1 0xA0 SHL SUB DUP3 AND PUSH1 0x0 SWAP1 DUP2 MSTORE PUSH1 0x6 PUSH1 0x20 MSTORE PUSH1 0x40 DUP2 KECCAK256 SLOAD PUSH2 0xFB7 SWAP1 DUP4 PUSH2 0x2BD8 JUMP JUMPDEST SWAP1 POP PUSH2 0xFC5 PUSH1 0x4 PUSH1 0xA PUSH2 0x2B25 JUMP JUMPDEST DUP2 PUSH2 0xFCE PUSH2 0xB5C JUMP JUMPDEST PUSH2 0xFD8 SWAP2 SWAP1 PUSH2 0x2BF8 JUMP JUMPDEST SGT ISZERO PUSH2 0x1034 JUMPI PUSH1 0x40 MLOAD PUSH3 0x461BCD PUSH1 0xE5 SHL DUP2 MSTORE PUSH1 0x20 PUSH1 0x4 DUP3 ADD MSTORE PUSH1 0x25 PUSH1 0x24 DUP3 ADD MSTORE PUSH32 0x546F74616C20617373657420616C6C6F636174696F6E2063616E6E6F74206265 PUSH1 0x44 DUP3 ADD MSTORE PUSH5 0x101F101897 PUSH1 0xD9 SHL PUSH1 0x64 DUP3 ADD MSTORE PUSH1 0x84 ADD PUSH2 0x254 JUMP JUMPDEST PUSH1 0x0 PUSH2 0x103E PUSH2 0xCBD JUMP JUMPDEST SWAP1 POP PUSH1 0x0 PUSH2 0x104E PUSH1 0x4 PUSH1 0xA PUSH2 0x2B25 JUMP JUMPDEST PUSH2 0x1058 DUP4 DUP7 PUSH2 0x2A2A JUMP JUMPDEST PUSH2 0x1062 SWAP2 SWAP1 PUSH2 0x2B34 JUMP JUMPDEST PUSH1 0x40 MLOAD PUSH4 0x70A08231 PUSH1 0xE0 SHL DUP2 MSTORE ADDRESS PUSH1 0x4 DUP3 ADD MSTORE SWAP1 SWAP2 POP DUP6 SWAP1 PUSH1 0x0 SWAP1 PUSH1 0x1 PUSH1 0x1 PUSH1 0xA0 SHL SUB DUP4 AND SWAP1 PUSH4 0x70A08231 SWAP1 PUSH1 0x24 ADD PUSH1 0x20 PUSH1 0x40 MLOAD DUP1 DUP4 SUB DUP2 DUP7 GAS STATICCALL ISZERO DUP1 ISZERO PUSH2 0x10AE JUMPI RETURNDATASIZE PUSH1 0x0 DUP1 RETURNDATACOPY RETURNDATASIZE PUSH1 0x0 REVERT JUMPDEST POP POP POP POP PUSH1 0x40 MLOAD RETURNDATASIZE PUSH1 0x1F NOT PUSH1 0x1F DUP3 ADD AND DUP3 ADD DUP1 PUSH1 0x40 MSTORE POP DUP2 ADD SWAP1 PUSH2 0x10D2 SWAP2 SWAP1 PUSH2 0x2B7F JUMP JUMPDEST SWAP1 POP PUSH32 0x0 PUSH1 0x0 DUP3 PUSH2 0x1103 JUMPI PUSH1 0x0 PUSH2 0x110E JUMP JUMPDEST PUSH2 0x110E DUP3 DUP11 DUP6 PUSH2 0x2240 JUMP JUMPDEST SWAP1 POP DUP5 DUP2 LT ISZERO PUSH2 0x1158 JUMPI PUSH1 0x0 PUSH2 0x1124 DUP3 DUP8 PUSH2 0x2BC5 JUMP JUMPDEST SWAP1 POP DUP1 PUSH1 0x0 PUSH2 0x1131 PUSH2 0xDD7 JUMP JUMPDEST SWAP1 POP DUP1 DUP3 GT ISZERO PUSH2 0x113F JUMPI DUP1 SWAP2 POP JUMPDEST DUP2 ISZERO PUSH2 0x1150 JUMPI PUSH2 0x1150 DUP6 DUP14 DUP5 PUSH2 0x2348 JUMP JUMPDEST POP POP POP PUSH2 0x119C JUMP JUMPDEST DUP5 DUP2 GT ISZERO PUSH2 0x119C JUMPI PUSH1 0x0 PUSH2 0x116C DUP7 DUP4 PUSH2 0x2BC5 JUMP JUMPDEST SWAP1 POP PUSH1 0x0 DUP3 PUSH2 0x117B DUP7 DUP5 PUSH2 0x2A2A JUMP JUMPDEST PUSH2 0x1185 SWAP2 SWAP1 PUSH2 0x2B34 JUMP JUMPDEST SWAP1 POP DUP1 ISZERO PUSH2 0x1199 JUMPI PUSH2 0x1199 DUP5 DUP13 DUP4 ADDRESS PUSH2 0x2023 JUMP JUMPDEST POP POP JUMPDEST DUP8 ISZERO DUP1 ISZERO PUSH2 0x11C1 JUMPI POP PUSH1 0x1 PUSH1 0x1 PUSH1 0xA0 SHL SUB DUP10 AND PUSH1 0x0 SWAP1 DUP2 MSTORE PUSH1 0x6 PUSH1 0x20 MSTORE PUSH1 0x40 SWAP1 KECCAK256 SLOAD ISZERO ISZERO JUMPDEST ISZERO PUSH2 0x12CA JUMPI PUSH1 0x0 JUMPDEST PUSH1 0x7 SLOAD DUP2 LT ISZERO PUSH2 0x12C4 JUMPI DUP10 PUSH1 0x1 PUSH1 0x1 PUSH1 0xA0 SHL SUB AND PUSH1 0x7 DUP3 DUP2 SLOAD DUP2 LT PUSH2 0x11F0 JUMPI PUSH2 0x11F0 PUSH2 0x2B69 JUMP JUMPDEST PUSH1 0x0 SWAP2 DUP3 MSTORE PUSH1 0x20 SWAP1 SWAP2 KECCAK256 ADD SLOAD PUSH1 0x1 PUSH1 0x1 PUSH1 0xA0 SHL SUB AND SUB PUSH2 0x12BC JUMPI PUSH1 0x7 DUP1 SLOAD PUSH2 0x121A SWAP1 PUSH1 0x1 SWAP1 PUSH2 0x2BC5 JUMP JUMPDEST DUP2 SLOAD DUP2 LT PUSH2 0x122A JUMPI PUSH2 0x122A PUSH2 0x2B69 JUMP JUMPDEST PUSH1 0x0 SWAP2 DUP3 MSTORE PUSH1 0x20 SWAP1 SWAP2 KECCAK256 ADD SLOAD PUSH1 0x7 DUP1 SLOAD PUSH1 0x1 PUSH1 0x1 PUSH1 0xA0 SHL SUB SWAP1 SWAP3 AND SWAP2 DUP4 SWAP1 DUP2 LT PUSH2 0x1256 JUMPI PUSH2 0x1256 PUSH2 0x2B69 JUMP JUMPDEST SWAP1 PUSH1 0x0 MSTORE PUSH1 0x20 PUSH1 0x0 KECCAK256 ADD PUSH1 0x0 PUSH2 0x100 EXP DUP2 SLOAD DUP2 PUSH1 0x1 PUSH1 0x1 PUSH1 0xA0 SHL SUB MUL NOT AND SWAP1 DUP4 PUSH1 0x1 PUSH1 0x1 PUSH1 0xA0 SHL SUB AND MUL OR SWAP1 SSTORE POP PUSH1 0x7 DUP1 SLOAD DUP1 PUSH2 0x1295 JUMPI PUSH2 0x1295 PUSH2 0x2C20 JUMP JUMPDEST PUSH1 0x0 DUP3 DUP2 MSTORE PUSH1 0x20 SWAP1 KECCAK256 DUP2 ADD PUSH1 0x0 NOT SWAP1 DUP2 ADD DUP1 SLOAD PUSH1 0x1 PUSH1 0x1 PUSH1 0xA0 SHL SUB NOT AND SWAP1 SSTORE ADD SWAP1 SSTORE PUSH2 0x12C4 JUMP JUMPDEST PUSH1 0x1 ADD PUSH2 0x11C9 JUMP JUMPDEST POP PUSH2 0x1341 JUMP JUMPDEST PUSH1 0x0 DUP9 GT DUP1 ISZERO PUSH2 0x12F0 JUMPI POP PUSH1 0x1 PUSH1 0x1 PUSH1 0xA0 SHL SUB DUP10 AND PUSH1 0x0 SWAP1 DUP2 MSTORE PUSH1 0x6 PUSH1 0x20 MSTORE PUSH1 0x40 SWAP1 KECCAK256 SLOAD ISZERO JUMPDEST ISZERO PUSH2 0x1341 JUMPI PUSH1 0x7 DUP1 SLOAD PUSH1 0x1 DUP2 ADD DUP3 SSTORE PUSH1 0x0 SWAP2 SWAP1 SWAP2 MSTORE PUSH32 0xA66CC928B5EDB82AF9BD49922954155AB7B0942694BEA4CE44661D9A8736C688 ADD DUP1 SLOAD PUSH1 0x1 PUSH1 0x1 PUSH1 0xA0 SHL SUB NOT AND PUSH1 0x1 PUSH1 0x1 PUSH1 0xA0 SHL SUB DUP12 AND OR SWAP1 SSTORE JUMPDEST PUSH1 0x1 PUSH1 0x1 PUSH1 0xA0 SHL SUB DUP10 AND PUSH1 0x0 DUP2 DUP2 MSTORE PUSH1 0x6 PUSH1 0x20 MSTORE PUSH1 0x40 SWAP1 DUP2 SWAP1 KECCAK256 DUP11 SWAP1 SSTORE MLOAD PUSH32 0x7A994E2E422225102FED915394DA80AEEEA86E2C0CA3F41D6D48421252F83B92 SWAP1 PUSH2 0xAA7 SWAP1 DUP12 DUP2 MSTORE PUSH1 0x20 ADD SWAP1 JUMP JUMPDEST PUSH2 0x1396 PUSH2 0x2213 JUMP JUMPDEST PUSH1 0x0 DUP1 SLOAD SWAP2 ISZERO ISZERO PUSH1 0x1 PUSH1 0xA0 SHL MUL PUSH1 0xFF PUSH1 0xA0 SHL NOT SWAP1 SWAP3 AND SWAP2 SWAP1 SWAP2 OR SWAP1 SSTORE JUMP JUMPDEST PUSH2 0x13BC PUSH2 0x2213 JUMP JUMPDEST PUSH1 0x4 SSTORE JUMP JUMPDEST PUSH2 0x13C9 PUSH2 0x2213 JUMP JUMPDEST PUSH32 0x0 DUP2 GT ISZERO PUSH2 0x144C JUMPI PUSH1 0x40 MLOAD PUSH3 0x461BCD PUSH1 0xE5 SHL DUP2 MSTORE PUSH1 0x20 PUSH1 0x4 DUP3 ADD MSTORE PUSH1 0x2A PUSH1 0x24 DUP3 ADD MSTORE PUSH32 0x4665652063616E6E6F742062652073657420686967686572207468616E206372 PUSH1 0x44 DUP3 ADD MSTORE PUSH10 0x656174696F6E20666565 PUSH1 0xB0 SHL PUSH1 0x64 DUP3 ADD MSTORE PUSH1 0x84 ADD PUSH2 0x254 JUMP JUMPDEST PUSH1 0x8 SSTORE JUMP JUMPDEST PUSH1 0x0 PUSH32 0x0 PUSH1 0x1 PUSH1 0x1 PUSH1 0xA0 SHL SUB AND PUSH4 0x18160DDD PUSH1 0x40 MLOAD DUP2 PUSH4 0xFFFFFFFF AND PUSH1 0xE0 SHL DUP2 MSTORE PUSH1 0x4 ADD PUSH1 0x20 PUSH1 0x40 MLOAD DUP1 DUP4 SUB DUP2 DUP7 GAS STATICCALL ISZERO DUP1 ISZERO PUSH2 0x14B1 JUMPI RETURNDATASIZE PUSH1 0x0 DUP1 RETURNDATACOPY RETURNDATASIZE PUSH1 0x0 REVERT JUMPDEST POP POP POP POP PUSH1 0x40 MLOAD RETURNDATASIZE PUSH1 0x1F NOT PUSH1 0x1F DUP3 ADD AND DUP3 ADD DUP1 PUSH1 0x40 MSTORE POP DUP2 ADD SWAP1 PUSH2 0x14D5 SWAP2 SWAP1 PUSH2 0x2B7F JUMP JUMPDEST SWAP1 POP SWAP1 JUMP JUMPDEST PUSH2 0x14E2 PUSH2 0x2213 JUMP JUMPDEST PUSH1 0x9 SLOAD PUSH1 0x3 SLOAD PUSH2 0x14F2 SWAP2 SWAP1 PUSH2 0x2B56 JUMP JUMPDEST DUP2 GT ISZERO PUSH2 0x154F JUMPI PUSH1 0x40 MLOAD PUSH3 0x461BCD PUSH1 0xE5 SHL DUP2 MSTORE PUSH1 0x20 PUSH1 0x4 DUP3 ADD MSTORE PUSH1 0x25 PUSH1 0x24 DUP3 ADD MSTORE PUSH32 0x5769746864726177616C20616D6F756E74206578636565647320666565206261 PUSH1 0x44 DUP3 ADD MSTORE PUSH5 0x6C616E6365 PUSH1 0xD8 SHL PUSH1 0x64 DUP3 ADD MSTORE PUSH1 0x84 ADD PUSH2 0x254 JUMP JUMPDEST DUP1 PUSH1 0x9 SLOAD PUSH1 0x3 SLOAD PUSH2 0x1560 SWAP2 SWAP1 PUSH2 0x2B56 JUMP JUMPDEST PUSH2 0x156A SWAP2 SWAP1 PUSH2 0x2BC5 JUMP JUMPDEST PUSH1 0x3 SSTORE PUSH1 0x0 PUSH1 0x9 SSTORE PUSH1 0x40 MLOAD PUSH4 0x2E1A7D4D PUSH1 0xE0 SHL DUP2 MSTORE PUSH1 0x4 DUP2 ADD DUP3 SWAP1 MSTORE PUSH32 0x0 PUSH1 0x1 PUSH1 0x1 PUSH1 0xA0 SHL SUB AND SWAP1 PUSH4 0x2E1A7D4D SWAP1 PUSH1 0x24 ADD PUSH1 0x0 PUSH1 0x40 MLOAD DUP1 DUP4 SUB DUP2 PUSH1 0x0 DUP8 DUP1 EXTCODESIZE ISZERO DUP1 ISZERO PUSH2 0x15D4 JUMPI PUSH1 0x0 DUP1 REVERT JUMPDEST POP GAS CALL ISZERO DUP1 ISZERO PUSH2 0x15E8 JUMPI RETURNDATASIZE PUSH1 0x0 DUP1 RETURNDATACOPY RETURNDATASIZE PUSH1 0x0 REVERT JUMPDEST POP POP POP POP PUSH1 0x0 DUP3 PUSH1 0x1 PUSH1 0x1 PUSH1 0xA0 SHL SUB AND DUP3 PUSH1 0x40 MLOAD PUSH1 0x0 PUSH1 0x40 MLOAD DUP1 DUP4 SUB DUP2 DUP6 DUP8 GAS CALL SWAP3 POP POP POP RETURNDATASIZE DUP1 PUSH1 0x0 DUP2 EQ PUSH2 0x1639 JUMPI PUSH1 0x40 MLOAD SWAP2 POP PUSH1 0x1F NOT PUSH1 0x3F RETURNDATASIZE ADD AND DUP3 ADD PUSH1 0x40 MSTORE RETURNDATASIZE DUP3 MSTORE RETURNDATASIZE PUSH1 0x0 PUSH1 0x20 DUP5 ADD RETURNDATACOPY PUSH2 0x163E JUMP JUMPDEST PUSH1 0x60 SWAP2 POP JUMPDEST POP POP SWAP1 POP DUP1 PUSH2 0x165F JUMPI PUSH1 0x40 MLOAD PUSH3 0x461BCD PUSH1 0xE5 SHL DUP2 MSTORE PUSH1 0x4 ADD PUSH2 0x254 SWAP1 PUSH2 0x2B98 JUMP JUMPDEST POP POP POP JUMP JUMPDEST PUSH1 0x0 SLOAD PUSH1 0x1 PUSH1 0xA0 SHL SWAP1 DIV PUSH1 0xFF AND DUP1 PUSH2 0x16EE JUMPI POP ADDRESS PUSH1 0x1 PUSH1 0x1 PUSH1 0xA0 SHL SUB AND PUSH4 0x8DA5CB5B PUSH1 0x40 MLOAD DUP2 PUSH4 0xFFFFFFFF AND PUSH1 0xE0 SHL DUP2 MSTORE PUSH1 0x4 ADD PUSH1 0x20 PUSH1 0x40 MLOAD DUP1 DUP4 SUB DUP2 DUP7 GAS STATICCALL ISZERO DUP1 ISZERO PUSH2 0x16B5 JUMPI RETURNDATASIZE PUSH1 0x0 DUP1 RETURNDATACOPY RETURNDATASIZE PUSH1 0x0 REVERT JUMPDEST POP POP POP POP PUSH1 0x40 MLOAD RETURNDATASIZE PUSH1 0x1F NOT PUSH1 0x1F DUP3 ADD AND DUP3 ADD DUP1 PUSH1 0x40 MSTORE POP DUP2 ADD SWAP1 PUSH2 0x16D9 SWAP2 SWAP1 PUSH2 0x2C36 JUMP JUMPDEST PUSH1 0x1 PUSH1 0x1 PUSH1 0xA0 SHL SUB AND CALLER PUSH1 0x1 PUSH1 0x1 PUSH1 0xA0 SHL SUB AND EQ JUMPDEST PUSH2 0x1745 JUMPI PUSH1 0x40 MLOAD PUSH3 0x461BCD PUSH1 0xE5 SHL DUP2 MSTORE PUSH1 0x20 PUSH1 0x4 DUP3 ADD MSTORE PUSH1 0x22 PUSH1 0x24 DUP3 ADD MSTORE PUSH32 0x4465706F73697473206172652074656D706F726172696C792064697361626C65 PUSH1 0x44 DUP3 ADD MSTORE PUSH2 0x3217 PUSH1 0xF1 SHL PUSH1 0x64 DUP3 ADD MSTORE PUSH1 0x84 ADD PUSH2 0x254 JUMP JUMPDEST PUSH1 0x1 SLOAD CALLVALUE LT ISZERO PUSH2 0x17B0 JUMPI PUSH1 0x40 MLOAD PUSH3 0x461BCD PUSH1 0xE5 SHL DUP2 MSTORE PUSH1 0x20 PUSH1 0x4 DUP3 ADD MSTORE PUSH1 0x30 PUSH1 0x24 DUP3 ADD MSTORE PUSH32 0x4465706F73697420616D6F756E74206973206C657373207468616E2074686520 PUSH1 0x44 DUP3 ADD MSTORE PUSH16 0x36B4B734B6BAB6903232B837B9B4BA17 PUSH1 0x81 SHL PUSH1 0x64 DUP3 ADD MSTORE PUSH1 0x84 ADD PUSH2 0x254 JUMP JUMPDEST PUSH32 0x0 PUSH1 0x1 PUSH1 0x1 PUSH1 0xA0 SHL SUB AND PUSH4 0xD0E30DB0 CALLVALUE PUSH1 0x40 MLOAD DUP3 PUSH4 0xFFFFFFFF AND PUSH1 0xE0 SHL DUP2 MSTORE PUSH1 0x4 ADD PUSH1 0x0 PUSH1 0x40 MLOAD DUP1 DUP4 SUB DUP2 DUP6 DUP9 DUP1 EXTCODESIZE ISZERO DUP1 ISZERO PUSH2 0x180B JUMPI PUSH1 0x0 DUP1 REVERT JUMPDEST POP GAS CALL ISZERO DUP1 ISZERO PUSH2 0x181F JUMPI RETURNDATASIZE PUSH1 0x0 DUP1 RETURNDATACOPY RETURNDATASIZE PUSH1 0x0 REVERT JUMPDEST POP POP POP POP POP PUSH1 0x0 PUSH1 0x4 PUSH1 0xA PUSH2 0x1834 SWAP2 SWAP1 PUSH2 0x2B25 JUMP JUMPDEST SWAP1 POP PUSH1 0x0 DUP2 CALLVALUE PUSH1 0x2 SLOAD PUSH2 0x1847 SWAP2 SWAP1 PUSH2 0x2A2A JUMP JUMPDEST PUSH2 0x1851 SWAP2 SWAP1 PUSH2 0x2B34 JUMP JUMPDEST SWAP1 POP PUSH1 0x0 PUSH2 0x185F DUP3 CALLVALUE PUSH2 0x2BC5 JUMP JUMPDEST SWAP1 POP DUP2 PUSH1 0x3 PUSH1 0x0 DUP3 DUP3 SLOAD PUSH2 0x1873 SWAP2 SWAP1 PUSH2 0x2B56 JUMP JUMPDEST SWAP1 SWAP2 SSTORE POP PUSH1 0x0 SWAP1 POP DUP1 DUP1 PUSH2 0x1885 PUSH2 0x1451 JUMP JUMPDEST SWAP1 POP DUP1 PUSH1 0x0 SUB PUSH2 0x18C1 JUMPI PUSH3 0x186A0 PUSH2 0x189F PUSH1 0x12 PUSH1 0xA PUSH2 0x2B25 JUMP JUMPDEST PUSH2 0x18A9 DUP3 DUP8 PUSH2 0x2A2A JUMP JUMPDEST PUSH2 0x18B3 SWAP2 SWAP1 PUSH2 0x2B34 JUMP JUMPDEST SWAP4 POP DUP4 SWAP2 POP DUP5 SWAP3 POP POP PUSH2 0x18E3 JUMP JUMPDEST PUSH2 0x18C9 PUSH2 0xCBD JUMP JUMPDEST SWAP2 POP DUP2 PUSH2 0x18D6 DUP3 DUP7 PUSH2 0x2A2A JUMP JUMPDEST PUSH2 0x18E0 SWAP2 SWAP1 PUSH2 0x2B34 JUMP JUMPDEST SWAP3 POP JUMPDEST PUSH1 0x0 DUP4 GT PUSH2 0x1933 JUMPI PUSH1 0x40 MLOAD PUSH3 0x461BCD PUSH1 0xE5 SHL DUP2 MSTORE PUSH1 0x20 PUSH1 0x4 DUP3 ADD DUP2 SWAP1 MSTORE PUSH1 0x24 DUP3 ADD MSTORE PUSH32 0x596F75206D75737420627579206174206C65617374206F6E652073686172652E PUSH1 0x44 DUP3 ADD MSTORE PUSH1 0x64 ADD PUSH2 0x254 JUMP JUMPDEST PUSH1 0x0 DUP2 PUSH2 0x1940 DUP5 DUP7 PUSH2 0x2A2A JUMP JUMPDEST PUSH2 0x194A SWAP2 SWAP1 PUSH2 0x2B34 JUMP JUMPDEST SWAP1 POP PUSH1 0x0 PUSH2 0x1958 DUP3 DUP8 PUSH2 0x2BC5 JUMP JUMPDEST SWAP1 POP DUP1 ISZERO PUSH2 0x1A44 JUMPI PUSH1 0x40 MLOAD PUSH4 0x2E1A7D4D PUSH1 0xE0 SHL DUP2 MSTORE PUSH1 0x4 DUP2 ADD DUP3 SWAP1 MSTORE PUSH32 0x0 PUSH1 0x1 PUSH1 0x1 PUSH1 0xA0 SHL SUB AND SWAP1 PUSH4 0x2E1A7D4D SWAP1 PUSH1 0x24 ADD PUSH1 0x0 PUSH1 0x40 MLOAD DUP1 DUP4 SUB DUP2 PUSH1 0x0 DUP8 DUP1 EXTCODESIZE ISZERO DUP1 ISZERO PUSH2 0x19C2 JUMPI PUSH1 0x0 DUP1 REVERT JUMPDEST POP GAS CALL ISZERO DUP1 ISZERO PUSH2 0x19D6 JUMPI RETURNDATASIZE PUSH1 0x0 DUP1 RETURNDATACOPY RETURNDATASIZE PUSH1 0x0 REVERT JUMPDEST POP POP PUSH1 0x40 MLOAD PUSH1 0x0 SWAP3 POP CALLER SWAP2 POP DUP4 SWAP1 DUP4 DUP2 DUP2 DUP2 DUP6 DUP8 GAS CALL SWAP3 POP POP POP RETURNDATASIZE DUP1 PUSH1 0x0 DUP2 EQ PUSH2 0x1A1C JUMPI PUSH1 0x40 MLOAD SWAP2 POP PUSH1 0x1F NOT PUSH1 0x3F RETURNDATASIZE ADD AND DUP3 ADD PUSH1 0x40 MSTORE RETURNDATASIZE DUP3 MSTORE RETURNDATASIZE PUSH1 0x0 PUSH1 0x20 DUP5 ADD RETURNDATACOPY PUSH2 0x1A21 JUMP JUMPDEST PUSH1 0x60 SWAP2 POP JUMPDEST POP POP SWAP1 POP DUP1 PUSH2 0x1A42 JUMPI PUSH1 0x40 MLOAD PUSH3 0x461BCD PUSH1 0xE5 SHL DUP2 MSTORE PUSH1 0x4 ADD PUSH2 0x254 SWAP1 PUSH2 0x2B98 JUMP JUMPDEST POP JUMPDEST PUSH32 0x0 PUSH1 0x0 JUMPDEST PUSH1 0x7 SLOAD DUP2 LT ISZERO PUSH2 0x1B07 JUMPI PUSH1 0x0 PUSH1 0x7 DUP3 DUP2 SLOAD DUP2 LT PUSH2 0x1A87 JUMPI PUSH2 0x1A87 PUSH2 0x2B69 JUMP JUMPDEST PUSH1 0x0 SWAP2 DUP3 MSTORE PUSH1 0x20 DUP3 KECCAK256 ADD SLOAD PUSH1 0x1 PUSH1 0x1 PUSH1 0xA0 SHL SUB AND SWAP2 POP PUSH2 0x1AA9 PUSH1 0x4 PUSH1 0xA PUSH2 0x2B25 JUMP JUMPDEST PUSH2 0x1AB3 DUP7 DUP13 PUSH2 0x2BC5 JUMP JUMPDEST PUSH1 0x1 PUSH1 0x1 PUSH1 0xA0 SHL SUB DUP5 AND PUSH1 0x0 SWAP1 DUP2 MSTORE PUSH1 0x6 PUSH1 0x20 MSTORE PUSH1 0x40 SWAP1 KECCAK256 SLOAD PUSH2 0x1AD6 SWAP2 SWAP1 PUSH2 0x2A2A JUMP JUMPDEST PUSH2 0x1AE0 SWAP2 SWAP1 PUSH2 0x2B34 JUMP JUMPDEST SWAP1 POP DUP1 PUSH1 0x0 SUB PUSH2 0x1AF1 JUMPI POP POP PUSH2 0x1AFF JUMP JUMPDEST PUSH2 0x1AFC DUP5 DUP4 DUP4 PUSH2 0x2348 JUMP JUMPDEST POP POP JUMPDEST PUSH1 0x1 ADD PUSH2 0x1A68 JUMP JUMPDEST POP PUSH1 0x40 MLOAD PUSH4 0x40C10F19 PUSH1 0xE0 SHL DUP2 MSTORE CALLER PUSH1 0x4 DUP3 ADD MSTORE PUSH1 0x24 DUP2 ADD DUP8 SWAP1 MSTORE PUSH32 0x0 PUSH1 0x1 PUSH1 0x1 PUSH1 0xA0 SHL SUB AND SWAP1 PUSH4 0x40C10F19 SWAP1 PUSH1 0x44 ADD PUSH1 0x0 PUSH1 0x40 MLOAD DUP1 DUP4 SUB DUP2 PUSH1 0x0 DUP8 DUP1 EXTCODESIZE ISZERO DUP1 ISZERO PUSH2 0x1B70 JUMPI PUSH1 0x0 DUP1 REVERT JUMPDEST POP GAS CALL ISZERO DUP1 ISZERO PUSH2 0x1B84 JUMPI RETURNDATASIZE PUSH1 0x0 DUP1 RETURNDATACOPY RETURNDATASIZE PUSH1 0x0 REVERT JUMPDEST POP POP PUSH1 0x40 DUP1 MLOAD DUP10 DUP2 MSTORE PUSH1 0x20 DUP2 ADD DUP8 SWAP1 MSTORE CALLER SWAP4 POP PUSH32 0x90890809C654F11D6E72A28FA60149770A0D11EC6C92319D6CEB2BB0A4EA1A15 SWAP3 POP ADD PUSH2 0xAA7 JUMP JUMPDEST PUSH1 0x60 DUP1 PUSH1 0x60 DUP1 PUSH1 0x60 PUSH1 0x0 PUSH1 0x7 DUP1 SLOAD SWAP1 POP PUSH8 0xFFFFFFFFFFFFFFFF DUP2 GT ISZERO PUSH2 0x1BE8 JUMPI PUSH2 0x1BE8 PUSH2 0x2C53 JUMP JUMPDEST PUSH1 0x40 MLOAD SWAP1 DUP1 DUP3 MSTORE DUP1 PUSH1 0x20 MUL PUSH1 0x20 ADD DUP3 ADD PUSH1 0x40 MSTORE DUP1 ISZERO PUSH2 0x1C11 JUMPI DUP2 PUSH1 0x20 ADD PUSH1 0x20 DUP3 MUL DUP1 CALLDATASIZE DUP4 CALLDATACOPY ADD SWAP1 POP JUMPDEST POP PUSH1 0x7 SLOAD SWAP1 SWAP2 POP PUSH1 0x0 SWAP1 PUSH8 0xFFFFFFFFFFFFFFFF DUP2 GT ISZERO PUSH2 0x1C33 JUMPI PUSH2 0x1C33 PUSH2 0x2C53 JUMP JUMPDEST PUSH1 0x40 MLOAD SWAP1 DUP1 DUP3 MSTORE DUP1 PUSH1 0x20 MUL PUSH1 0x20 ADD DUP3 ADD PUSH1 0x40 MSTORE DUP1 ISZERO PUSH2 0x1C5C JUMPI DUP2 PUSH1 0x20 ADD PUSH1 0x20 DUP3 MUL DUP1 CALLDATASIZE DUP4 CALLDATACOPY ADD SWAP1 POP JUMPDEST POP PUSH1 0x7 SLOAD SWAP1 SWAP2 POP PUSH1 0x0 SWAP1 PUSH8 0xFFFFFFFFFFFFFFFF DUP2 GT ISZERO PUSH2 0x1C7E JUMPI PUSH2 0x1C7E PUSH2 0x2C53 JUMP JUMPDEST PUSH1 0x40 MLOAD SWAP1 DUP1 DUP3 MSTORE DUP1 PUSH1 0x20 MUL PUSH1 0x20 ADD DUP3 ADD PUSH1 0x40 MSTORE DUP1 ISZERO PUSH2 0x1CB1 JUMPI DUP2 PUSH1 0x20 ADD JUMPDEST PUSH1 0x60 DUP2 MSTORE PUSH1 0x20 ADD SWAP1 PUSH1 0x1 SWAP1 SUB SWAP1 DUP2 PUSH2 0x1C9C JUMPI SWAP1 POP JUMPDEST POP PUSH1 0x7 SLOAD SWAP1 SWAP2 POP PUSH1 0x0 SWAP1 PUSH8 0xFFFFFFFFFFFFFFFF DUP2 GT ISZERO PUSH2 0x1CD3 JUMPI PUSH2 0x1CD3 PUSH2 0x2C53 JUMP JUMPDEST PUSH1 0x40 MLOAD SWAP1 DUP1 DUP3 MSTORE DUP1 PUSH1 0x20 MUL PUSH1 0x20 ADD DUP3 ADD PUSH1 0x40 MSTORE DUP1 ISZERO PUSH2 0x1CFC JUMPI DUP2 PUSH1 0x20 ADD PUSH1 0x20 DUP3 MUL DUP1 CALLDATASIZE DUP4 CALLDATACOPY ADD SWAP1 POP JUMPDEST POP PUSH1 0x7 SLOAD SWAP1 SWAP2 POP PUSH1 0x0 SWAP1 PUSH8 0xFFFFFFFFFFFFFFFF DUP2 GT ISZERO PUSH2 0x1D1E JUMPI PUSH2 0x1D1E PUSH2 0x2C53 JUMP JUMPDEST PUSH1 0x40 MLOAD SWAP1 DUP1 DUP3 MSTORE DUP1 PUSH1 0x20 MUL PUSH1 0x20 ADD DUP3 ADD PUSH1 0x40 MSTORE DUP1 ISZERO PUSH2 0x1D47 JUMPI DUP2 PUSH1 0x20 ADD PUSH1 0x20 DUP3 MUL DUP1 CALLDATASIZE DUP4 CALLDATACOPY ADD SWAP1 POP JUMPDEST POP SWAP1 POP PUSH32 0x0 PUSH1 0x0 JUMPDEST PUSH1 0x7 SLOAD DUP2 LT ISZERO PUSH2 0x1FC6 JUMPI PUSH1 0x0 PUSH1 0x7 DUP3 DUP2 SLOAD DUP2 LT PUSH2 0x1D8D JUMPI PUSH2 0x1D8D PUSH2 0x2B69 JUMP JUMPDEST SWAP1 PUSH1 0x0 MSTORE PUSH1 0x20 PUSH1 0x0 KECCAK256 ADD PUSH1 0x0 SWAP1 SLOAD SWAP1 PUSH2 0x100 EXP SWAP1 DIV PUSH1 0x1 PUSH1 0x1 PUSH1 0xA0 SHL SUB AND SWAP1 POP DUP1 DUP9 DUP4 DUP2 MLOAD DUP2 LT PUSH2 0x1DC0 JUMPI PUSH2 0x1DC0 PUSH2 0x2B69 JUMP JUMPDEST PUSH1 0x20 MUL PUSH1 0x20 ADD ADD SWAP1 PUSH1 0x1 PUSH1 0x1 PUSH1 0xA0 SHL SUB AND SWAP1 DUP2 PUSH1 0x1 PUSH1 0x1 PUSH1 0xA0 SHL SUB AND DUP2 MSTORE POP POP PUSH1 0x6 PUSH1 0x0 DUP3 PUSH1 0x1 PUSH1 0x1 PUSH1 0xA0 SHL SUB AND PUSH1 0x1 PUSH1 0x1 PUSH1 0xA0 SHL SUB AND DUP2 MSTORE PUSH1 0x20 ADD SWAP1 DUP2 MSTORE PUSH1 0x20 ADD PUSH1 0x0 KECCAK256 SLOAD DUP8 DUP4 DUP2 MLOAD DUP2 LT PUSH2 0x1E18 JUMPI PUSH2 0x1E18 PUSH2 0x2B69 JUMP JUMPDEST PUSH1 0x20 MUL PUSH1 0x20 ADD ADD DUP2 DUP2 MSTORE POP POP PUSH1 0x0 DUP2 SWAP1 POP DUP1 PUSH1 0x1 PUSH1 0x1 PUSH1 0xA0 SHL SUB AND PUSH4 0x95D89B41 PUSH1 0x40 MLOAD DUP2 PUSH4 0xFFFFFFFF AND PUSH1 0xE0 SHL DUP2 MSTORE PUSH1 0x4 ADD PUSH1 0x0 PUSH1 0x40 MLOAD DUP1 DUP4 SUB DUP2 DUP7 GAS STATICCALL ISZERO DUP1 ISZERO PUSH2 0x1E67 JUMPI RETURNDATASIZE PUSH1 0x0 DUP1 RETURNDATACOPY RETURNDATASIZE PUSH1 0x0 REVERT JUMPDEST POP POP POP POP PUSH1 0x40 MLOAD RETURNDATASIZE PUSH1 0x0 DUP3 RETURNDATACOPY PUSH1 0x1F RETURNDATASIZE SWAP1 DUP2 ADD PUSH1 0x1F NOT AND DUP3 ADD PUSH1 0x40 MSTORE PUSH2 0x1E8F SWAP2 SWAP1 DUP2 ADD SWAP1 PUSH2 0x2C9A JUMP JUMPDEST DUP8 DUP5 DUP2 MLOAD DUP2 LT PUSH2 0x1EA1 JUMPI PUSH2 0x1EA1 PUSH2 0x2B69 JUMP JUMPDEST PUSH1 0x20 SWAP1 DUP2 MUL SWAP2 SWAP1 SWAP2 ADD ADD MSTORE PUSH1 0x40 MLOAD PUSH4 0x70A08231 PUSH1 0xE0 SHL DUP2 MSTORE ADDRESS PUSH1 0x4 DUP3 ADD MSTORE PUSH1 0x1 PUSH1 0x1 PUSH1 0xA0 SHL SUB DUP3 AND SWAP1 PUSH4 0x70A08231 SWAP1 PUSH1 0x24 ADD PUSH1 0x20 PUSH1 0x40 MLOAD DUP1 DUP4 SUB DUP2 DUP7 GAS STATICCALL ISZERO DUP1 ISZERO PUSH2 0x1EF0 JUMPI RETURNDATASIZE PUSH1 0x0 DUP1 RETURNDATACOPY RETURNDATASIZE PUSH1 0x0 REVERT JUMPDEST POP POP POP POP PUSH1 0x40 MLOAD RETURNDATASIZE PUSH1 0x1F NOT PUSH1 0x1F DUP3 ADD AND DUP3 ADD DUP1 PUSH1 0x40 MSTORE POP DUP2 ADD SWAP1 PUSH2 0x1F14 SWAP2 SWAP1 PUSH2 0x2B7F JUMP JUMPDEST DUP7 DUP5 DUP2 MLOAD DUP2 LT PUSH2 0x1F26 JUMPI PUSH2 0x1F26 PUSH2 0x2B69 JUMP JUMPDEST PUSH1 0x20 MUL PUSH1 0x20 ADD ADD DUP2 DUP2 MSTORE POP POP PUSH1 0x0 DUP7 DUP5 DUP2 MLOAD DUP2 LT PUSH2 0x1F46 JUMPI PUSH2 0x1F46 PUSH2 0x2B69 JUMP JUMPDEST PUSH1 0x20 MUL PUSH1 0x20 ADD ADD MLOAD GT ISZERO PUSH2 0x1F9B JUMPI PUSH2 0x1F78 DUP5 DUP4 DUP9 DUP7 DUP2 MLOAD DUP2 LT PUSH2 0x1F6B JUMPI PUSH2 0x1F6B PUSH2 0x2B69 JUMP JUMPDEST PUSH1 0x20 MUL PUSH1 0x20 ADD ADD MLOAD PUSH2 0x2240 JUMP JUMPDEST DUP6 DUP5 DUP2 MLOAD DUP2 LT PUSH2 0x1F8A JUMPI PUSH2 0x1F8A PUSH2 0x2B69 JUMP JUMPDEST PUSH1 0x20 MUL PUSH1 0x20 ADD ADD DUP2 DUP2 MSTORE POP POP PUSH2 0x1FBC JUMP JUMPDEST PUSH1 0x0 DUP6 DUP5 DUP2 MLOAD DUP2 LT PUSH2 0x1FAF JUMPI PUSH2 0x1FAF PUSH2 0x2B69 JUMP JUMPDEST PUSH1 0x20 MUL PUSH1 0x20 ADD ADD DUP2 DUP2 MSTORE POP POP JUMPDEST POP POP PUSH1 0x1 ADD PUSH2 0x1D6E JUMP JUMPDEST POP SWAP5 SWAP11 SWAP4 SWAP10 POP SWAP2 SWAP8 POP SWAP6 POP SWAP4 POP SWAP2 POP POP JUMP JUMPDEST PUSH2 0x1FE0 PUSH2 0x2213 JUMP JUMPDEST PUSH1 0x1 SSTORE JUMP JUMPDEST PUSH2 0x1FED PUSH2 0x2213 JUMP JUMPDEST PUSH1 0x1 PUSH1 0x1 PUSH1 0xA0 SHL SUB DUP2 AND PUSH2 0x2017 JUMPI PUSH1 0x40 MLOAD PUSH4 0x1E4FBDF7 PUSH1 0xE0 SHL DUP2 MSTORE PUSH1 0x0 PUSH1 0x4 DUP3 ADD MSTORE PUSH1 0x24 ADD PUSH2 0x254 JUMP JUMPDEST PUSH2 0x2020 DUP2 PUSH2 0x22F8 JUMP JUMPDEST POP JUMP JUMPDEST PUSH1 0x40 MLOAD PUSH4 0x70A08231 PUSH1 0xE0 SHL DUP2 MSTORE ADDRESS PUSH1 0x4 DUP3 ADD MSTORE DUP4 SWAP1 PUSH1 0x1 PUSH1 0x1 PUSH1 0xA0 SHL SUB DUP3 AND SWAP1 PUSH4 0x70A08231 SWAP1 PUSH1 0x24 ADD PUSH1 0x20 PUSH1 0x40 MLOAD DUP1 DUP4 SUB DUP2 DUP7 GAS STATICCALL ISZERO DUP1 ISZERO PUSH2 0x2069 JUMPI RETURNDATASIZE PUSH1 0x0 DUP1 RETURNDATACOPY RETURNDATASIZE PUSH1 0x0 REVERT JUMPDEST POP POP POP POP PUSH1 0x40 MLOAD RETURNDATASIZE PUSH1 0x1F NOT PUSH1 0x1F DUP3 ADD AND DUP3 ADD DUP1 PUSH1 0x40 MSTORE POP DUP2 ADD SWAP1 PUSH2 0x208D SWAP2 SWAP1 PUSH2 0x2B7F JUMP JUMPDEST DUP4 GT ISZERO PUSH2 0x20DC JUMPI PUSH1 0x40 MLOAD PUSH3 0x461BCD PUSH1 0xE5 SHL DUP2 MSTORE PUSH1 0x20 PUSH1 0x4 DUP3 ADD MSTORE PUSH1 0x1B PUSH1 0x24 DUP3 ADD MSTORE PUSH32 0x496E73756666696369656E7420746F6B656E2062616C616E63652E0000000000 PUSH1 0x44 DUP3 ADD MSTORE PUSH1 0x64 ADD PUSH2 0x254 JUMP JUMPDEST PUSH1 0x0 PUSH2 0x20F1 PUSH2 0x20EC DUP8 DUP8 DUP8 PUSH2 0x2240 JUMP JUMPDEST PUSH2 0x24F0 JUMP JUMPDEST SWAP1 POP PUSH1 0x0 PUSH2 0x20FF DUP8 DUP8 PUSH2 0x252D JUMP JUMPDEST PUSH1 0x40 MLOAD PUSH4 0x95EA7B3 PUSH1 0xE0 SHL DUP2 MSTORE PUSH1 0x1 PUSH1 0x1 PUSH1 0xA0 SHL SUB PUSH32 0x0 DUP2 AND PUSH1 0x4 DUP4 ADD MSTORE PUSH1 0x24 DUP3 ADD DUP9 SWAP1 MSTORE SWAP2 SWAP3 POP SWAP1 DUP5 AND SWAP1 PUSH4 0x95EA7B3 SWAP1 PUSH1 0x44 ADD PUSH1 0x20 PUSH1 0x40 MLOAD DUP1 DUP4 SUB DUP2 PUSH1 0x0 DUP8 GAS CALL ISZERO DUP1 ISZERO PUSH2 0x2172 JUMPI RETURNDATASIZE PUSH1 0x0 DUP1 RETURNDATACOPY RETURNDATASIZE PUSH1 0x0 REVERT JUMPDEST POP POP POP POP PUSH1 0x40 MLOAD RETURNDATASIZE PUSH1 0x1F NOT PUSH1 0x1F DUP3 ADD AND DUP3 ADD DUP1 PUSH1 0x40 MSTORE POP DUP2 ADD SWAP1 PUSH2 0x2196 SWAP2 SWAP1 PUSH2 0x2D2E JUMP JUMPDEST POP DUP7 PUSH1 0x1 PUSH1 0x1 PUSH1 0xA0 SHL SUB AND PUSH4 0x5C11D795 DUP7 DUP5 DUP5 DUP9 PUSH1 0x4 SLOAD TIMESTAMP PUSH2 0x21B8 SWAP2 SWAP1 PUSH2 0x2B56 JUMP JUMPDEST PUSH1 0x40 MLOAD DUP7 PUSH4 0xFFFFFFFF AND PUSH1 0xE0 SHL DUP2 MSTORE PUSH1 0x4 ADD PUSH2 0x21D8 SWAP6 SWAP5 SWAP4 SWAP3 SWAP2 SWAP1 PUSH2 0x2D4B JUMP JUMPDEST PUSH1 0x0 PUSH1 0x40 MLOAD DUP1 DUP4 SUB DUP2 PUSH1 0x0 DUP8 DUP1 EXTCODESIZE ISZERO DUP1 ISZERO PUSH2 0x21F2 JUMPI PUSH1 0x0 DUP1 REVERT JUMPDEST POP GAS CALL ISZERO DUP1 ISZERO PUSH2 0x2206 JUMPI RETURNDATASIZE PUSH1 0x0 DUP1 RETURNDATACOPY RETURNDATASIZE PUSH1 0x0 REVERT JUMPDEST POP POP POP POP POP POP POP POP POP POP POP JUMP JUMPDEST PUSH1 0x0 SLOAD PUSH1 0x1 PUSH1 0x1 PUSH1 0xA0 SHL SUB AND CALLER EQ PUSH2 0xDD5 JUMPI PUSH1 0x40 MLOAD PUSH4 0x118CDAA7 PUSH1 0xE0 SHL DUP2 MSTORE CALLER PUSH1 0x4 DUP3 ADD MSTORE PUSH1 0x24 ADD PUSH2 0x254 JUMP JUMPDEST PUSH1 0x0 DUP1 PUSH2 0x224D DUP6 DUP6 PUSH2 0x252D JUMP JUMPDEST SWAP1 POP PUSH1 0x0 DUP6 PUSH1 0x1 PUSH1 0x1 PUSH1 0xA0 SHL SUB AND PUSH4 0xD06CA61F DUP6 DUP5 PUSH1 0x40 MLOAD DUP4 PUSH4 0xFFFFFFFF AND PUSH1 0xE0 SHL DUP2 MSTORE PUSH1 0x4 ADD PUSH2 0x227F SWAP3 SWAP2 SWAP1 PUSH2 0x2D87 JUMP JUMPDEST PUSH1 0x0 PUSH1 0x40 MLOAD DUP1 DUP4 SUB DUP2 DUP7 GAS STATICCALL ISZERO DUP1 ISZERO PUSH2 0x229C JUMPI RETURNDATASIZE PUSH1 0x0 DUP1 RETURNDATACOPY RETURNDATASIZE PUSH1 0x0 REVERT JUMPDEST POP POP POP POP PUSH1 0x40 MLOAD RETURNDATASIZE PUSH1 0x0 DUP3 RETURNDATACOPY PUSH1 0x1F RETURNDATASIZE SWAP1 DUP2 ADD PUSH1 0x1F NOT AND DUP3 ADD PUSH1 0x40 MSTORE PUSH2 0x22C4 SWAP2 SWAP1 DUP2 ADD SWAP1 PUSH2 0x2DA8 JUMP JUMPDEST SWAP1 POP DUP1 PUSH1 0x1 DUP3 MLOAD PUSH2 0x22D5 SWAP2 SWAP1 PUSH2 0x2BC5 JUMP JUMPDEST DUP2 MLOAD DUP2 LT PUSH2 0x22E5 JUMPI PUSH2 0x22E5 PUSH2 0x2B69 JUMP JUMPDEST PUSH1 0x20 MUL PUSH1 0x20 ADD ADD MLOAD SWAP3 POP POP POP SWAP4 SWAP3 POP POP POP JUMP JUMPDEST PUSH1 0x0 DUP1 SLOAD PUSH1 0x1 PUSH1 0x1 PUSH1 0xA0 SHL SUB DUP4 DUP2 AND PUSH1 0x1 PUSH1 0x1 PUSH1 0xA0 SHL SUB NOT DUP4 AND DUP2 OR DUP5 SSTORE PUSH1 0x40 MLOAD SWAP2 SWAP1 SWAP3 AND SWAP3 DUP4 SWAP2 PUSH32 0x8BE0079C531659141344CD1FD0A4F28419497F9722A3DAAFE3B4186F6B6457E0 SWAP2 SWAP1 LOG3 POP POP JUMP JUMPDEST PUSH2 0x2350 PUSH2 0xDD7 JUMP JUMPDEST DUP2 GT ISZERO PUSH2 0x239F JUMPI PUSH1 0x40 MLOAD PUSH3 0x461BCD PUSH1 0xE5 SHL DUP2 MSTORE PUSH1 0x20 PUSH1 0x4 DUP3 ADD MSTORE PUSH1 0x1A PUSH1 0x24 DUP3 ADD MSTORE PUSH32 0x496E73756666696369656E7420574554482062616C616E63652E000000000000 PUSH1 0x44 DUP3 ADD MSTORE PUSH1 0x64 ADD PUSH2 0x254 JUMP JUMPDEST PUSH1 0x0 PUSH2 0x23AF PUSH2 0x20EC DUP6 DUP6 DUP6 PUSH2 0x26BE JUMP JUMPDEST SWAP1 POP PUSH1 0x0 PUSH2 0x23BD DUP6 DUP6 PUSH2 0x26C7 JUMP JUMPDEST PUSH1 0x40 MLOAD PUSH4 0x95EA7B3 PUSH1 0xE0 SHL DUP2 MSTORE PUSH1 0x1 PUSH1 0x1 PUSH1 0xA0 SHL SUB PUSH32 0x0 DUP2 AND PUSH1 0x4 DUP4 ADD MSTORE PUSH1 0x24 DUP3 ADD DUP7 SWAP1 MSTORE SWAP2 SWAP3 POP PUSH32 0x0 SWAP1 SWAP2 AND SWAP1 PUSH4 0x95EA7B3 SWAP1 PUSH1 0x44 ADD PUSH1 0x20 PUSH1 0x40 MLOAD DUP1 DUP4 SUB DUP2 PUSH1 0x0 DUP8 GAS CALL ISZERO DUP1 ISZERO PUSH2 0x2451 JUMPI RETURNDATASIZE PUSH1 0x0 DUP1 RETURNDATACOPY RETURNDATASIZE PUSH1 0x0 REVERT JUMPDEST POP POP POP POP PUSH1 0x40 MLOAD RETURNDATASIZE PUSH1 0x1F NOT PUSH1 0x1F DUP3 ADD AND DUP3 ADD DUP1 PUSH1 0x40 MSTORE POP DUP2 ADD SWAP1 PUSH2 0x2475 SWAP2 SWAP1 PUSH2 0x2D2E JUMP JUMPDEST POP DUP5 PUSH1 0x1 PUSH1 0x1 PUSH1 0xA0 SHL SUB AND PUSH4 0x5C11D795 DUP5 DUP5 DUP5 ADDRESS PUSH1 0x4 SLOAD TIMESTAMP PUSH2 0x2497 SWAP2 SWAP1 PUSH2 0x2B56 JUMP JUMPDEST PUSH1 0x40 MLOAD DUP7 PUSH4 0xFFFFFFFF AND PUSH1 0xE0 SHL DUP2 MSTORE PUSH1 0x4 ADD PUSH2 0x24B7 SWAP6 SWAP5 SWAP4 SWAP3 SWAP2 SWAP1 PUSH2 0x2D4B JUMP JUMPDEST PUSH1 0x0 PUSH1 0x40 MLOAD DUP1 DUP4 SUB DUP2 PUSH1 0x0 DUP8 DUP1 EXTCODESIZE ISZERO DUP1 ISZERO PUSH2 0x24D1 JUMPI PUSH1 0x0 DUP1 REVERT JUMPDEST POP GAS CALL ISZERO DUP1 ISZERO PUSH2 0x24E5 JUMPI RETURNDATASIZE PUSH1 0x0 DUP1 RETURNDATACOPY RETURNDATASIZE PUSH1 0x0 REVERT JUMPDEST POP POP POP POP POP POP POP POP POP JUMP JUMPDEST PUSH1 0x0 PUSH2 0x24FE PUSH1 0x4 PUSH1 0xA PUSH2 0x2B25 JUMP JUMPDEST PUSH1 0x5 SLOAD DUP4 SWAP1 PUSH2 0x250F PUSH1 0x4 PUSH1 0xA PUSH2 0x2B25 JUMP JUMPDEST PUSH2 0x2519 SWAP2 SWAP1 PUSH2 0x2BC5 JUMP JUMPDEST PUSH2 0x2523 SWAP2 SWAP1 PUSH2 0x2A2A JUMP JUMPDEST PUSH2 0xB49 SWAP2 SWAP1 PUSH2 0x2B34 JUMP JUMPDEST PUSH1 0x60 PUSH1 0x0 DUP4 PUSH1 0x1 PUSH1 0x1 PUSH1 0xA0 SHL SUB AND PUSH4 0xAD5C4648 PUSH1 0x40 MLOAD DUP2 PUSH4 0xFFFFFFFF AND PUSH1 0xE0 SHL DUP2 MSTORE PUSH1 0x4 ADD PUSH1 0x20 PUSH1 0x40 MLOAD DUP1 DUP4 SUB DUP2 DUP7 GAS STATICCALL ISZERO DUP1 ISZERO PUSH2 0x256F JUMPI RETURNDATASIZE PUSH1 0x0 DUP1 RETURNDATACOPY RETURNDATASIZE PUSH1 0x0 REVERT JUMPDEST POP POP POP POP PUSH1 0x40 MLOAD RETURNDATASIZE PUSH1 0x1F NOT PUSH1 0x1F DUP3 ADD AND DUP3 ADD DUP1 PUSH1 0x40 MSTORE POP DUP2 ADD SWAP1 PUSH2 0x2593 SWAP2 SWAP1 PUSH2 0x2C36 JUMP JUMPDEST SWAP1 POP DUP1 PUSH1 0x1 PUSH1 0x1 PUSH1 0xA0 SHL SUB AND DUP4 PUSH1 0x1 PUSH1 0x1 PUSH1 0xA0 SHL SUB AND SUB PUSH2 0x2614 JUMPI PUSH1 0x0 PUSH1 0x1 JUMPDEST PUSH1 0x40 MLOAD SWAP1 DUP1 DUP3 MSTORE DUP1 PUSH1 0x20 MUL PUSH1 0x20 ADD DUP3 ADD PUSH1 0x40 MSTORE DUP1 ISZERO PUSH2 0x25DC JUMPI DUP2 PUSH1 0x20 ADD PUSH1 0x20 DUP3 MUL DUP1 CALLDATASIZE DUP4 CALLDATACOPY ADD SWAP1 POP JUMPDEST POP SWAP1 POP DUP2 DUP2 PUSH1 0x0 DUP2 MLOAD DUP2 LT PUSH2 0x25F3 JUMPI PUSH2 0x25F3 PUSH2 0x2B69 JUMP JUMPDEST PUSH1 0x1 PUSH1 0x1 PUSH1 0xA0 SHL SUB SWAP1 SWAP3 AND PUSH1 0x20 SWAP3 DUP4 MUL SWAP2 SWAP1 SWAP2 ADD SWAP1 SWAP2 ADD MSTORE SWAP2 POP PUSH2 0xB49 SWAP1 POP JUMP JUMPDEST PUSH1 0x40 DUP1 MLOAD PUSH1 0x2 DUP1 DUP3 MSTORE PUSH1 0x60 DUP3 ADD DUP4 MSTORE PUSH1 0x0 SWAP3 PUSH1 0x20 DUP4 ADD SWAP1 DUP1 CALLDATASIZE DUP4 CALLDATACOPY ADD SWAP1 POP POP SWAP1 POP DUP4 DUP2 PUSH1 0x0 DUP2 MLOAD DUP2 LT PUSH2 0x2649 JUMPI PUSH2 0x2649 PUSH2 0x2B69 JUMP JUMPDEST PUSH1 0x20 MUL PUSH1 0x20 ADD ADD SWAP1 PUSH1 0x1 PUSH1 0x1 PUSH1 0xA0 SHL SUB AND SWAP1 DUP2 PUSH1 0x1 PUSH1 0x1 PUSH1 0xA0 SHL SUB AND DUP2 MSTORE POP POP PUSH32 0x0 DUP2 PUSH1 0x1 DUP2 MLOAD DUP2 LT PUSH2 0x269D JUMPI PUSH2 0x269D PUSH2 0x2B69 JUMP JUMPDEST PUSH1 0x1 PUSH1 0x1 PUSH1 0xA0 SHL SUB SWAP1 SWAP3 AND PUSH1 0x20 SWAP3 DUP4 MUL SWAP2 SWAP1 SWAP2 ADD SWAP1 SWAP2 ADD MSTORE SWAP2 POP POP SWAP3 SWAP2 POP POP JUMP JUMPDEST PUSH1 0x0 DUP1 PUSH2 0x224D DUP6 DUP6 JUMPDEST PUSH1 0x60 PUSH1 0x0 DUP4 PUSH1 0x1 PUSH1 0x1 PUSH1 0xA0 SHL SUB AND PUSH4 0xAD5C4648 PUSH1 0x40 MLOAD DUP2 PUSH4 0xFFFFFFFF AND PUSH1 0xE0 SHL DUP2 MSTORE PUSH1 0x4 ADD PUSH1 0x20 PUSH1 0x40 MLOAD DUP1 DUP4 SUB DUP2 DUP7 GAS STATICCALL ISZERO DUP1 ISZERO PUSH2 0x2709 JUMPI RETURNDATASIZE PUSH1 0x0 DUP1 RETURNDATACOPY RETURNDATASIZE PUSH1 0x0 REVERT JUMPDEST POP POP POP POP PUSH1 0x40 MLOAD RETURNDATASIZE PUSH1 0x1F NOT PUSH1 0x1F DUP3 ADD AND DUP3 ADD DUP1 PUSH1 0x40 MSTORE POP DUP2 ADD SWAP1 PUSH2 0x272D SWAP2 SWAP1 PUSH2 0x2C36 JUMP JUMPDEST SWAP1 POP DUP1 PUSH1 0x1 PUSH1 0x1 PUSH1 0xA0 SHL SUB AND DUP4 PUSH1 0x1 PUSH1 0x1 PUSH1 0xA0 SHL SUB AND SUB PUSH2 0x2751 JUMPI PUSH1 0x0 PUSH1 0x1 PUSH2 0x25B3 JUMP JUMPDEST PUSH1 0x40 DUP1 MLOAD PUSH1 0x2 DUP1 DUP3 MSTORE PUSH1 0x60 DUP3 ADD DUP4 MSTORE PUSH1 0x0 SWAP3 PUSH1 0x20 DUP4 ADD SWAP1 DUP1 CALLDATASIZE DUP4 CALLDATACOPY ADD SWAP1 POP POP SWAP1 POP PUSH32 0x0 DUP2 PUSH1 0x0 DUP2 MLOAD DUP2 LT PUSH2 0x27A6 JUMPI PUSH2 0x27A6 PUSH2 0x2B69 JUMP JUMPDEST PUSH1 0x20 MUL PUSH1 0x20 ADD ADD SWAP1 PUSH1 0x1 PUSH1 0x1 PUSH1 0xA0 SHL SUB AND SWAP1 DUP2 PUSH1 0x1 PUSH1 0x1 PUSH1 0xA0 SHL SUB AND DUP2 MSTORE POP POP DUP4 DUP2 PUSH1 0x1 DUP2 MLOAD DUP2 LT PUSH2 0x269D JUMPI PUSH2 0x269D PUSH2 0x2B69 JUMP JUMPDEST PUSH1 0x1 PUSH1 0x1 PUSH1 0xA0 SHL SUB DUP2 AND DUP2 EQ PUSH2 0x2020 JUMPI PUSH1 0x0 DUP1 REVERT JUMPDEST PUSH1 0x0 DUP1 PUSH1 0x40 DUP4 DUP6 SUB SLT ISZERO PUSH2 0x2802 JUMPI PUSH1 0x0 DUP1 REVERT JUMPDEST DUP3 CALLDATALOAD SWAP2 POP PUSH1 0x20 DUP4 ADD CALLDATALOAD PUSH2 0x2814 DUP2 PUSH2 0x27DA JUMP JUMPDEST DUP1 SWAP2 POP POP SWAP3 POP SWAP3 SWAP1 POP JUMP JUMPDEST PUSH1 0x0 PUSH1 0x20 DUP3 DUP5 SUB SLT ISZERO PUSH2 0x2831 JUMPI PUSH1 0x0 DUP1 REVERT JUMPDEST DUP2 CALLDATALOAD PUSH2 0x283C DUP2 PUSH2 0x27DA JUMP JUMPDEST SWAP4 SWAP3 POP POP POP JUMP JUMPDEST PUSH1 0x0 PUSH1 0x20 DUP3 DUP5 SUB SLT ISZERO PUSH2 0x2855 JUMPI PUSH1 0x0 DUP1 REVERT JUMPDEST POP CALLDATALOAD SWAP2 SWAP1 POP JUMP JUMPDEST PUSH1 0x0 DUP1 PUSH1 0x40 DUP4 DUP6 SUB SLT ISZERO PUSH2 0x286F JUMPI PUSH1 0x0 DUP1 REVERT JUMPDEST DUP3 CALLDATALOAD PUSH2 0x287A DUP2 PUSH2 0x27DA JUMP JUMPDEST SWAP5 PUSH1 0x20 SWAP4 SWAP1 SWAP4 ADD CALLDATALOAD SWAP4 POP POP POP JUMP JUMPDEST DUP1 ISZERO ISZERO DUP2 EQ PUSH2 0x2020 JUMPI PUSH1 0x0 DUP1 REVERT JUMPDEST PUSH1 0x0 PUSH1 0x20 DUP3 DUP5 SUB SLT ISZERO PUSH2 0x28A8 JUMPI PUSH1 0x0 DUP1 REVERT JUMPDEST DUP2 CALLDATALOAD PUSH2 0x283C DUP2 PUSH2 0x2888 JUMP JUMPDEST PUSH1 0x0 DUP2 MLOAD DUP1 DUP5 MSTORE PUSH1 0x20 DUP1 DUP6 ADD SWAP5 POP PUSH1 0x20 DUP5 ADD PUSH1 0x0 JUMPDEST DUP4 DUP2 LT ISZERO PUSH2 0x28ED JUMPI DUP2 MLOAD PUSH1 0x1 PUSH1 0x1 PUSH1 0xA0 SHL SUB AND DUP8 MSTORE SWAP6 DUP3 ADD SWAP6 SWAP1 DUP3 ADD SWAP1 PUSH1 0x1 ADD PUSH2 0x28C8 JUMP JUMPDEST POP SWAP5 SWAP6 SWAP5 POP POP POP POP POP JUMP JUMPDEST PUSH1 0x0 DUP2 MLOAD DUP1 DUP5 MSTORE PUSH1 0x20 DUP1 DUP6 ADD SWAP5 POP PUSH1 0x20 DUP5 ADD PUSH1 0x0 JUMPDEST DUP4 DUP2 LT ISZERO PUSH2 0x28ED JUMPI DUP2 MLOAD DUP8 MSTORE SWAP6 DUP3 ADD SWAP6 SWAP1 DUP3 ADD SWAP1 PUSH1 0x1 ADD PUSH2 0x290D JUMP JUMPDEST PUSH1 0x0 JUMPDEST DUP4 DUP2 LT ISZERO PUSH2 0x2944 JUMPI DUP2 DUP2 ADD MLOAD DUP4 DUP3 ADD MSTORE PUSH1 0x20 ADD PUSH2 0x292C JUMP JUMPDEST POP POP PUSH1 0x0 SWAP2 ADD MSTORE JUMP JUMPDEST PUSH1 0xA0 DUP2 MSTORE PUSH1 0x0 PUSH2 0x2960 PUSH1 0xA0 DUP4 ADD DUP9 PUSH2 0x28B3 JUMP JUMPDEST PUSH1 0x20 DUP4 DUP3 SUB DUP2 DUP6 ADD MSTORE PUSH2 0x2973 DUP3 DUP10 PUSH2 0x28F8 JUMP JUMPDEST SWAP2 POP DUP4 DUP3 SUB PUSH1 0x40 DUP6 ADD MSTORE DUP2 DUP8 MLOAD DUP1 DUP5 MSTORE DUP3 DUP5 ADD SWAP2 POP DUP3 DUP2 PUSH1 0x5 SHL DUP6 ADD ADD DUP4 DUP11 ADD PUSH1 0x0 JUMPDEST DUP4 DUP2 LT ISZERO PUSH2 0x29DC JUMPI PUSH1 0x1F NOT DUP1 DUP9 DUP6 SUB ADD DUP7 MSTORE DUP3 MLOAD DUP1 MLOAD DUP1 DUP7 MSTORE PUSH2 0x29BE DUP2 DUP11 DUP9 ADD DUP12 DUP6 ADD PUSH2 0x2929 JUMP JUMPDEST SWAP7 DUP9 ADD SWAP7 PUSH1 0x1F ADD SWAP1 SWAP2 AND SWAP4 SWAP1 SWAP4 ADD DUP7 ADD SWAP3 POP SWAP1 DUP6 ADD SWAP1 PUSH1 0x1 ADD PUSH2 0x2996 JUMP JUMPDEST POP POP DUP7 DUP2 SUB PUSH1 0x60 DUP9 ADD MSTORE PUSH2 0x29F0 DUP2 DUP11 PUSH2 0x28F8 JUMP JUMPDEST SWAP5 POP POP POP POP POP DUP3 DUP2 SUB PUSH1 0x80 DUP5 ADD MSTORE PUSH2 0x2A08 DUP2 DUP6 PUSH2 0x28F8 JUMP JUMPDEST SWAP9 SWAP8 POP POP POP POP POP POP POP POP JUMP JUMPDEST PUSH4 0x4E487B71 PUSH1 0xE0 SHL PUSH1 0x0 MSTORE PUSH1 0x11 PUSH1 0x4 MSTORE PUSH1 0x24 PUSH1 0x0 REVERT JUMPDEST DUP1 DUP3 MUL DUP2 ISZERO DUP3 DUP3 DIV DUP5 EQ OR PUSH2 0xB49 JUMPI PUSH2 0xB49 PUSH2 0x2A14 JUMP JUMPDEST PUSH1 0x1 DUP2 DUP2 JUMPDEST DUP1 DUP6 GT ISZERO PUSH2 0x2A7C JUMPI DUP2 PUSH1 0x0 NOT DIV DUP3 GT ISZERO PUSH2 0x2A62 JUMPI PUSH2 0x2A62 PUSH2 0x2A14 JUMP JUMPDEST DUP1 DUP6 AND ISZERO PUSH2 0x2A6F JUMPI SWAP2 DUP2 MUL SWAP2 JUMPDEST SWAP4 DUP5 SHR SWAP4 SWAP1 DUP1 MUL SWAP1 PUSH2 0x2A46 JUMP JUMPDEST POP SWAP3 POP SWAP3 SWAP1 POP JUMP JUMPDEST PUSH1 0x0 DUP3 PUSH2 0x2A93 JUMPI POP PUSH1 0x1 PUSH2 0xB49 JUMP JUMPDEST DUP2 PUSH2 0x2AA0 JUMPI POP PUSH1 0x0 PUSH2 0xB49 JUMP JUMPDEST DUP2 PUSH1 0x1 DUP2 EQ PUSH2 0x2AB6 JUMPI PUSH1 0x2 DUP2 EQ PUSH2 0x2AC0 JUMPI PUSH2 0x2ADC JUMP JUMPDEST PUSH1 0x1 SWAP2 POP POP PUSH2 0xB49 JUMP JUMPDEST PUSH1 0xFF DUP5 GT ISZERO PUSH2 0x2AD1 JUMPI PUSH2 0x2AD1 PUSH2 0x2A14 JUMP JUMPDEST POP POP PUSH1 0x1 DUP3 SHL PUSH2 0xB49 JUMP JUMPDEST POP PUSH1 0x20 DUP4 LT PUSH2 0x133 DUP4 LT AND PUSH1 0x4E DUP5 LT PUSH1 0xB DUP5 LT AND OR ISZERO PUSH2 0x2AFF JUMPI POP DUP2 DUP2 EXP PUSH2 0xB49 JUMP JUMPDEST PUSH2 0x2B09 DUP4 DUP4 PUSH2 0x2A41 JUMP JUMPDEST DUP1 PUSH1 0x0 NOT DIV DUP3 GT ISZERO PUSH2 0x2B1D JUMPI PUSH2 0x2B1D PUSH2 0x2A14 JUMP JUMPDEST MUL SWAP4 SWAP3 POP POP POP JUMP JUMPDEST PUSH1 0x0 PUSH2 0x283C PUSH1 0xFF DUP5 AND DUP4 PUSH2 0x2A84 JUMP JUMPDEST PUSH1 0x0 DUP3 PUSH2 0x2B51 JUMPI PUSH4 0x4E487B71 PUSH1 0xE0 SHL PUSH1 0x0 MSTORE PUSH1 0x12 PUSH1 0x4 MSTORE PUSH1 0x24 PUSH1 0x0 REVERT JUMPDEST POP DIV SWAP1 JUMP JUMPDEST DUP1 DUP3 ADD DUP1 DUP3 GT ISZERO PUSH2 0xB49 JUMPI PUSH2 0xB49 PUSH2 0x2A14 JUMP JUMPDEST PUSH4 0x4E487B71 PUSH1 0xE0 SHL PUSH1 0x0 MSTORE PUSH1 0x32 PUSH1 0x4 MSTORE PUSH1 0x24 PUSH1 0x0 REVERT JUMPDEST PUSH1 0x0 PUSH1 0x20 DUP3 DUP5 SUB SLT ISZERO PUSH2 0x2B91 JUMPI PUSH1 0x0 DUP1 REVERT JUMPDEST POP MLOAD SWAP2 SWAP1 POP JUMP JUMPDEST PUSH1 0x20 DUP1 DUP3 MSTORE PUSH1 0x13 SWAP1 DUP3 ADD MSTORE PUSH19 0x115512081D1C985B9CD9995C8819985A5B1959 PUSH1 0x6A SHL PUSH1 0x40 DUP3 ADD MSTORE PUSH1 0x60 ADD SWAP1 JUMP JUMPDEST DUP2 DUP2 SUB DUP2 DUP2 GT ISZERO PUSH2 0xB49 JUMPI PUSH2 0xB49 PUSH2 0x2A14 JUMP JUMPDEST DUP2 DUP2 SUB PUSH1 0x0 DUP4 SLT DUP1 ISZERO DUP4 DUP4 SGT AND DUP4 DUP4 SLT DUP3 AND OR ISZERO PUSH2 0xDBC JUMPI PUSH2 0xDBC PUSH2 0x2A14 JUMP JUMPDEST DUP1 DUP3 ADD DUP3 DUP2 SLT PUSH1 0x0 DUP4 SLT DUP1 ISZERO DUP3 AND DUP3 ISZERO DUP3 AND OR ISZERO PUSH2 0x2C18 JUMPI PUSH2 0x2C18 PUSH2 0x2A14 JUMP JUMPDEST POP POP SWAP3 SWAP2 POP POP JUMP JUMPDEST PUSH4 0x4E487B71 PUSH1 0xE0 SHL PUSH1 0x0 MSTORE PUSH1 0x31 PUSH1 0x4 MSTORE PUSH1 0x24 PUSH1 0x0 REVERT JUMPDEST PUSH1 0x0 PUSH1 0x20 DUP3 DUP5 SUB SLT ISZERO PUSH2 0x2C48 JUMPI PUSH1 0x0 DUP1 REVERT JUMPDEST DUP2 MLOAD PUSH2 0x283C DUP2 PUSH2 0x27DA JUMP JUMPDEST PUSH4 0x4E487B71 PUSH1 0xE0 SHL PUSH1 0x0 MSTORE PUSH1 0x41 PUSH1 0x4 MSTORE PUSH1 0x24 PUSH1 0x0 REVERT JUMPDEST PUSH1 0x40 MLOAD PUSH1 0x1F DUP3 ADD PUSH1 0x1F NOT AND DUP2 ADD PUSH8 0xFFFFFFFFFFFFFFFF DUP2 GT DUP3 DUP3 LT OR ISZERO PUSH2 0x2C92 JUMPI PUSH2 0x2C92 PUSH2 0x2C53 JUMP JUMPDEST PUSH1 0x40 MSTORE SWAP2 SWAP1 POP JUMP JUMPDEST PUSH1 0x0 PUSH1 0x20 DUP3 DUP5 SUB SLT ISZERO PUSH2 0x2CAC JUMPI PUSH1 0x0 DUP1 REVERT JUMPDEST DUP2 MLOAD PUSH8 0xFFFFFFFFFFFFFFFF DUP1 DUP3 GT ISZERO PUSH2 0x2CC4 JUMPI PUSH1 0x0 DUP1 REVERT JUMPDEST DUP2 DUP5 ADD SWAP2 POP DUP5 PUSH1 0x1F DUP4 ADD SLT PUSH2 0x2CD8 JUMPI PUSH1 0x0 DUP1 REVERT JUMPDEST DUP2 MLOAD DUP2 DUP2 GT ISZERO PUSH2 0x2CEA JUMPI PUSH2 0x2CEA PUSH2 0x2C53 JUMP JUMPDEST PUSH2 0x2CFD PUSH1 0x1F DUP3 ADD PUSH1 0x1F NOT AND PUSH1 0x20 ADD PUSH2 0x2C69 JUMP JUMPDEST SWAP2 POP DUP1 DUP3 MSTORE DUP6 PUSH1 0x20 DUP3 DUP6 ADD ADD GT ISZERO PUSH2 0x2D14 JUMPI PUSH1 0x0 DUP1 REVERT JUMPDEST PUSH2 0x2D25 DUP2 PUSH1 0x20 DUP5 ADD PUSH1 0x20 DUP7 ADD PUSH2 0x2929 JUMP JUMPDEST POP SWAP5 SWAP4 POP POP POP POP JUMP JUMPDEST PUSH1 0x0 PUSH1 0x20 DUP3 DUP5 SUB SLT ISZERO PUSH2 0x2D40 JUMPI PUSH1 0x0 DUP1 REVERT JUMPDEST DUP2 MLOAD PUSH2 0x283C DUP2 PUSH2 0x2888 JUMP JUMPDEST DUP6 DUP2 MSTORE DUP5 PUSH1 0x20 DUP3 ADD MSTORE PUSH1 0xA0 PUSH1 0x40 DUP3 ADD MSTORE PUSH1 0x0 PUSH2 0x2D6A PUSH1 0xA0 DUP4 ADD DUP7 PUSH2 0x28B3 JUMP JUMPDEST PUSH1 0x1 PUSH1 0x1 PUSH1 0xA0 SHL SUB SWAP5 SWAP1 SWAP5 AND PUSH1 0x60 DUP4 ADD MSTORE POP PUSH1 0x80 ADD MSTORE SWAP4 SWAP3 POP POP POP JUMP JUMPDEST DUP3 DUP2 MSTORE PUSH1 0x40 PUSH1 0x20 DUP3 ADD MSTORE PUSH1 0x0 PUSH2 0x2DA0 PUSH1 0x40 DUP4 ADD DUP5 PUSH2 0x28B3 JUMP JUMPDEST SWAP5 SWAP4 POP POP POP POP JUMP JUMPDEST PUSH1 0x0 PUSH1 0x20 DUP1 DUP4 DUP6 SUB SLT ISZERO PUSH2 0x2DBB JUMPI PUSH1 0x0 DUP1 REVERT JUMPDEST DUP3 MLOAD PUSH8 0xFFFFFFFFFFFFFFFF DUP1 DUP3 GT ISZERO PUSH2 0x2DD3 JUMPI PUSH1 0x0 DUP1 REVERT JUMPDEST DUP2 DUP6 ADD SWAP2 POP DUP6 PUSH1 0x1F DUP4 ADD SLT PUSH2 0x2DE7 JUMPI PUSH1 0x0 DUP1 REVERT JUMPDEST DUP2 MLOAD DUP2 DUP2 GT ISZERO PUSH2 0x2DF9 JUMPI PUSH2 0x2DF9 PUSH2 0x2C53 JUMP JUMPDEST DUP1 PUSH1 0x5 SHL SWAP2 POP PUSH2 0x2E0A DUP5 DUP4 ADD PUSH2 0x2C69 JUMP JUMPDEST DUP2 DUP2 MSTORE SWAP2 DUP4 ADD DUP5 ADD SWAP2 DUP5 DUP2 ADD SWAP1 DUP9 DUP5 GT ISZERO PUSH2 0x2E24 JUMPI PUSH1 0x0 DUP1 REVERT JUMPDEST SWAP4 DUP6 ADD SWAP4 JUMPDEST DUP4 DUP6 LT ISZERO PUSH2 0x2A08 JUMPI DUP5 MLOAD DUP3 MSTORE SWAP4 DUP6 ADD SWAP4 SWAP1 DUP6 ADD SWAP1 PUSH2 0x2E29 JUMP INVALID LOG2 PUSH5 0x6970667358 0x22 SLT KECCAK256 BALANCE EXTCODECOPY SWAP4 SLOAD JUMPDEST PUSH26 0x8ACFFE2FADFEC87E18B9CC3E8606DAD090441795C9AE4413DB43 PUSH5 0x736F6C6343 STOP ADDMOD NOT STOP CALLER PUSH1 0x80 PUSH1 0x40 MSTORE CALLVALUE DUP1 ISZERO PUSH2 0x10 JUMPI PUSH1 0x0 DUP1 REVERT JUMPDEST POP PUSH1 0x40 MLOAD PUSH2 0xC95 CODESIZE SUB DUP1 PUSH2 0xC95 DUP4 CODECOPY DUP2 ADD PUSH1 0x40 DUP2 SWAP1 MSTORE PUSH2 0x2F SWAP2 PUSH2 0x19D JUMP JUMPDEST CALLER DUP3 DUP3 PUSH1 0x3 PUSH2 0x3E DUP4 DUP3 PUSH2 0x28B JUMP JUMPDEST POP PUSH1 0x4 PUSH2 0x4B DUP3 DUP3 PUSH2 0x28B JUMP JUMPDEST POP POP POP PUSH1 0x1 PUSH1 0x1 PUSH1 0xA0 SHL SUB DUP2 AND PUSH2 0x7C JUMPI PUSH1 0x40 MLOAD PUSH4 0x1E4FBDF7 PUSH1 0xE0 SHL DUP2 MSTORE PUSH1 0x0 PUSH1 0x4 DUP3 ADD MSTORE PUSH1 0x24 ADD PUSH1 0x40 MLOAD DUP1 SWAP2 SUB SWAP1 REVERT JUMPDEST PUSH2 0x85 DUP2 PUSH2 0x8D JUMP JUMPDEST POP POP POP PUSH2 0x34A JUMP JUMPDEST PUSH1 0x5 DUP1 SLOAD PUSH1 0x1 PUSH1 0x1 PUSH1 0xA0 SHL SUB DUP4 DUP2 AND PUSH1 0x1 PUSH1 0x1 PUSH1 0xA0 SHL SUB NOT DUP4 AND DUP2 OR SWAP1 SWAP4 SSTORE PUSH1 0x40 MLOAD SWAP2 AND SWAP2 SWAP1 DUP3 SWAP1 PUSH32 0x8BE0079C531659141344CD1FD0A4F28419497F9722A3DAAFE3B4186F6B6457E0 SWAP1 PUSH1 0x0 SWAP1 LOG3 POP POP JUMP JUMPDEST PUSH4 0x4E487B71 PUSH1 0xE0 SHL PUSH1 0x0 MSTORE PUSH1 0x41 PUSH1 0x4 MSTORE PUSH1 0x24 PUSH1 0x0 REVERT JUMPDEST PUSH1 0x0 DUP3 PUSH1 0x1F DUP4 ADD SLT PUSH2 0x106 JUMPI PUSH1 0x0 DUP1 REVERT JUMPDEST DUP2 MLOAD PUSH1 0x1 PUSH1 0x1 PUSH1 0x40 SHL SUB DUP1 DUP3 GT ISZERO PUSH2 0x120 JUMPI PUSH2 0x120 PUSH2 0xDF JUMP JUMPDEST PUSH1 0x40 MLOAD PUSH1 0x1F DUP4 ADD PUSH1 0x1F NOT SWAP1 DUP2 AND PUSH1 0x3F ADD AND DUP2 ADD SWAP1 DUP3 DUP3 GT DUP2 DUP4 LT OR ISZERO PUSH2 0x148 JUMPI PUSH2 0x148 PUSH2 0xDF JUMP JUMPDEST DUP2 PUSH1 0x40 MSTORE DUP4 DUP2 MSTORE PUSH1 0x20 SWAP3 POP DUP7 PUSH1 0x20 DUP6 DUP9 ADD ADD GT ISZERO PUSH2 0x165 JUMPI PUSH1 0x0 DUP1 REVERT JUMPDEST PUSH1 0x0 SWAP2 POP JUMPDEST DUP4 DUP3 LT ISZERO PUSH2 0x187 JUMPI DUP6 DUP3 ADD DUP4 ADD MLOAD DUP2 DUP4 ADD DUP5 ADD MSTORE SWAP1 DUP3 ADD SWAP1 PUSH2 0x16A JUMP JUMPDEST PUSH1 0x0 PUSH1 0x20 DUP6 DUP4 ADD ADD MSTORE DUP1 SWAP5 POP POP POP POP POP SWAP3 SWAP2 POP POP JUMP JUMPDEST PUSH1 0x0 DUP1 PUSH1 0x40 DUP4 DUP6 SUB SLT ISZERO PUSH2 0x1B0 JUMPI PUSH1 0x0 DUP1 REVERT JUMPDEST DUP3 MLOAD PUSH1 0x1 PUSH1 0x1 PUSH1 0x40 SHL SUB DUP1 DUP3 GT ISZERO PUSH2 0x1C7 JUMPI PUSH1 0x0 DUP1 REVERT JUMPDEST PUSH2 0x1D3 DUP7 DUP4 DUP8 ADD PUSH2 0xF5 JUMP JUMPDEST SWAP4 POP PUSH1 0x20 DUP6 ADD MLOAD SWAP2 POP DUP1 DUP3 GT ISZERO PUSH2 0x1E9 JUMPI PUSH1 0x0 DUP1 REVERT JUMPDEST POP PUSH2 0x1F6 DUP6 DUP3 DUP7 ADD PUSH2 0xF5 JUMP JUMPDEST SWAP2 POP POP SWAP3 POP SWAP3 SWAP1 POP JUMP JUMPDEST PUSH1 0x1 DUP2 DUP2 SHR SWAP1 DUP3 AND DUP1 PUSH2 0x214 JUMPI PUSH1 0x7F DUP3 AND SWAP2 POP JUMPDEST PUSH1 0x20 DUP3 LT DUP2 SUB PUSH2 0x234 JUMPI PUSH4 0x4E487B71 PUSH1 0xE0 SHL PUSH1 0x0 MSTORE PUSH1 0x22 PUSH1 0x4 MSTORE PUSH1 0x24 PUSH1 0x0 REVERT JUMPDEST POP SWAP2 SWAP1 POP JUMP JUMPDEST PUSH1 0x1F DUP3 GT ISZERO PUSH2 0x286 JUMPI PUSH1 0x0 DUP2 PUSH1 0x0 MSTORE PUSH1 0x20 PUSH1 0x0 KECCAK256 PUSH1 0x1F DUP6 ADD PUSH1 0x5 SHR DUP2 ADD PUSH1 0x20 DUP7 LT ISZERO PUSH2 0x263 JUMPI POP DUP1 JUMPDEST PUSH1 0x1F DUP6 ADD PUSH1 0x5 SHR DUP3 ADD SWAP2 POP JUMPDEST DUP2 DUP2 LT ISZERO PUSH2 0x282 JUMPI DUP3 DUP2 SSTORE PUSH1 0x1 ADD PUSH2 0x26F JUMP JUMPDEST POP POP POP JUMPDEST POP POP POP JUMP JUMPDEST DUP2 MLOAD PUSH1 0x1 PUSH1 0x1 PUSH1 0x40 SHL SUB DUP2 GT ISZERO PUSH2 0x2A4 JUMPI PUSH2 0x2A4 PUSH2 0xDF JUMP JUMPDEST PUSH2 0x2B8 DUP2 PUSH2 0x2B2 DUP5 SLOAD PUSH2 0x200 JUMP JUMPDEST DUP5 PUSH2 0x23A JUMP JUMPDEST PUSH1 0x20 DUP1 PUSH1 0x1F DUP4 GT PUSH1 0x1 DUP2 EQ PUSH2 0x2ED JUMPI PUSH1 0x0 DUP5 ISZERO PUSH2 0x2D5 JUMPI POP DUP6 DUP4 ADD MLOAD JUMPDEST PUSH1 0x0 NOT PUSH1 0x3 DUP7 SWAP1 SHL SHR NOT AND PUSH1 0x1 DUP6 SWAP1 SHL OR DUP6 SSTORE PUSH2 0x282 JUMP JUMPDEST PUSH1 0x0 DUP6 DUP2 MSTORE PUSH1 0x20 DUP2 KECCAK256 PUSH1 0x1F NOT DUP7 AND SWAP2 JUMPDEST DUP3 DUP2 LT ISZERO PUSH2 0x31C JUMPI DUP9 DUP7 ADD MLOAD DUP3 SSTORE SWAP5 DUP5 ADD SWAP5 PUSH1 0x1 SWAP1 SWAP2 ADD SWAP1 DUP5 ADD PUSH2 0x2FD JUMP JUMPDEST POP DUP6 DUP3 LT ISZERO PUSH2 0x33A JUMPI DUP8 DUP6 ADD MLOAD PUSH1 0x0 NOT PUSH1 0x3 DUP9 SWAP1 SHL PUSH1 0xF8 AND SHR NOT AND DUP2 SSTORE JUMPDEST POP POP POP POP POP PUSH1 0x1 SWAP1 DUP2 SHL ADD SWAP1 SSTORE POP JUMP JUMPDEST PUSH2 0x93C DUP1 PUSH2 0x359 PUSH1 0x0 CODECOPY PUSH1 0x0 RETURN INVALID PUSH1 0x80 PUSH1 0x40 MSTORE CALLVALUE DUP1 ISZERO PUSH2 0x10 JUMPI PUSH1 0x0 DUP1 REVERT JUMPDEST POP PUSH1 0x4 CALLDATASIZE LT PUSH2 0xEA JUMPI PUSH1 0x0 CALLDATALOAD PUSH1 0xE0 SHR DUP1 PUSH4 0x715018A6 GT PUSH2 0x8C JUMPI DUP1 PUSH4 0x9DC29FAC GT PUSH2 0x66 JUMPI DUP1 PUSH4 0x9DC29FAC EQ PUSH2 0x1CD JUMPI DUP1 PUSH4 0xA9059CBB EQ PUSH2 0x1E0 JUMPI DUP1 PUSH4 0xDD62ED3E EQ PUSH2 0x1F3 JUMPI DUP1 PUSH4 0xF2FDE38B EQ PUSH2 0x22C JUMPI PUSH1 0x0 DUP1 REVERT JUMPDEST DUP1 PUSH4 0x715018A6 EQ PUSH2 0x1A2 JUMPI DUP1 PUSH4 0x8DA5CB5B EQ PUSH2 0x1AA JUMPI DUP1 PUSH4 0x95D89B41 EQ PUSH2 0x1C5 JUMPI PUSH1 0x0 DUP1 REVERT JUMPDEST DUP1 PUSH4 0x23B872DD GT PUSH2 0xC8 JUMPI DUP1 PUSH4 0x23B872DD EQ PUSH2 0x142 JUMPI DUP1 PUSH4 0x313CE567 EQ PUSH2 0x155 JUMPI DUP1 PUSH4 0x40C10F19 EQ PUSH2 0x164 JUMPI DUP1 PUSH4 0x70A08231 EQ PUSH2 0x179 JUMPI PUSH1 0x0 DUP1 REVERT JUMPDEST DUP1 PUSH4 0x6FDDE03 EQ PUSH2 0xEF JUMPI DUP1 PUSH4 0x95EA7B3 EQ PUSH2 0x10D JUMPI DUP1 PUSH4 0x18160DDD EQ PUSH2 0x130 JUMPI JUMPDEST PUSH1 0x0 DUP1 REVERT JUMPDEST PUSH2 0xF7 PUSH2 0x23F JUMP JUMPDEST PUSH1 0x40 MLOAD PUSH2 0x104 SWAP2 SWAP1 PUSH2 0x785 JUMP JUMPDEST PUSH1 0x40 MLOAD DUP1 SWAP2 SUB SWAP1 RETURN JUMPDEST PUSH2 0x120 PUSH2 0x11B CALLDATASIZE PUSH1 0x4 PUSH2 0x7F0 JUMP JUMPDEST PUSH2 0x2D1 JUMP JUMPDEST PUSH1 0x40 MLOAD SWAP1 ISZERO ISZERO DUP2 MSTORE PUSH1 0x20 ADD PUSH2 0x104 JUMP JUMPDEST PUSH1 0x2 SLOAD JUMPDEST PUSH1 0x40 MLOAD SWAP1 DUP2 MSTORE PUSH1 0x20 ADD PUSH2 0x104 JUMP JUMPDEST PUSH2 0x120 PUSH2 0x150 CALLDATASIZE PUSH1 0x4 PUSH2 0x81A JUMP JUMPDEST PUSH2 0x2EB JUMP JUMPDEST PUSH1 0x40 MLOAD PUSH1 0x0 DUP2 MSTORE PUSH1 0x20 ADD PUSH2 0x104 JUMP JUMPDEST PUSH2 0x177 PUSH2 0x172 CALLDATASIZE PUSH1 0x4 PUSH2 0x7F0 JUMP JUMPDEST PUSH2 0x30F JUMP JUMPDEST STOP JUMPDEST PUSH2 0x134 PUSH2 0x187 CALLDATASIZE PUSH1 0x4 PUSH2 0x856 JUMP JUMPDEST PUSH1 0x1 PUSH1 0x1 PUSH1 0xA0 SHL SUB AND PUSH1 0x0 SWAP1 DUP2 MSTORE PUSH1 0x20 DUP2 SWAP1 MSTORE PUSH1 0x40 SWAP1 KECCAK256 SLOAD SWAP1 JUMP JUMPDEST PUSH2 0x177 PUSH2 0x325 JUMP JUMPDEST PUSH1 0x5 SLOAD PUSH1 0x40 MLOAD PUSH1 0x1 PUSH1 0x1 PUSH1 0xA0 SHL SUB SWAP1 SWAP2 AND DUP2 MSTORE PUSH1 0x20 ADD PUSH2 0x104 JUMP JUMPDEST PUSH2 0xF7 PUSH2 0x339 JUMP JUMPDEST PUSH2 0x177 PUSH2 0x1DB CALLDATASIZE PUSH1 0x4 PUSH2 0x7F0 JUMP JUMPDEST PUSH2 0x348 JUMP JUMPDEST PUSH2 0x120 PUSH2 0x1EE CALLDATASIZE PUSH1 0x4 PUSH2 0x7F0 JUMP JUMPDEST PUSH2 0x35A JUMP JUMPDEST PUSH2 0x134 PUSH2 0x201 CALLDATASIZE PUSH1 0x4 PUSH2 0x878 JUMP JUMPDEST PUSH1 0x1 PUSH1 0x1 PUSH1 0xA0 SHL SUB SWAP2 DUP3 AND PUSH1 0x0 SWAP1 DUP2 MSTORE PUSH1 0x1 PUSH1 0x20 SWAP1 DUP2 MSTORE PUSH1 0x40 DUP1 DUP4 KECCAK256 SWAP4 SWAP1 SWAP5 AND DUP3 MSTORE SWAP2 SWAP1 SWAP2 MSTORE KECCAK256 SLOAD SWAP1 JUMP JUMPDEST PUSH2 0x177 PUSH2 0x23A CALLDATASIZE PUSH1 0x4 PUSH2 0x856 JUMP JUMPDEST PUSH2 0x368 JUMP JUMPDEST PUSH1 0x60 PUSH1 0x3 DUP1 SLOAD PUSH2 0x24E SWAP1 PUSH2 0x8AB JUMP JUMPDEST DUP1 PUSH1 0x1F ADD PUSH1 0x20 DUP1 SWAP2 DIV MUL PUSH1 0x20 ADD PUSH1 0x40 MLOAD SWAP1 DUP2 ADD PUSH1 0x40 MSTORE DUP1 SWAP3 SWAP2 SWAP1 DUP2 DUP2 MSTORE PUSH1 0x20 ADD DUP3 DUP1 SLOAD PUSH2 0x27A SWAP1 PUSH2 0x8AB JUMP JUMPDEST DUP1 ISZERO PUSH2 0x2C7 JUMPI DUP1 PUSH1 0x1F LT PUSH2 0x29C JUMPI PUSH2 0x100 DUP1 DUP4 SLOAD DIV MUL DUP4 MSTORE SWAP2 PUSH1 0x20 ADD SWAP2 PUSH2 0x2C7 JUMP JUMPDEST DUP3 ADD SWAP2 SWAP1 PUSH1 0x0 MSTORE PUSH1 0x20 PUSH1 0x0 KECCAK256 SWAP1 JUMPDEST DUP2 SLOAD DUP2 MSTORE SWAP1 PUSH1 0x1 ADD SWAP1 PUSH1 0x20 ADD DUP1 DUP4 GT PUSH2 0x2AA JUMPI DUP3 SWAP1 SUB PUSH1 0x1F AND DUP3 ADD SWAP2 JUMPDEST POP POP POP POP POP SWAP1 POP SWAP1 JUMP JUMPDEST PUSH1 0x0 CALLER PUSH2 0x2DF DUP2 DUP6 DUP6 PUSH2 0x3AB JUMP JUMPDEST PUSH1 0x1 SWAP2 POP POP JUMPDEST SWAP3 SWAP2 POP POP JUMP JUMPDEST PUSH1 0x0 CALLER PUSH2 0x2F9 DUP6 DUP3 DUP6 PUSH2 0x3BD JUMP JUMPDEST PUSH2 0x304 DUP6 DUP6 DUP6 PUSH2 0x43C JUMP JUMPDEST POP PUSH1 0x1 SWAP5 SWAP4 POP POP POP POP JUMP JUMPDEST PUSH2 0x317 PUSH2 0x49B JUMP JUMPDEST PUSH2 0x321 DUP3 DUP3 PUSH2 0x4C8 JUMP JUMPDEST POP POP JUMP JUMPDEST PUSH2 0x32D PUSH2 0x49B JUMP JUMPDEST PUSH2 0x337 PUSH1 0x0 PUSH2 0x4FE JUMP JUMPDEST JUMP JUMPDEST PUSH1 0x60 PUSH1 0x4 DUP1 SLOAD PUSH2 0x24E SWAP1 PUSH2 0x8AB JUMP JUMPDEST PUSH2 0x350 PUSH2 0x49B JUMP JUMPDEST PUSH2 0x321 DUP3 DUP3 PUSH2 0x550 JUMP JUMPDEST PUSH1 0x0 CALLER PUSH2 0x2DF DUP2 DUP6 DUP6 PUSH2 0x43C JUMP JUMPDEST PUSH2 0x370 PUSH2 0x49B JUMP JUMPDEST PUSH1 0x1 PUSH1 0x1 PUSH1 0xA0 SHL SUB DUP2 AND PUSH2 0x39F JUMPI PUSH1 0x40 MLOAD PUSH4 0x1E4FBDF7 PUSH1 0xE0 SHL DUP2 MSTORE PUSH1 0x0 PUSH1 0x4 DUP3 ADD MSTORE PUSH1 0x24 ADD JUMPDEST PUSH1 0x40 MLOAD DUP1 SWAP2 SUB SWAP1 REVERT JUMPDEST PUSH2 0x3A8 DUP2 PUSH2 0x4FE JUMP JUMPDEST POP JUMP JUMPDEST PUSH2 0x3B8 DUP4 DUP4 DUP4 PUSH1 0x1 PUSH2 0x586 JUMP JUMPDEST POP POP POP JUMP JUMPDEST PUSH1 0x1 PUSH1 0x1 PUSH1 0xA0 SHL SUB DUP4 DUP2 AND PUSH1 0x0 SWAP1 DUP2 MSTORE PUSH1 0x1 PUSH1 0x20 SWAP1 DUP2 MSTORE PUSH1 0x40 DUP1 DUP4 KECCAK256 SWAP4 DUP7 AND DUP4 MSTORE SWAP3 SWAP1 MSTORE KECCAK256 SLOAD PUSH1 0x0 NOT DUP2 LT ISZERO PUSH2 0x436 JUMPI DUP2 DUP2 LT ISZERO PUSH2 0x427 JUMPI PUSH1 0x40 MLOAD PUSH4 0x7DC7A0D9 PUSH1 0xE1 SHL DUP2 MSTORE PUSH1 0x1 PUSH1 0x1 PUSH1 0xA0 SHL SUB DUP5 AND PUSH1 0x4 DUP3 ADD MSTORE PUSH1 0x24 DUP2 ADD DUP3 SWAP1 MSTORE PUSH1 0x44 DUP2 ADD DUP4 SWAP1 MSTORE PUSH1 0x64 ADD PUSH2 0x396 JUMP JUMPDEST PUSH2 0x436 DUP5 DUP5 DUP5 DUP5 SUB PUSH1 0x0 PUSH2 0x586 JUMP JUMPDEST POP POP POP POP JUMP JUMPDEST PUSH1 0x1 PUSH1 0x1 PUSH1 0xA0 SHL SUB DUP4 AND PUSH2 0x466 JUMPI PUSH1 0x40 MLOAD PUSH4 0x4B637E8F PUSH1 0xE1 SHL DUP2 MSTORE PUSH1 0x0 PUSH1 0x4 DUP3 ADD MSTORE PUSH1 0x24 ADD PUSH2 0x396 JUMP JUMPDEST PUSH1 0x1 PUSH1 0x1 PUSH1 0xA0 SHL SUB DUP3 AND PUSH2 0x490 JUMPI PUSH1 0x40 MLOAD PUSH4 0xEC442F05 PUSH1 0xE0 SHL DUP2 MSTORE PUSH1 0x0 PUSH1 0x4 DUP3 ADD MSTORE PUSH1 0x24 ADD PUSH2 0x396 JUMP JUMPDEST PUSH2 0x3B8 DUP4 DUP4 DUP4 PUSH2 0x65B JUMP JUMPDEST PUSH1 0x5 SLOAD PUSH1 0x1 PUSH1 0x1 PUSH1 0xA0 SHL SUB AND CALLER EQ PUSH2 0x337 JUMPI PUSH1 0x40 MLOAD PUSH4 0x118CDAA7 PUSH1 0xE0 SHL DUP2 MSTORE CALLER PUSH1 0x4 DUP3 ADD MSTORE PUSH1 0x24 ADD PUSH2 0x396 JUMP JUMPDEST PUSH1 0x1 PUSH1 0x1 PUSH1 0xA0 SHL SUB DUP3 AND PUSH2 0x4F2 JUMPI PUSH1 0x40 MLOAD PUSH4 0xEC442F05 PUSH1 0xE0 SHL DUP2 MSTORE PUSH1 0x0 PUSH1 0x4 DUP3 ADD MSTORE PUSH1 0x24 ADD PUSH2 0x396 JUMP JUMPDEST PUSH2 0x321 PUSH1 0x0 DUP4 DUP4 PUSH2 0x65B JUMP JUMPDEST PUSH1 0x5 DUP1 SLOAD PUSH1 0x1 PUSH1 0x1 PUSH1 0xA0 SHL SUB DUP4 DUP2 AND PUSH1 0x1 PUSH1 0x1 PUSH1 0xA0 SHL SUB NOT DUP4 AND DUP2 OR SWAP1 SWAP4 SSTORE PUSH1 0x40 MLOAD SWAP2 AND SWAP2 SWAP1 DUP3 SWAP1 PUSH32 0x8BE0079C531659141344CD1FD0A4F28419497F9722A3DAAFE3B4186F6B6457E0 SWAP1 PUSH1 0x0 SWAP1 LOG3 POP POP JUMP JUMPDEST PUSH1 0x1 PUSH1 0x1 PUSH1 0xA0 SHL SUB DUP3 AND PUSH2 0x57A JUMPI PUSH1 0x40 MLOAD PUSH4 0x4B637E8F PUSH1 0xE1 SHL DUP2 MSTORE PUSH1 0x0 PUSH1 0x4 DUP3 ADD MSTORE PUSH1 0x24 ADD PUSH2 0x396 JUMP JUMPDEST PUSH2 0x321 DUP3 PUSH1 0x0 DUP4 PUSH2 0x65B JUMP JUMPDEST PUSH1 0x1 PUSH1 0x1 PUSH1 0xA0 SHL SUB DUP5 AND PUSH2 0x5B0 JUMPI PUSH1 0x40 MLOAD PUSH4 0xE602DF05 PUSH1 0xE0 SHL DUP2 MSTORE PUSH1 0x0 PUSH1 0x4 DUP3 ADD MSTORE PUSH1 0x24 ADD PUSH2 0x396 JUMP JUMPDEST PUSH1 0x1 PUSH1 0x1 PUSH1 0xA0 SHL SUB DUP4 AND PUSH2 0x5DA JUMPI PUSH1 0x40 MLOAD PUSH4 0x4A1406B1 PUSH1 0xE1 SHL DUP2 MSTORE PUSH1 0x0 PUSH1 0x4 DUP3 ADD MSTORE PUSH1 0x24 ADD PUSH2 0x396 JUMP JUMPDEST PUSH1 0x1 PUSH1 0x1 PUSH1 0xA0 SHL SUB DUP1 DUP6 AND PUSH1 0x0 SWAP1 DUP2 MSTORE PUSH1 0x1 PUSH1 0x20 SWAP1 DUP2 MSTORE PUSH1 0x40 DUP1 DUP4 KECCAK256 SWAP4 DUP8 AND DUP4 MSTORE SWAP3 SWAP1 MSTORE KECCAK256 DUP3 SWAP1 SSTORE DUP1 ISZERO PUSH2 0x436 JUMPI DUP3 PUSH1 0x1 PUSH1 0x1 PUSH1 0xA0 SHL SUB AND DUP5 PUSH1 0x1 PUSH1 0x1 PUSH1 0xA0 SHL SUB AND PUSH32 0x8C5BE1E5EBEC7D5BD14F71427D1E84F3DD0314C0F7B2291E5B200AC8C7C3B925 DUP5 PUSH1 0x40 MLOAD PUSH2 0x64D SWAP2 DUP2 MSTORE PUSH1 0x20 ADD SWAP1 JUMP JUMPDEST PUSH1 0x40 MLOAD DUP1 SWAP2 SUB SWAP1 LOG3 POP POP POP POP JUMP JUMPDEST PUSH1 0x1 PUSH1 0x1 PUSH1 0xA0 SHL SUB DUP4 AND PUSH2 0x686 JUMPI DUP1 PUSH1 0x2 PUSH1 0x0 DUP3 DUP3 SLOAD PUSH2 0x67B SWAP2 SWAP1 PUSH2 0x8E5 JUMP JUMPDEST SWAP1 SWAP2 SSTORE POP PUSH2 0x6F8 SWAP1 POP JUMP JUMPDEST PUSH1 0x1 PUSH1 0x1 PUSH1 0xA0 SHL SUB DUP4 AND PUSH1 0x0 SWAP1 DUP2 MSTORE PUSH1 0x20 DUP2 SWAP1 MSTORE PUSH1 0x40 SWAP1 KECCAK256 SLOAD DUP2 DUP2 LT ISZERO PUSH2 0x6D9 JUMPI PUSH1 0x40 MLOAD PUSH4 0x391434E3 PUSH1 0xE2 SHL DUP2 MSTORE PUSH1 0x1 PUSH1 0x1 PUSH1 0xA0 SHL SUB DUP6 AND PUSH1 0x4 DUP3 ADD MSTORE PUSH1 0x24 DUP2 ADD DUP3 SWAP1 MSTORE PUSH1 0x44 DUP2 ADD DUP4 SWAP1 MSTORE PUSH1 0x64 ADD PUSH2 0x396 JUMP JUMPDEST PUSH1 0x1 PUSH1 0x1 PUSH1 0xA0 SHL SUB DUP5 AND PUSH1 0x0 SWAP1 DUP2 MSTORE PUSH1 0x20 DUP2 SWAP1 MSTORE PUSH1 0x40 SWAP1 KECCAK256 SWAP1 DUP3 SWAP1 SUB SWAP1 SSTORE JUMPDEST PUSH1 0x1 PUSH1 0x1 PUSH1 0xA0 SHL SUB DUP3 AND PUSH2 0x714 JUMPI PUSH1 0x2 DUP1 SLOAD DUP3 SWAP1 SUB SWAP1 SSTORE PUSH2 0x733 JUMP JUMPDEST PUSH1 0x1 PUSH1 0x1 PUSH1 0xA0 SHL SUB DUP3 AND PUSH1 0x0 SWAP1 DUP2 MSTORE PUSH1 0x20 DUP2 SWAP1 MSTORE PUSH1 0x40 SWAP1 KECCAK256 DUP1 SLOAD DUP3 ADD SWAP1 SSTORE JUMPDEST DUP2 PUSH1 0x1 PUSH1 0x1 PUSH1 0xA0 SHL SUB AND DUP4 PUSH1 0x1 PUSH1 0x1 PUSH1 0xA0 SHL SUB AND PUSH32 0xDDF252AD1BE2C89B69C2B068FC378DAA952BA7F163C4A11628F55A4DF523B3EF DUP4 PUSH1 0x40 MLOAD PUSH2 0x778 SWAP2 DUP2 MSTORE PUSH1 0x20 ADD SWAP1 JUMP JUMPDEST PUSH1 0x40 MLOAD DUP1 SWAP2 SUB SWAP1 LOG3 POP POP POP JUMP JUMPDEST PUSH1 0x0 PUSH1 0x20 DUP1 DUP4 MSTORE DUP4 MLOAD DUP1 PUSH1 0x20 DUP6 ADD MSTORE PUSH1 0x0 JUMPDEST DUP2 DUP2 LT ISZERO PUSH2 0x7B3 JUMPI DUP6 DUP2 ADD DUP4 ADD MLOAD DUP6 DUP3 ADD PUSH1 0x40 ADD MSTORE DUP3 ADD PUSH2 0x797 JUMP JUMPDEST POP PUSH1 0x0 PUSH1 0x40 DUP3 DUP7 ADD ADD MSTORE PUSH1 0x40 PUSH1 0x1F NOT PUSH1 0x1F DUP4 ADD AND DUP6 ADD ADD SWAP3 POP POP POP SWAP3 SWAP2 POP POP JUMP JUMPDEST DUP1 CALLDATALOAD PUSH1 0x1 PUSH1 0x1 PUSH1 0xA0 SHL SUB DUP2 AND DUP2 EQ PUSH2 0x7EB JUMPI PUSH1 0x0 DUP1 REVERT JUMPDEST SWAP2 SWAP1 POP JUMP JUMPDEST PUSH1 0x0 DUP1 PUSH1 0x40 DUP4 DUP6 SUB SLT ISZERO PUSH2 0x803 JUMPI PUSH1 0x0 DUP1 REVERT JUMPDEST PUSH2 0x80C DUP4 PUSH2 0x7D4 JUMP JUMPDEST SWAP5 PUSH1 0x20 SWAP4 SWAP1 SWAP4 ADD CALLDATALOAD SWAP4 POP POP POP JUMP JUMPDEST PUSH1 0x0 DUP1 PUSH1 0x0 PUSH1 0x60 DUP5 DUP7 SUB SLT ISZERO PUSH2 0x82F JUMPI PUSH1 0x0 DUP1 REVERT JUMPDEST PUSH2 0x838 DUP5 PUSH2 0x7D4 JUMP JUMPDEST SWAP3 POP PUSH2 0x846 PUSH1 0x20 DUP6 ADD PUSH2 0x7D4 JUMP JUMPDEST SWAP2 POP PUSH1 0x40 DUP5 ADD CALLDATALOAD SWAP1 POP SWAP3 POP SWAP3 POP SWAP3 JUMP JUMPDEST PUSH1 0x0 PUSH1 0x20 DUP3 DUP5 SUB SLT ISZERO PUSH2 0x868 JUMPI PUSH1 0x0 DUP1 REVERT JUMPDEST PUSH2 0x871 DUP3 PUSH2 0x7D4 JUMP JUMPDEST SWAP4 SWAP3 POP POP POP JUMP JUMPDEST PUSH1 0x0 DUP1 PUSH1 0x40 DUP4 DUP6 SUB SLT ISZERO PUSH2 0x88B JUMPI PUSH1 0x0 DUP1 REVERT JUMPDEST PUSH2 0x894 DUP4 PUSH2 0x7D4 JUMP JUMPDEST SWAP2 POP PUSH2 0x8A2 PUSH1 0x20 DUP5 ADD PUSH2 0x7D4 JUMP JUMPDEST SWAP1 POP SWAP3 POP SWAP3 SWAP1 POP JUMP JUMPDEST PUSH1 0x1 DUP2 DUP2 SHR SWAP1 DUP3 AND DUP1 PUSH2 0x8BF JUMPI PUSH1 0x7F DUP3 AND SWAP2 POP JUMPDEST PUSH1 0x20 DUP3 LT DUP2 SUB PUSH2 0x8DF JUMPI PUSH4 0x4E487B71 PUSH1 0xE0 SHL PUSH1 0x0 MSTORE PUSH1 0x22 PUSH1 0x4 MSTORE PUSH1 0x24 PUSH1 0x0 REVERT JUMPDEST POP SWAP2 SWAP1 POP JUMP JUMPDEST DUP1 DUP3 ADD DUP1 DUP3 GT ISZERO PUSH2 0x2E5 JUMPI PUSH4 0x4E487B71 PUSH1 0xE0 SHL PUSH1 0x0 MSTORE PUSH1 0x11 PUSH1 0x4 MSTORE PUSH1 0x24 PUSH1 0x0 REVERT INVALID LOG2 PUSH5 0x6970667358 0x22 SLT KECCAK256 0xA7 CHAINID 0xE9 CREATE2 KECCAK256 RETURN 0xB4 DELEGATECALL EXTCODESIZE 0xF 0x2B PUSH7 0xC519FCBC1BCDB5 PUSH3 0x32B3B9 CALLCODE LOG2 PUSH16 0x7DB33305BD7664736F6C634300081900 CALLER LOG2 PUSH5 0x6970667358 0x22 SLT KECCAK256 0xB2 KECCAK256 SWAP7 PUSH16 0x2BBE1517226979C0BD2BBE000B9B43C8 PUSH2 0xB768 BLOBBASEFEE 0xF8 PUSH13 0x4A7C4D16440964736F6C634300 ADDMOD NOT STOP CALLER "},"methodIdentifiers":{"FUND_BYTECODE()":"8487d320"}}}}}