{
  "_format": "hh-sol-artifact-1",
  "contractName": "LairryFinkFund",
  "sourceName": "contracts/LairryFink.sol",
  "abi": [
    {
      "inputs": [
        {
          "internalType": "address",
          "name": "_wethAddress",
          "type": "address"
        },
        {
          "internalType": "string",
          "name": "_shareTokenName",
          "type": "string"
        },
        {
          "internalType": "string",
          "name": "_shareTokenSymbol",
          "type": "string"
        },
        {
          "internalType": "address",
          "name": "_uniswapV2Router02Address",
          "type": "address"
        },
        {
          "internalType": "uint256",
          "name": "_deadlineOffset",
          "type": "uint256"
        },
        {
          "internalType": "bool",
          "name": "_depositsEnabled",
          "type": "bool"
        },
        {
          "internalType": "uint256",
          "name": "_minimumDeposit",
          "type": "uint256"
        },
        {
          "internalType": "uint256",
          "name": "_slippageTolerance",
          "type": "uint256"
        },
        {
          "internalType": "uint256",
          "name": "_depositFee",
          "type": "uint256"
        },
        {
          "internalType": "uint256",
          "name": "_withdrawalFee",
          "type": "uint256"
        },
        {
          "internalType": "uint256",
          "name": "_lockPeriod",
          "type": "uint256"
        }
      ],
      "stateMutability": "nonpayable",
      "type": "constructor"
    },
    {
      "inputs": [
        {
          "internalType": "address",
          "name": "owner",
          "type": "address"
        }
      ],
      "name": "OwnableInvalidOwner",
      "type": "error"
    },
    {
      "inputs": [
        {
          "internalType": "address",
          "name": "account",
          "type": "address"
        }
      ],
      "name": "OwnableUnauthorizedAccount",
      "type": "error"
    },
    {
      "anonymous": false,
      "inputs": [
        {
          "indexed": true,
          "internalType": "address",
          "name": "tokenAddress",
          "type": "address"
        },
        {
          "indexed": false,
          "internalType": "uint256",
          "name": "newAllocation",
          "type": "uint256"
        }
      ],
      "name": "Allocation",
      "type": "event"
    },
    {
      "anonymous": false,
      "inputs": [
        {
          "indexed": true,
          "internalType": "address",
          "name": "depositor",
          "type": "address"
        },
        {
          "indexed": false,
          "internalType": "uint256",
          "name": "shares",
          "type": "uint256"
        },
        {
          "indexed": false,
          "internalType": "uint256",
          "name": "shareValue",
          "type": "uint256"
        }
      ],
      "name": "Deposit",
      "type": "event"
    },
    {
      "anonymous": false,
      "inputs": [
        {
          "indexed": false,
          "internalType": "uint256",
          "name": "newLockPeriod",
          "type": "uint256"
        }
      ],
      "name": "LockPeriodUpdated",
      "type": "event"
    },
    {
      "anonymous": false,
      "inputs": [
        {
          "indexed": true,
          "internalType": "address",
          "name": "previousOwner",
          "type": "address"
        },
        {
          "indexed": true,
          "internalType": "address",
          "name": "newOwner",
          "type": "address"
        }
      ],
      "name": "OwnershipTransferred",
      "type": "event"
    },
    {
      "anonymous": false,
      "inputs": [
        {
          "indexed": true,
          "internalType": "address",
          "name": "user",
          "type": "address"
        },
        {
          "indexed": false,
          "internalType": "uint256",
          "name": "shares",
          "type": "uint256"
        },
        {
          "indexed": false,
          "internalType": "uint256",
          "name": "unlockTime",
          "type": "uint256"
        }
      ],
      "name": "SharesLocked",
      "type": "event"
    },
    {
      "anonymous": false,
      "inputs": [
        {
          "indexed": true,
          "internalType": "address",
          "name": "user",
          "type": "address"
        },
        {
          "indexed": false,
          "internalType": "uint256",
          "name": "shares",
          "type": "uint256"
        }
      ],
      "name": "SharesUnlocked",
      "type": "event"
    },
    {
      "anonymous": false,
      "inputs": [
        {
          "indexed": true,
          "internalType": "address",
          "name": "shareholder",
          "type": "address"
        },
        {
          "indexed": false,
          "internalType": "address",
          "name": "to",
          "type": "address"
        },
        {
          "indexed": false,
          "internalType": "uint256",
          "name": "shares",
          "type": "uint256"
        },
        {
          "indexed": false,
          "internalType": "uint256",
          "name": "shareValue",
          "type": "uint256"
        }
      ],
      "name": "Withdraw",
      "type": "event"
    },
    {
      "stateMutability": "payable",
      "type": "fallback"
    },
    {
      "inputs": [],
      "name": "deposit",
      "outputs": [],
      "stateMutability": "payable",
      "type": "function"
    },
    {
      "inputs": [],
      "name": "getCreationDepositFee",
      "outputs": [
        {
          "internalType": "uint256",
          "name": "",
          "type": "uint256"
        }
      ],
      "stateMutability": "view",
      "type": "function"
    },
    {
      "inputs": [],
      "name": "getDeadlineOffset",
      "outputs": [
        {
          "internalType": "uint256",
          "name": "",
          "type": "uint256"
        }
      ],
      "stateMutability": "view",
      "type": "function"
    },
    {
      "inputs": [],
      "name": "getDepositFee",
      "outputs": [
        {
          "internalType": "uint256",
          "name": "",
          "type": "uint256"
        }
      ],
      "stateMutability": "view",
      "type": "function"
    },
    {
      "inputs": [],
      "name": "getDepositFeeBalance",
      "outputs": [
        {
          "internalType": "uint256",
          "name": "",
          "type": "uint256"
        }
      ],
      "stateMutability": "view",
      "type": "function"
    },
    {
      "inputs": [],
      "name": "getDepositsEnabled",
      "outputs": [
        {
          "internalType": "bool",
          "name": "",
          "type": "bool"
        }
      ],
      "stateMutability": "view",
      "type": "function"
    },
    {
      "inputs": [],
      "name": "getLockPeriod",
      "outputs": [
        {
          "internalType": "uint256",
          "name": "",
          "type": "uint256"
        }
      ],
      "stateMutability": "view",
      "type": "function"
    },
    {
      "inputs": [],
      "name": "getMinimumDeposit",
      "outputs": [
        {
          "internalType": "uint256",
          "name": "",
          "type": "uint256"
        }
      ],
      "stateMutability": "view",
      "type": "function"
    },
    {
      "inputs": [],
      "name": "getNetAssetValue",
      "outputs": [
        {
          "internalType": "uint256",
          "name": "",
          "type": "uint256"
        }
      ],
      "stateMutability": "view",
      "type": "function"
    },
    {
      "inputs": [],
      "name": "getPortfolio",
      "outputs": [
        {
          "internalType": "address[]",
          "name": "",
          "type": "address[]"
        },
        {
          "internalType": "uint256[]",
          "name": "",
          "type": "uint256[]"
        },
        {
          "internalType": "string[]",
          "name": "",
          "type": "string[]"
        },
        {
          "internalType": "uint256[]",
          "name": "",
          "type": "uint256[]"
        },
        {
          "internalType": "uint256[]",
          "name": "",
          "type": "uint256[]"
        }
      ],
      "stateMutability": "view",
      "type": "function"
    },
    {
      "inputs": [],
      "name": "getReserveTokenAddress",
      "outputs": [
        {
          "internalType": "address",
          "name": "",
          "type": "address"
        }
      ],
      "stateMutability": "view",
      "type": "function"
    },
    {
      "inputs": [],
      "name": "getReserveTokenBalance",
      "outputs": [
        {
          "internalType": "uint256",
          "name": "",
          "type": "uint256"
        }
      ],
      "stateMutability": "view",
      "type": "function"
    },
    {
      "inputs": [
        {
          "internalType": "address",
          "name": "shareholder",
          "type": "address"
        }
      ],
      "name": "getShareBalance",
      "outputs": [
        {
          "internalType": "uint256",
          "name": "",
          "type": "uint256"
        }
      ],
      "stateMutability": "view",
      "type": "function"
    },
    {
      "inputs": [
        {
          "internalType": "address",
          "name": "user",
          "type": "address"
        }
      ],
      "name": "getShareLocks",
      "outputs": [
        {
          "components": [
            {
              "internalType": "uint256",
              "name": "shares",
              "type": "uint256"
            },
            {
              "internalType": "uint256",
              "name": "unlockTime",
              "type": "uint256"
            }
          ],
          "internalType": "struct LairryFinkFund.ShareLock[]",
          "name": "",
          "type": "tuple[]"
        }
      ],
      "stateMutability": "view",
      "type": "function"
    },
    {
      "inputs": [],
      "name": "getSharePrice",
      "outputs": [
        {
          "internalType": "uint256",
          "name": "",
          "type": "uint256"
        }
      ],
      "stateMutability": "view",
      "type": "function"
    },
    {
      "inputs": [],
      "name": "getShareTokenAddress",
      "outputs": [
        {
          "internalType": "address",
          "name": "",
          "type": "address"
        }
      ],
      "stateMutability": "view",
      "type": "function"
    },
    {
      "inputs": [],
      "name": "getSharesOutstanding",
      "outputs": [
        {
          "internalType": "uint256",
          "name": "",
          "type": "uint256"
        }
      ],
      "stateMutability": "view",
      "type": "function"
    },
    {
      "inputs": [],
      "name": "getSlippageTolerance",
      "outputs": [
        {
          "internalType": "uint256",
          "name": "",
          "type": "uint256"
        }
      ],
      "stateMutability": "view",
      "type": "function"
    },
    {
      "inputs": [],
      "name": "getTotalAllocation",
      "outputs": [
        {
          "internalType": "uint256",
          "name": "",
          "type": "uint256"
        }
      ],
      "stateMutability": "view",
      "type": "function"
    },
    {
      "inputs": [
        {
          "internalType": "address",
          "name": "user",
          "type": "address"
        }
      ],
      "name": "getTotalShares",
      "outputs": [
        {
          "internalType": "uint256",
          "name": "",
          "type": "uint256"
        }
      ],
      "stateMutability": "view",
      "type": "function"
    },
    {
      "inputs": [
        {
          "internalType": "address",
          "name": "user",
          "type": "address"
        }
      ],
      "name": "getUnlockedShares",
      "outputs": [
        {
          "internalType": "uint256",
          "name": "",
          "type": "uint256"
        }
      ],
      "stateMutability": "view",
      "type": "function"
    },
    {
      "inputs": [],
      "name": "getWithdrawFeeBalance",
      "outputs": [
        {
          "internalType": "uint256",
          "name": "",
          "type": "uint256"
        }
      ],
      "stateMutability": "view",
      "type": "function"
    },
    {
      "inputs": [],
      "name": "getWithdrawalFee",
      "outputs": [
        {
          "internalType": "uint256",
          "name": "",
          "type": "uint256"
        }
      ],
      "stateMutability": "view",
      "type": "function"
    },
    {
      "inputs": [],
      "name": "lockPeriod",
      "outputs": [
        {
          "internalType": "uint256",
          "name": "",
          "type": "uint256"
        }
      ],
      "stateMutability": "view",
      "type": "function"
    },
    {
      "inputs": [],
      "name": "owner",
      "outputs": [
        {
          "internalType": "address",
          "name": "",
          "type": "address"
        }
      ],
      "stateMutability": "view",
      "type": "function"
    },
    {
      "inputs": [],
      "name": "renounceOwnership",
      "outputs": [],
      "stateMutability": "nonpayable",
      "type": "function"
    },
    {
      "inputs": [
        {
          "internalType": "address",
          "name": "tokenAddress",
          "type": "address"
        },
        {
          "internalType": "uint256",
          "name": "_allocation",
          "type": "uint256"
        }
      ],
      "name": "setAllocation",
      "outputs": [],
      "stateMutability": "nonpayable",
      "type": "function"
    },
    {
      "inputs": [
        {
          "internalType": "uint256",
          "name": "_deadlineOffset",
          "type": "uint256"
        }
      ],
      "name": "setDeadlineOffset",
      "outputs": [],
      "stateMutability": "nonpayable",
      "type": "function"
    },
    {
      "inputs": [
        {
          "internalType": "uint256",
          "name": "_depositFee",
          "type": "uint256"
        }
      ],
      "name": "setDepositFee",
      "outputs": [],
      "stateMutability": "nonpayable",
      "type": "function"
    },
    {
      "inputs": [
        {
          "internalType": "bool",
          "name": "_depositsEnabled",
          "type": "bool"
        }
      ],
      "name": "setDepositsEnabled",
      "outputs": [],
      "stateMutability": "nonpayable",
      "type": "function"
    },
    {
      "inputs": [
        {
          "internalType": "uint256",
          "name": "_lockPeriod",
          "type": "uint256"
        }
      ],
      "name": "setLockPeriod",
      "outputs": [],
      "stateMutability": "nonpayable",
      "type": "function"
    },
    {
      "inputs": [
        {
          "internalType": "uint256",
          "name": "_minimumDeposit",
          "type": "uint256"
        }
      ],
      "name": "setMinimumDeposit",
      "outputs": [],
      "stateMutability": "nonpayable",
      "type": "function"
    },
    {
      "inputs": [
        {
          "internalType": "uint256",
          "name": "_slippageTolerance",
          "type": "uint256"
        }
      ],
      "name": "setSlippageTolerance",
      "outputs": [],
      "stateMutability": "nonpayable",
      "type": "function"
    },
    {
      "inputs": [
        {
          "internalType": "uint256",
          "name": "_withdrawalFee",
          "type": "uint256"
        }
      ],
      "name": "setWithdrawalFee",
      "outputs": [],
      "stateMutability": "nonpayable",
      "type": "function"
    },
    {
      "inputs": [
        {
          "internalType": "address",
          "name": "newOwner",
          "type": "address"
        }
      ],
      "name": "transferOwnership",
      "outputs": [],
      "stateMutability": "nonpayable",
      "type": "function"
    },
    {
      "inputs": [
        {
          "internalType": "uint256",
          "name": "shares",
          "type": "uint256"
        },
        {
          "internalType": "address payable",
          "name": "to",
          "type": "address"
        }
      ],
      "name": "withdraw",
      "outputs": [],
      "stateMutability": "nonpayable",
      "type": "function"
    },
    {
      "inputs": [
        {
          "internalType": "address",
          "name": "to",
          "type": "address"
        },
        {
          "internalType": "uint256",
          "name": "amount",
          "type": "uint256"
        }
      ],
      "name": "withdrawDepositFees",
      "outputs": [],
      "stateMutability": "nonpayable",
      "type": "function"
    },
    {
      "stateMutability": "payable",
      "type": "receive"
    }
  ],
  "bytecode": "0x61012060405234801561001157600080fd5b506040516177d73803806177d7833981810160405281019061003391906104fe565b33600073ffffffffffffffffffffffffffffffffffffffff168173ffffffffffffffffffffffffffffffffffffffff16036100a65760006040517f1e4fbdf700000000000000000000000000000000000000000000000000000000815260040161009d9190610639565b60405180910390fd5b6100b5816101ec60201b60201c565b508a73ffffffffffffffffffffffffffffffffffffffff1660808173ffffffffffffffffffffffffffffffffffffffff168152505089896040516100f8906102b0565b6101039291906106a9565b604051809103906000f08015801561011f573d6000803e3d6000fd5b5073ffffffffffffffffffffffffffffffffffffffff1660a08173ffffffffffffffffffffffffffffffffffffffff16815250508773ffffffffffffffffffffffffffffffffffffffff1660e08173ffffffffffffffffffffffffffffffffffffffff16815250508660048190555085600060146101000a81548160ff0219169083151502179055508460018190555083600581905550826002819055508260c081815250508160088190555081610100818152505080600b8190555050505050505050505050506106e0565b60008060009054906101000a900473ffffffffffffffffffffffffffffffffffffffff169050816000806101000a81548173ffffffffffffffffffffffffffffffffffffffff021916908373ffffffffffffffffffffffffffffffffffffffff1602179055508173ffffffffffffffffffffffffffffffffffffffff168173ffffffffffffffffffffffffffffffffffffffff167f8be0079c531659141344cd1fd0a4f28419497f9722a3daafe3b4186f6b6457e060405160405180910390a35050565b61195680615e8183390190565b6000604051905090565b600080fd5b600080fd5b600073ffffffffffffffffffffffffffffffffffffffff82169050919050565b60006102fc826102d1565b9050919050565b61030c816102f1565b811461031757600080fd5b50565b60008151905061032981610303565b92915050565b600080fd5b600080fd5b6000601f19601f8301169050919050565b7f4e487b7100000000000000000000000000000000000000000000000000000000600052604160045260246000fd5b61038282610339565b810181811067ffffffffffffffff821117156103a1576103a061034a565b5b80604052505050565b60006103b46102bd565b90506103c08282610379565b919050565b600067ffffffffffffffff8211156103e0576103df61034a565b5b6103e982610339565b9050602081019050919050565b60005b838110156104145780820151818401526020810190506103f9565b60008484015250505050565b600061043361042e846103c5565b6103aa565b90508281526020810184848401111561044f5761044e610334565b5b61045a8482856103f6565b509392505050565b600082601f8301126104775761047661032f565b5b8151610487848260208601610420565b91505092915050565b6000819050919050565b6104a381610490565b81146104ae57600080fd5b50565b6000815190506104c08161049a565b92915050565b60008115159050919050565b6104db816104c6565b81146104e657600080fd5b50565b6000815190506104f8816104d2565b92915050565b60008060008060008060008060008060006101608c8e031215610524576105236102c7565b5b60006105328e828f0161031a565b9b505060208c015167ffffffffffffffff811115610553576105526102cc565b5b61055f8e828f01610462565b9a505060408c015167ffffffffffffffff8111156105805761057f6102cc565b5b61058c8e828f01610462565b995050606061059d8e828f0161031a565b98505060806105ae8e828f016104b1565b97505060a06105bf8e828f016104e9565b96505060c06105d08e828f016104b1565b95505060e06105e18e828f016104b1565b9450506101006105f38e828f016104b1565b9350506101206106058e828f016104b1565b9250506101406106178e828f016104b1565b9150509295989b509295989b9093969950565b610633816102f1565b82525050565b600060208201905061064e600083018461062a565b92915050565b600081519050919050565b600082825260208201905092915050565b600061067b82610654565b610685818561065f565b93506106958185602086016103f6565b61069e81610339565b840191505092915050565b600060408201905081810360008301526106c38185610670565b905081810360208301526106d78184610670565b90509392505050565b60805160a05160c05160e051610100516156d16107b06000396000611bab015260008181610a74015281816112100152818161174c015281816122cd015281816127670152818161332401526136ed0152600081816110110152611359015260008181610d0e01528181610e7101528181610e9901528181611c1a015261248501526000818161022401528181610bd50152818161139601528181611cb001528181611d59015281816120c401528181612192015281816136b101528181613a2a0152613d1101526156d16000f3fe60806040526004361061021d5760003560e01c8063779972da11610123578063c79bd7e8116100ab578063e78ec42e1161006f578063e78ec42e1461082e578063e8919a6814610857578063f20d863414610894578063f2fde38b146108d1578063f82462cf146108fa576102b2565b8063c79bd7e814610776578063d0e30db01461079f578063d3d03458146107a9578063d8e159f8146107d8578063e43db19314610803576102b2565b80639f04586c116100f25780639f04586c146106a5578063a9e97207146106ce578063ac1e5025146106f7578063b3ce257214610720578063c5e2bdc31461074b576102b2565b8063779972da146105fd5780638da5cb5b146106265780639076c166146106515780639f0042561461067a576102b2565b8063490ae210116101a65780636639a81d116101755780636639a81d1461053a57806370ee263014610565578063715018a61461059057806372a960d7146105a7578063770f91f3146105d2576102b2565b8063490ae2101461047e5780634a706bdb146104a75780634cd5bd83146104d25780635b1dac601461050f576102b2565b806310680b84116101ed57806310680b841461039757806311437941146103c2578063117da1ee146103ff57806315d3b5d8146104285780633fd8b02f14610453576102b2565b8062f714ce146102ed578063035cf1421461031657806306807597146103415780630de705b51461036c576102b2565b366102b2577f000000000000000000000000000000000000000000000000000000000000000073ffffffffffffffffffffffffffffffffffffffff163373ffffffffffffffffffffffffffffffffffffffff16146102b0576040517f08c379a00000000000000000000000000000000000000000000000000000000081526004016102a790613e36565b60405180910390fd5b005b6040517f08c379a00000000000000000000000000000000000000000000000000000000081526004016102e490613e36565b60405180910390fd5b3480156102f957600080fd5b50610314600480360381019061030f9190613efe565b610925565b005b34801561032257600080fd5b5061032b610e4f565b6040516103389190613f4d565b60405180910390f35b34801561034d57600080fd5b50610356610e59565b6040516103639190613f4d565b60405180910390f35b34801561037857600080fd5b50610381610e63565b60405161038e9190613f4d565b60405180910390f35b3480156103a357600080fd5b506103ac610e6d565b6040516103b99190613f89565b60405180910390f35b3480156103ce57600080fd5b506103e960048036038101906103e49190613fd0565b610e95565b6040516103f69190613f4d565b60405180910390f35b34801561040b57600080fd5b5061042660048036038101906104219190613ffd565b610f38565b005b34801561043457600080fd5b5061043d610f4a565b60405161044a9190613f4d565b60405180910390f35b34801561045f57600080fd5b50610468611001565b6040516104759190613f4d565b60405180910390f35b34801561048a57600080fd5b506104a560048036038101906104a09190613ffd565b611007565b005b3480156104b357600080fd5b506104bc61107c565b6040516104c99190613f4d565b60405180910390f35b3480156104de57600080fd5b506104f960048036038101906104f49190613fd0565b611086565b6040516105069190613f4d565b60405180910390f35b34801561051b57600080fd5b506105246111cb565b6040516105319190613f4d565b60405180910390f35b34801561054657600080fd5b5061054f61120b565b60405161055c9190613f4d565b60405180910390f35b34801561057157600080fd5b5061057a611355565b6040516105879190613f4d565b60405180910390f35b34801561059c57600080fd5b506105a561137d565b005b3480156105b357600080fd5b506105bc611391565b6040516105c99190613f4d565b60405180910390f35b3480156105de57600080fd5b506105e7611472565b6040516105f49190614045565b60405180910390f35b34801561060957600080fd5b50610624600480360381019061061f9190613ffd565b611488565b005b34801561063257600080fd5b5061063b6114d1565b6040516106489190613f89565b60405180910390f35b34801561065d57600080fd5b5061067860048036038101906106739190614060565b6114fa565b005b34801561068657600080fd5b5061068f611b60565b60405161069c9190613f4d565b60405180910390f35b3480156106b157600080fd5b506106cc60048036038101906106c791906140cc565b611b6a565b005b3480156106da57600080fd5b506106f560048036038101906106f09190613ffd565b611b8f565b005b34801561070357600080fd5b5061071e60048036038101906107199190613ffd565b611ba1565b005b34801561072c57600080fd5b50610735611c16565b6040516107429190613f4d565b60405180910390f35b34801561075757600080fd5b50610760611cac565b60405161076d9190613f89565b60405180910390f35b34801561078257600080fd5b5061079d60048036038101906107989190614060565b611cd4565b005b6107a7611e93565b005b3480156107b557600080fd5b506107be6125bc565b6040516107cf9594939291906143c7565b60405180910390f35b3480156107e457600080fd5b506107ed612a72565b6040516107fa9190613f4d565b60405180910390f35b34801561080f57600080fd5b50610818612a7c565b6040516108259190613f4d565b60405180910390f35b34801561083a57600080fd5b5061085560048036038101906108509190613ffd565b612a86565b005b34801561086357600080fd5b5061087e60048036038101906108799190613fd0565b612a98565b60405161088b919061451b565b60405180910390f35b3480156108a057600080fd5b506108bb60048036038101906108b69190613fd0565b612b4a565b6040516108c89190613f4d565b60405180910390f35b3480156108dd57600080fd5b506108f860048036038101906108f39190613fd0565b612c25565b005b34801561090657600080fd5b5061090f612cab565b60405161091c9190613f4d565b60405180910390f35b600061093033611086565b905082811015610975576040517f08c379a000000000000000000000000000000000000000000000000000000000815260040161096c90614589565b60405180910390fd5b600061097f611c16565b9050600081116109c4576040517f08c379a00000000000000000000000000000000000000000000000000000000081526004016109bb906145f5565b60405180910390fd5b60008411610a07576040517f08c379a00000000000000000000000000000000000000000000000000000000081526004016109fe90614687565b60405180910390fd5b6000610a116111cb565b85610a1c91906146d6565b905060006004600a610a2e9190614858565b905060008183600854610a4191906146d6565b610a4b91906148d2565b90508060096000828254610a5f9190614903565b92505081905550610a703388612cb5565b60007f0000000000000000000000000000000000000000000000000000000000000000905060005b600780549050811015610ba757600060078281548110610abb57610aba614937565b5b9060005260206000200160009054906101000a900473ffffffffffffffffffffffffffffffffffffffff16905060008190506000888273ffffffffffffffffffffffffffffffffffffffff166370a08231306040518263ffffffff1660e01b8152600401610b299190613f89565b602060405180830381865afa158015610b46573d6000803e3d6000fd5b505050506040513d601f19601f82011682018060405250810190610b6a919061497b565b8d610b7591906146d6565b610b7f91906148d2565b90506000811115610b9757610b9685848330613220565b5b5050508080600101915050610a98565b50600085610bb3611391565b8a610bbe91906146d6565b610bc891906148d2565b90506000811115610d0c577f000000000000000000000000000000000000000000000000000000000000000073ffffffffffffffffffffffffffffffffffffffff16632e1a7d4d826040518263ffffffff1660e01b8152600401610c2c9190613f4d565b600060405180830381600087803b158015610c4657600080fd5b505af1158015610c5a573d6000803e3d6000fd5b5050505060008873ffffffffffffffffffffffffffffffffffffffff1682604051610c84906149d9565b60006040518083038185875af1925050503d8060008114610cc1576040519150601f19603f3d011682016040523d82523d6000602084013e610cc6565b606091505b5050905080610d0a576040517f08c379a0000000000000000000000000000000000000000000000000000000008152600401610d0190614a3a565b60405180910390fd5b505b7f000000000000000000000000000000000000000000000000000000000000000073ffffffffffffffffffffffffffffffffffffffff16639dc29fac308b6040518363ffffffff1660e01b8152600401610d67929190614a5a565b600060405180830381600087803b158015610d8157600080fd5b505af1158015610d95573d6000803e3d6000fd5b505050503373ffffffffffffffffffffffffffffffffffffffff167ff341246adaac6f497bc2a656f546ab9e182111d630394f0c57c710a59a2cb567898b8689610ddf9190614a83565b604051610dee93929190614b16565b60405180910390a23373ffffffffffffffffffffffffffffffffffffffff167fc1c5e35c486118adcc080a4efed499d6989045c56532df5d9d438ad61cc47a338a604051610e3c9190613f4d565b60405180910390a2505050505050505050565b6000600154905090565b6000600554905090565b6000600254905090565b60007f0000000000000000000000000000000000000000000000000000000000000000905090565b60007f000000000000000000000000000000000000000000000000000000000000000073ffffffffffffffffffffffffffffffffffffffff166370a08231836040518263ffffffff1660e01b8152600401610ef09190613f89565b602060405180830381865afa158015610f0d573d6000803e3d6000fd5b505050506040513d601f19601f82011682018060405250810190610f31919061497b565b9050919050565b610f4061342e565b8060058190555050565b6000806000905060005b600780549050811015610ff9576006600060078381548110610f7957610f78614937565b5b9060005260206000200160009054906101000a900473ffffffffffffffffffffffffffffffffffffffff1673ffffffffffffffffffffffffffffffffffffffff1673ffffffffffffffffffffffffffffffffffffffff1681526020019081526020016000205482610fea9190614903565b91508080600101915050610f54565b508091505090565b600b5481565b61100f61342e565b7f0000000000000000000000000000000000000000000000000000000000000000811115611072576040517f08c379a000000000000000000000000000000000000000000000000000000000815260040161106990614be5565b60405180910390fd5b8060028190555050565b6000600454905090565b6000806000905060005b600a60008573ffffffffffffffffffffffffffffffffffffffff1673ffffffffffffffffffffffffffffffffffffffff168152602001908152602001600020805490508110156111c157600a60008573ffffffffffffffffffffffffffffffffffffffff1673ffffffffffffffffffffffffffffffffffffffff168152602001908152602001600020818154811061112b5761112a614937565b5b90600052602060002090600202016001015442106111b457600a60008573ffffffffffffffffffffffffffffffffffffffff1673ffffffffffffffffffffffffffffffffffffffff168152602001908152602001600020818154811061119457611193614937565b5b906000526020600020906002020160000154826111b19190614903565b91505b8080600101915050611090565b5080915050919050565b6000806111d6611c16565b9050600081036111ea576000915050611208565b6111f2611c16565b6111fa61120b565b61120491906148d2565b9150505b90565b6000807f00000000000000000000000000000000000000000000000000000000000000009050600061123b611391565b905060005b60078054905081101561134c5760006007828154811061126357611262614937565b5b9060005260206000200160009054906101000a900473ffffffffffffffffffffffffffffffffffffffff169050600081905060008173ffffffffffffffffffffffffffffffffffffffff166370a08231306040518263ffffffff1660e01b81526004016112d09190613f89565b602060405180830381865afa1580156112ed573d6000803e3d6000fd5b505050506040513d601f19601f82011682018060405250810190611311919061497b565b9050600081036113235750505061133f565b61132e8684836134b5565b856113399190614903565b94505050505b8080600101915050611240565b50809250505090565b60007f0000000000000000000000000000000000000000000000000000000000000000905090565b61138561342e565b61138f600061357c565b565b6000807f000000000000000000000000000000000000000000000000000000000000000073ffffffffffffffffffffffffffffffffffffffff166370a08231306040518263ffffffff1660e01b81526004016113ed9190613f89565b602060405180830381865afa15801561140a573d6000803e3d6000fd5b505050506040513d601f19601f8201168201806040525081019061142e919061497b565b90506009546003546114409190614903565b811161145057600091505061146f565b600954600354826114619190614a83565b61146b9190614a83565b9150505b90565b60008060149054906101000a900460ff16905090565b61149061342e565b80600b819055507f8249ec545e68f6f1e1230133ca48c704d831a7f8e635ded80f3dd9e99b09bb2f816040516114c69190613f4d565b60405180910390a150565b60008060009054906101000a900473ffffffffffffffffffffffffffffffffffffffff16905090565b61150261342e565b6000811015801561152057506004600a61151c9190614858565b8111155b61155f576040517f08c379a000000000000000000000000000000000000000000000000000000000815260040161155690614c77565b60405180910390fd5b600660008373ffffffffffffffffffffffffffffffffffffffff1673ffffffffffffffffffffffffffffffffffffffff1681526020019081526020016000205481036115e0576040517f08c379a00000000000000000000000000000000000000000000000000000000081526004016115d790614d09565b60405180910390fd5b6000600660008473ffffffffffffffffffffffffffffffffffffffff1673ffffffffffffffffffffffffffffffffffffffff168152602001908152602001600020548261162d9190614d33565b90506004600a61163d9190614858565b81611646610f4a565b6116509190614d76565b1315611691576040517f08c379a000000000000000000000000000000000000000000000000000000000815260040161168890614e2c565b60405180910390fd5b600061169b61120b565b905060006004600a6116ad9190614858565b82856116b991906146d6565b6116c391906148d2565b9050600085905060008173ffffffffffffffffffffffffffffffffffffffff166370a08231306040518263ffffffff1660e01b81526004016117059190613f89565b602060405180830381865afa158015611722573d6000803e3d6000fd5b505050506040513d601f19601f82011682018060405250810190611746919061497b565b905060007f00000000000000000000000000000000000000000000000000000000000000009050600080831161177d576000611789565b611788828a856134b5565b5b9050848110156117dd57600081866117a19190614a83565b9050600081905060006117b2611391565b9050808211156117c0578091505b60008211156117d5576117d4858d84613640565b5b50505061182a565b8481111561182957600085826117f39190614a83565b9050600082858361180491906146d6565b61180e91906148d2565b9050600081111561182657611825848c8330613220565b5b50505b5b60008814801561187957506000600660008b73ffffffffffffffffffffffffffffffffffffffff1673ffffffffffffffffffffffffffffffffffffffff16815260200190815260200160002054115b15611a0a5760005b600780549050811015611a04578973ffffffffffffffffffffffffffffffffffffffff16600782815481106118b9576118b8614937565b5b9060005260206000200160009054906101000a900473ffffffffffffffffffffffffffffffffffffffff1673ffffffffffffffffffffffffffffffffffffffff16036119f757600760016007805490506119139190614a83565b8154811061192457611923614937565b5b9060005260206000200160009054906101000a900473ffffffffffffffffffffffffffffffffffffffff166007828154811061196357611962614937565b5b9060005260206000200160006101000a81548173ffffffffffffffffffffffffffffffffffffffff021916908373ffffffffffffffffffffffffffffffffffffffff16021790555060078054806119bd576119bc614e4c565b5b6001900381819060005260206000200160006101000a81549073ffffffffffffffffffffffffffffffffffffffff02191690559055611a04565b8080600101915050611881565b50611ac3565b600088118015611a5957506000600660008b73ffffffffffffffffffffffffffffffffffffffff1673ffffffffffffffffffffffffffffffffffffffff16815260200190815260200160002054145b15611ac2576007899080600181540180825580915050600190039060005260206000200160009091909190916101000a81548173ffffffffffffffffffffffffffffffffffffffff021916908373ffffffffffffffffffffffffffffffffffffffff1602179055505b5b87600660008b73ffffffffffffffffffffffffffffffffffffffff1673ffffffffffffffffffffffffffffffffffffffff168152602001908152602001600020819055508873ffffffffffffffffffffffffffffffffffffffff167f7a994e2e422225102fed915394da80aeeea86e2c0ca3f41d6d48421252f83b9289604051611b4d9190613f4d565b60405180910390a2505050505050505050565b6000600954905090565b611b7261342e565b80600060146101000a81548160ff02191690831515021790555050565b611b9761342e565b8060048190555050565b611ba961342e565b7f0000000000000000000000000000000000000000000000000000000000000000811115611c0c576040517f08c379a0000000000000000000000000000000000000000000000000000000008152600401611c0390614eed565b60405180910390fd5b8060088190555050565b60007f000000000000000000000000000000000000000000000000000000000000000073ffffffffffffffffffffffffffffffffffffffff166318160ddd6040518163ffffffff1660e01b8152600401602060405180830381865afa158015611c83573d6000803e3d6000fd5b505050506040513d601f19601f82011682018060405250810190611ca7919061497b565b905090565b60007f0000000000000000000000000000000000000000000000000000000000000000905090565b611cdc61342e565b600954600354611cec9190614903565b811115611d2e576040517f08c379a0000000000000000000000000000000000000000000000000000000008152600401611d2590614f7f565b60405180910390fd5b80600954600354611d3f9190614903565b611d499190614a83565b60038190555060006009819055507f000000000000000000000000000000000000000000000000000000000000000073ffffffffffffffffffffffffffffffffffffffff16632e1a7d4d826040518263ffffffff1660e01b8152600401611db09190613f4d565b600060405180830381600087803b158015611dca57600080fd5b505af1158015611dde573d6000803e3d6000fd5b5050505060008273ffffffffffffffffffffffffffffffffffffffff1682604051611e08906149d9565b60006040518083038185875af1925050503d8060008114611e45576040519150601f19603f3d011682016040523d82523d6000602084013e611e4a565b606091505b5050905080611e8e576040517f08c379a0000000000000000000000000000000000000000000000000000000008152600401611e8590614a3a565b60405180910390fd5b505050565b600060149054906101000a900460ff1680611f4757503073ffffffffffffffffffffffffffffffffffffffff16638da5cb5b6040518163ffffffff1660e01b8152600401602060405180830381865afa158015611ef4573d6000803e3d6000fd5b505050506040513d601f19601f82011682018060405250810190611f189190614fb4565b73ffffffffffffffffffffffffffffffffffffffff163373ffffffffffffffffffffffffffffffffffffffff16145b611f86576040517f08c379a0000000000000000000000000000000000000000000000000000000008152600401611f7d90615053565b60405180910390fd5b600154341015611fcb576040517f08c379a0000000000000000000000000000000000000000000000000000000008152600401611fc2906150e5565b60405180910390fd5b6000806000611fd8611c16565b905060006004600a611fea9190614858565b905060008134600254611ffd91906146d6565b61200791906148d2565b9050600081346120179190614a83565b90506000840361205b576000620186a090506012600a6120379190614858565b818361204391906146d6565b61204d91906148d2565b96508694508195505061207f565b61206361120b565b945084848261207291906146d6565b61207c91906148d2565b95505b600086116120c2576040517f08c379a00000000000000000000000000000000000000000000000000000000081526004016120b990615151565b60405180910390fd5b7f000000000000000000000000000000000000000000000000000000000000000073ffffffffffffffffffffffffffffffffffffffff1663d0e30db0346040518263ffffffff1660e01b81526004016000604051808303818588803b15801561212a57600080fd5b505af115801561213e573d6000803e3d6000fd5b505050505081600360008282546121559190614903565b92505081905550600084868861216b91906146d6565b61217591906148d2565b9050600081836121859190614a83565b905060008111156122c9577f000000000000000000000000000000000000000000000000000000000000000073ffffffffffffffffffffffffffffffffffffffff16632e1a7d4d826040518263ffffffff1660e01b81526004016121e99190613f4d565b600060405180830381600087803b15801561220357600080fd5b505af1158015612217573d6000803e3d6000fd5b5050505060003373ffffffffffffffffffffffffffffffffffffffff1682604051612241906149d9565b60006040518083038185875af1925050503d806000811461227e576040519150601f19603f3d011682016040523d82523d6000602084013e612283565b606091505b50509050806122c7576040517f08c379a00000000000000000000000000000000000000000000000000000000081526004016122be90614a3a565b60405180910390fd5b505b60007f0000000000000000000000000000000000000000000000000000000000000000905060005b6007805490508110156123dd5760006007828154811061231457612313614937565b5b9060005260206000200160009054906101000a900473ffffffffffffffffffffffffffffffffffffffff16905060006004600a6123519190614858565b858861235d9190614a83565b600660008573ffffffffffffffffffffffffffffffffffffffff1673ffffffffffffffffffffffffffffffffffffffff168152602001908152602001600020546123a791906146d6565b6123b191906148d2565b9050600081036123c25750506123d0565b6123cd848383613640565b50505b80806001019150506122f1565b506000600b54426123ee9190614903565b9050600a60003373ffffffffffffffffffffffffffffffffffffffff1673ffffffffffffffffffffffffffffffffffffffff16815260200190815260200160002060405180604001604052808c8152602001838152509080600181540180825580915050600190039060005260206000209060020201600090919091909150600082015181600001556020820151816001015550507f000000000000000000000000000000000000000000000000000000000000000073ffffffffffffffffffffffffffffffffffffffff166340c10f19308c6040518363ffffffff1660e01b81526004016124de929190614a5a565b600060405180830381600087803b1580156124f857600080fd5b505af115801561250c573d6000803e3d6000fd5b505050503373ffffffffffffffffffffffffffffffffffffffff167f90890809c654f11d6e72a28fa60149770a0d11ec6c92319d6ceb2bb0a4ea1a158b86604051612558929190615171565b60405180910390a23373ffffffffffffffffffffffffffffffffffffffff167fe8784bb6381dbe4486c778d659c10e9f1367cb74bb482590c984a558bf8bbe188b836040516125a8929190615171565b60405180910390a250505050505050505050565b6060806060806060600060078054905067ffffffffffffffff8111156125e5576125e461519a565b5b6040519080825280602002602001820160405280156126135781602001602082028036833780820191505090505b509050600060078054905067ffffffffffffffff8111156126375761263661519a565b5b6040519080825280602002602001820160405280156126655781602001602082028036833780820191505090505b509050600060078054905067ffffffffffffffff8111156126895761268861519a565b5b6040519080825280602002602001820160405280156126bc57816020015b60608152602001906001900390816126a75790505b509050600060078054905067ffffffffffffffff8111156126e0576126df61519a565b5b60405190808252806020026020018201604052801561270e5781602001602082028036833780820191505090505b509050600060078054905067ffffffffffffffff8111156127325761273161519a565b5b6040519080825280602002602001820160405280156127605781602001602082028036833780820191505090505b50905060007f0000000000000000000000000000000000000000000000000000000000000000905060005b600780549050811015612a55576000600782815481106127ae576127ad614937565b5b9060005260206000200160009054906101000a900473ffffffffffffffffffffffffffffffffffffffff169050808883815181106127ef576127ee614937565b5b602002602001019073ffffffffffffffffffffffffffffffffffffffff16908173ffffffffffffffffffffffffffffffffffffffff1681525050600660008273ffffffffffffffffffffffffffffffffffffffff1673ffffffffffffffffffffffffffffffffffffffff1681526020019081526020016000205487838151811061287c5761287b614937565b5b60200260200101818152505060008190508073ffffffffffffffffffffffffffffffffffffffff166395d89b416040518163ffffffff1660e01b8152600401600060405180830381865afa1580156128d8573d6000803e3d6000fd5b505050506040513d6000823e3d601f19601f8201168201806040525081019061290191906152c0565b87848151811061291457612913614937565b5b60200260200101819052508073ffffffffffffffffffffffffffffffffffffffff166370a08231306040518263ffffffff1660e01b81526004016129589190613f89565b602060405180830381865afa158015612975573d6000803e3d6000fd5b505050506040513d601f19601f82011682018060405250810190612999919061497b565b8684815181106129ac576129ab614937565b5b60200260200101818152505060008684815181106129cd576129cc614937565b5b60200260200101511115612a2457612a0084838886815181106129f3576129f2614937565b5b60200260200101516134b5565b858481518110612a1357612a12614937565b5b602002602001018181525050612a46565b6000858481518110612a3957612a38614937565b5b6020026020010181815250505b5050808060010191505061278b565b5085858585859a509a509a509a509a505050505050509091929394565b6000600854905090565b6000600b54905090565b612a8e61342e565b8060018190555050565b6060600a60008373ffffffffffffffffffffffffffffffffffffffff1673ffffffffffffffffffffffffffffffffffffffff168152602001908152602001600020805480602002602001604051908101604052809291908181526020016000905b82821015612b3f57838290600052602060002090600202016040518060400160405290816000820154815260200160018201548152505081526020019060010190612af9565b505050509050919050565b6000806000905060005b600a60008573ffffffffffffffffffffffffffffffffffffffff1673ffffffffffffffffffffffffffffffffffffffff16815260200190815260200160002080549050811015612c1b57600a60008573ffffffffffffffffffffffffffffffffffffffff1673ffffffffffffffffffffffffffffffffffffffff1681526020019081526020016000208181548110612bef57612bee614937565b5b90600052602060002090600202016000015482612c0c9190614903565b91508080600101915050612b54565b5080915050919050565b612c2d61342e565b600073ffffffffffffffffffffffffffffffffffffffff168173ffffffffffffffffffffffffffffffffffffffff1603612c9f5760006040517f1e4fbdf7000000000000000000000000000000000000000000000000000000008152600401612c969190613f89565b60405180910390fd5b612ca88161357c565b50565b6000600354905090565b600081905060005b600a60008573ffffffffffffffffffffffffffffffffffffffff1673ffffffffffffffffffffffffffffffffffffffff1681526020019081526020016000208054905081108015612d0e5750600082115b15612f5457600a60008573ffffffffffffffffffffffffffffffffffffffff1673ffffffffffffffffffffffffffffffffffffffff1681526020019081526020016000208181548110612d6457612d63614937565b5b9060005260206000209060020201600101544210612f415781600a60008673ffffffffffffffffffffffffffffffffffffffff1673ffffffffffffffffffffffffffffffffffffffff1681526020019081526020016000208281548110612dce57612dcd614937565b5b90600052602060002090600202016000015411612ec257600a60008573ffffffffffffffffffffffffffffffffffffffff1673ffffffffffffffffffffffffffffffffffffffff1681526020019081526020016000208181548110612e3657612e35614937565b5b90600052602060002090600202016000015482612e539190614a83565b91506000600a60008673ffffffffffffffffffffffffffffffffffffffff1673ffffffffffffffffffffffffffffffffffffffff1681526020019081526020016000208281548110612ea857612ea7614937565b5b906000526020600020906002020160000181905550612f40565b81600a60008673ffffffffffffffffffffffffffffffffffffffff1673ffffffffffffffffffffffffffffffffffffffff1681526020019081526020016000208281548110612f1457612f13614937565b5b90600052602060002090600202016000016000828254612f349190614a83565b92505081905550600091505b5b8080612f4c90615309565b915050612cbd565b5060008114612f98576040517f08c379a0000000000000000000000000000000000000000000000000000000008152600401612f8f9061539d565b60405180910390fd5b6000600a60008573ffffffffffffffffffffffffffffffffffffffff1673ffffffffffffffffffffffffffffffffffffffff1681526020019081526020016000208054905090505b600081111561321a576000600a60008673ffffffffffffffffffffffffffffffffffffffff1673ffffffffffffffffffffffffffffffffffffffff1681526020019081526020016000206001836130379190614a83565b8154811061304857613047614937565b5b9060005260206000209060020201600001540361320757600a60008573ffffffffffffffffffffffffffffffffffffffff1673ffffffffffffffffffffffffffffffffffffffff1681526020019081526020016000206001600a60008773ffffffffffffffffffffffffffffffffffffffff1673ffffffffffffffffffffffffffffffffffffffff168152602001908152602001600020805490506130ed9190614a83565b815481106130fe576130fd614937565b5b9060005260206000209060020201600a60008673ffffffffffffffffffffffffffffffffffffffff1673ffffffffffffffffffffffffffffffffffffffff1681526020019081526020016000206001836131589190614a83565b8154811061316957613168614937565b5b90600052602060002090600202016000820154816000015560018201548160010155905050600a60008573ffffffffffffffffffffffffffffffffffffffff1673ffffffffffffffffffffffffffffffffffffffff1681526020019081526020016000208054806131dd576131dc614e4c565b5b60019003818190600052602060002090600202016000808201600090556001820160009055505090555b8080613212906153bd565b915050612fe0565b50505050565b60008390508073ffffffffffffffffffffffffffffffffffffffff166370a08231306040518263ffffffff1660e01b815260040161325e9190613f89565b602060405180830381865afa15801561327b573d6000803e3d6000fd5b505050506040513d601f19601f8201168201806040525081019061329f919061497b565b8311156132e1576040517f08c379a00000000000000000000000000000000000000000000000000000000081526004016132d890615432565b60405180910390fd5b60006132f66132f18787876134b5565b6137f5565b90506000613304878761383c565b90508273ffffffffffffffffffffffffffffffffffffffff1663095ea7b37f0000000000000000000000000000000000000000000000000000000000000000876040518363ffffffff1660e01b8152600401613361929190614a5a565b6020604051808303816000875af1158015613380573d6000803e3d6000fd5b505050506040513d601f19601f820116820180604052508101906133a49190615467565b508673ffffffffffffffffffffffffffffffffffffffff16635c11d79586848488600454426133d39190614903565b6040518663ffffffff1660e01b81526004016133f3959493929190615494565b600060405180830381600087803b15801561340d57600080fd5b505af1158015613421573d6000803e3d6000fd5b5050505050505050505050565b613436613aa3565b73ffffffffffffffffffffffffffffffffffffffff166134546114d1565b73ffffffffffffffffffffffffffffffffffffffff16146134b357613477613aa3565b6040517f118cdaa70000000000000000000000000000000000000000000000000000000081526004016134aa9190613f89565b60405180910390fd5b565b6000806134c2858561383c565b905060008573ffffffffffffffffffffffffffffffffffffffff1663d06ca61f85846040518363ffffffff1660e01b81526004016135019291906154ee565b600060405180830381865afa15801561351e573d6000803e3d6000fd5b505050506040513d6000823e3d601f19601f8201168201806040525081019061354791906155e6565b905080600182516135589190614a83565b8151811061356957613568614937565b5b6020026020010151925050509392505050565b60008060009054906101000a900473ffffffffffffffffffffffffffffffffffffffff169050816000806101000a81548173ffffffffffffffffffffffffffffffffffffffff021916908373ffffffffffffffffffffffffffffffffffffffff1602179055508173ffffffffffffffffffffffffffffffffffffffff168173ffffffffffffffffffffffffffffffffffffffff167f8be0079c531659141344cd1fd0a4f28419497f9722a3daafe3b4186f6b6457e060405160405180910390a35050565b613648611391565b81111561368a576040517f08c379a00000000000000000000000000000000000000000000000000000000081526004016136819061567b565b60405180910390fd5b600061369f61369a858585613aab565b6137f5565b905060006136ad8585613b72565b90507f000000000000000000000000000000000000000000000000000000000000000073ffffffffffffffffffffffffffffffffffffffff1663095ea7b37f0000000000000000000000000000000000000000000000000000000000000000856040518363ffffffff1660e01b815260040161372a929190614a5a565b6020604051808303816000875af1158015613749573d6000803e3d6000fd5b505050506040513d601f19601f8201168201806040525081019061376d9190615467565b508473ffffffffffffffffffffffffffffffffffffffff16635c11d795848484306004544261379c9190614903565b6040518663ffffffff1660e01b81526004016137bc959493929190615494565b600060405180830381600087803b1580156137d657600080fd5b505af11580156137ea573d6000803e3d6000fd5b505050505050505050565b60006004600a6138059190614858565b826005546004600a6138179190614858565b6138219190614a83565b61382b91906146d6565b61383591906148d2565b9050919050565b606060008373ffffffffffffffffffffffffffffffffffffffff1663ad5c46486040518163ffffffff1660e01b8152600401602060405180830381865afa15801561388b573d6000803e3d6000fd5b505050506040513d601f19601f820116820180604052508101906138af9190614fb4565b90508073ffffffffffffffffffffffffffffffffffffffff168373ffffffffffffffffffffffffffffffffffffffff160361398b576000600167ffffffffffffffff8111156139015761390061519a565b5b60405190808252806020026020018201604052801561392f5781602001602082028036833780820191505090505b509050818160008151811061394757613946614937565b5b602002602001019073ffffffffffffffffffffffffffffffffffffffff16908173ffffffffffffffffffffffffffffffffffffffff16815250508092505050613a9d565b6000600267ffffffffffffffff8111156139a8576139a761519a565b5b6040519080825280602002602001820160405280156139d65781602001602082028036833780820191505090505b50905083816000815181106139ee576139ed614937565b5b602002602001019073ffffffffffffffffffffffffffffffffffffffff16908173ffffffffffffffffffffffffffffffffffffffff16815250507f000000000000000000000000000000000000000000000000000000000000000081600181518110613a5d57613a5c614937565b5b602002602001019073ffffffffffffffffffffffffffffffffffffffff16908173ffffffffffffffffffffffffffffffffffffffff168152505080925050505b92915050565b600033905090565b600080613ab88585613b72565b905060008573ffffffffffffffffffffffffffffffffffffffff1663d06ca61f85846040518363ffffffff1660e01b8152600401613af79291906154ee565b600060405180830381865afa158015613b14573d6000803e3d6000fd5b505050506040513d6000823e3d601f19601f82011682018060405250810190613b3d91906155e6565b90508060018251613b4e9190614a83565b81518110613b5f57613b5e614937565b5b6020026020010151925050509392505050565b606060008373ffffffffffffffffffffffffffffffffffffffff1663ad5c46486040518163ffffffff1660e01b8152600401602060405180830381865afa158015613bc1573d6000803e3d6000fd5b505050506040513d601f19601f82011682018060405250810190613be59190614fb4565b90508073ffffffffffffffffffffffffffffffffffffffff168373ffffffffffffffffffffffffffffffffffffffff1603613cc1576000600167ffffffffffffffff811115613c3757613c3661519a565b5b604051908082528060200260200182016040528015613c655781602001602082028036833780820191505090505b5090508181600081518110613c7d57613c7c614937565b5b602002602001019073ffffffffffffffffffffffffffffffffffffffff16908173ffffffffffffffffffffffffffffffffffffffff16815250508092505050613dd3565b6000600267ffffffffffffffff811115613cde57613cdd61519a565b5b604051908082528060200260200182016040528015613d0c5781602001602082028036833780820191505090505b5090507f000000000000000000000000000000000000000000000000000000000000000081600081518110613d4457613d43614937565b5b602002602001019073ffffffffffffffffffffffffffffffffffffffff16908173ffffffffffffffffffffffffffffffffffffffff16815250508381600181518110613d9357613d92614937565b5b602002602001019073ffffffffffffffffffffffffffffffffffffffff16908173ffffffffffffffffffffffffffffffffffffffff168152505080925050505b92915050565b600082825260208201905092915050565b7f44697265637420455448207472616e7366657273206e6f7420616c6c6f776564600082015250565b6000613e20602083613dd9565b9150613e2b82613dea565b602082019050919050565b60006020820190508181036000830152613e4f81613e13565b9050919050565b6000604051905090565b600080fd5b600080fd5b6000819050919050565b613e7d81613e6a565b8114613e8857600080fd5b50565b600081359050613e9a81613e74565b92915050565b600073ffffffffffffffffffffffffffffffffffffffff82169050919050565b6000613ecb82613ea0565b9050919050565b613edb81613ec0565b8114613ee657600080fd5b50565b600081359050613ef881613ed2565b92915050565b60008060408385031215613f1557613f14613e60565b5b6000613f2385828601613e8b565b9250506020613f3485828601613ee9565b9150509250929050565b613f4781613e6a565b82525050565b6000602082019050613f626000830184613f3e565b92915050565b6000613f7382613ea0565b9050919050565b613f8381613f68565b82525050565b6000602082019050613f9e6000830184613f7a565b92915050565b613fad81613f68565b8114613fb857600080fd5b50565b600081359050613fca81613fa4565b92915050565b600060208284031215613fe657613fe5613e60565b5b6000613ff484828501613fbb565b91505092915050565b60006020828403121561401357614012613e60565b5b600061402184828501613e8b565b91505092915050565b60008115159050919050565b61403f8161402a565b82525050565b600060208201905061405a6000830184614036565b92915050565b6000806040838503121561407757614076613e60565b5b600061408585828601613fbb565b925050602061409685828601613e8b565b9150509250929050565b6140a98161402a565b81146140b457600080fd5b50565b6000813590506140c6816140a0565b92915050565b6000602082840312156140e2576140e1613e60565b5b60006140f0848285016140b7565b91505092915050565b600081519050919050565b600082825260208201905092915050565b6000819050602082019050919050565b61412e81613f68565b82525050565b60006141408383614125565b60208301905092915050565b6000602082019050919050565b6000614164826140f9565b61416e8185614104565b935061417983614115565b8060005b838110156141aa5781516141918882614134565b975061419c8361414c565b92505060018101905061417d565b5085935050505092915050565b600081519050919050565b600082825260208201905092915050565b6000819050602082019050919050565b6141ec81613e6a565b82525050565b60006141fe83836141e3565b60208301905092915050565b6000602082019050919050565b6000614222826141b7565b61422c81856141c2565b9350614237836141d3565b8060005b8381101561426857815161424f88826141f2565b975061425a8361420a565b92505060018101905061423b565b5085935050505092915050565b600081519050919050565b600082825260208201905092915050565b6000819050602082019050919050565b600081519050919050565b600082825260208201905092915050565b60005b838110156142db5780820151818401526020810190506142c0565b60008484015250505050565b6000601f19601f8301169050919050565b6000614303826142a1565b61430d81856142ac565b935061431d8185602086016142bd565b614326816142e7565b840191505092915050565b600061433d83836142f8565b905092915050565b6000602082019050919050565b600061435d82614275565b6143678185614280565b93508360208202850161437985614291565b8060005b858110156143b557848403895281516143968582614331565b94506143a183614345565b925060208a0199505060018101905061437d565b50829750879550505050505092915050565b600060a08201905081810360008301526143e18188614159565b905081810360208301526143f58187614217565b905081810360408301526144098186614352565b9050818103606083015261441d8185614217565b905081810360808301526144318184614217565b90509695505050505050565b600081519050919050565b600082825260208201905092915050565b6000819050602082019050919050565b60408201600082015161447f60008501826141e3565b50602082015161449260208501826141e3565b50505050565b60006144a48383614469565b60408301905092915050565b6000602082019050919050565b60006144c88261443d565b6144d28185614448565b93506144dd83614459565b8060005b8381101561450e5781516144f58882614498565b9750614500836144b0565b9250506001810190506144e1565b5085935050505092915050565b6000602082019050818103600083015261453581846144bd565b905092915050565b7f496e73756666696369656e7420756e6c6f636b65642073686172657300000000600082015250565b6000614573601c83613dd9565b915061457e8261453d565b602082019050919050565b600060208201905081810360008301526145a281614566565b9050919050565b7f4e6f20736861726573206f75747374616e64696e672e00000000000000000000600082015250565b60006145df601683613dd9565b91506145ea826145a9565b602082019050919050565b6000602082019050818103600083015261460e816145d2565b9050919050565b7f596f75206d7573742073656c6c206174206c65617374206f6e6520736861726560008201527f2e00000000000000000000000000000000000000000000000000000000000000602082015250565b6000614671602183613dd9565b915061467c82614615565b604082019050919050565b600060208201905081810360008301526146a081614664565b9050919050565b7f4e487b7100000000000000000000000000000000000000000000000000000000600052601160045260246000fd5b60006146e182613e6a565b91506146ec83613e6a565b92508282026146fa81613e6a565b91508282048414831517614711576147106146a7565b5b5092915050565b60008160011c9050919050565b6000808291508390505b600185111561476f5780860481111561474b5761474a6146a7565b5b600185161561475a5780820291505b808102905061476885614718565b945061472f565b94509492505050565b6000826147885760019050614844565b816147965760009050614844565b81600181146147ac57600281146147b6576147e5565b6001915050614844565b60ff8411156147c8576147c76146a7565b5b8360020a9150848211156147df576147de6146a7565b5b50614844565b5060208310610133831016604e8410600b841016171561481a5782820a905083811115614815576148146146a7565b5b614844565b6148278484846001614725565b9250905081840481111561483e5761483d6146a7565b5b81810290505b9392505050565b600060ff82169050919050565b600061486382613e6a565b915061486e8361484b565b925061489b7fffffffffffffffffffffffffffffffffffffffffffffffffffffffffffffffff8484614778565b905092915050565b7f4e487b7100000000000000000000000000000000000000000000000000000000600052601260045260246000fd5b60006148dd82613e6a565b91506148e883613e6a565b9250826148f8576148f76148a3565b5b828204905092915050565b600061490e82613e6a565b915061491983613e6a565b9250828201905080821115614931576149306146a7565b5b92915050565b7f4e487b7100000000000000000000000000000000000000000000000000000000600052603260045260246000fd5b60008151905061497581613e74565b92915050565b60006020828403121561499157614990613e60565b5b600061499f84828501614966565b91505092915050565b600081905092915050565b50565b60006149c36000836149a8565b91506149ce826149b3565b600082019050919050565b60006149e4826149b6565b9150819050919050565b7f455448207472616e73666572206661696c656400000000000000000000000000600082015250565b6000614a24601383613dd9565b9150614a2f826149ee565b602082019050919050565b60006020820190508181036000830152614a5381614a17565b9050919050565b6000604082019050614a6f6000830185613f7a565b614a7c6020830184613f3e565b9392505050565b6000614a8e82613e6a565b9150614a9983613e6a565b9250828203905081811115614ab157614ab06146a7565b5b92915050565b6000819050919050565b6000614adc614ad7614ad284613ea0565b614ab7565b613ea0565b9050919050565b6000614aee82614ac1565b9050919050565b6000614b0082614ae3565b9050919050565b614b1081614af5565b82525050565b6000606082019050614b2b6000830186614b07565b614b386020830185613f3e565b614b456040830184613f3e565b949350505050565b7f4465706f736974206665652063616e6e6f74206265207365742068696768657260008201527f207468616e207468652076616c7565206974207761732073657420746f206f6e60208201527f20636f6e7472616374206372656174696f6e2e00000000000000000000000000604082015250565b6000614bcf605383613dd9565b9150614bda82614b4d565b606082019050919050565b60006020820190508181036000830152614bfe81614bc2565b9050919050565b7f417373657420616c6c6f636174696f6e206d757374206265203e3d203020616e60008201527f64203c3d20312e00000000000000000000000000000000000000000000000000602082015250565b6000614c61602783613dd9565b9150614c6c82614c05565b604082019050919050565b60006020820190508181036000830152614c9081614c54565b9050919050565b7f4e657720616c6c6f636174696f6e2063616e6e6f74206265207468652073616d60008201527f65206173206f6c6420616c6c6f636174696f6e00000000000000000000000000602082015250565b6000614cf3603383613dd9565b9150614cfe82614c97565b604082019050919050565b60006020820190508181036000830152614d2281614ce6565b9050919050565b6000819050919050565b6000614d3e82614d29565b9150614d4983614d29565b9250828203905081811260008412168282136000851215161715614d7057614d6f6146a7565b5b92915050565b6000614d8182614d29565b9150614d8c83614d29565b925082820190508281121560008312168382126000841215161715614db457614db36146a7565b5b92915050565b7f546f74616c20617373657420616c6c6f636174696f6e2063616e6e6f7420626560008201527f203e20312e000000000000000000000000000000000000000000000000000000602082015250565b6000614e16602583613dd9565b9150614e2182614dba565b604082019050919050565b60006020820190508181036000830152614e4581614e09565b9050919050565b7f4e487b7100000000000000000000000000000000000000000000000000000000600052603160045260246000fd5b7f4665652063616e6e6f742062652073657420686967686572207468616e20637260008201527f656174696f6e2066656500000000000000000000000000000000000000000000602082015250565b6000614ed7602a83613dd9565b9150614ee282614e7b565b604082019050919050565b60006020820190508181036000830152614f0681614eca565b9050919050565b7f5769746864726177616c20616d6f756e7420657863656564732066656520626160008201527f6c616e6365000000000000000000000000000000000000000000000000000000602082015250565b6000614f69602583613dd9565b9150614f7482614f0d565b604082019050919050565b60006020820190508181036000830152614f9881614f5c565b9050919050565b600081519050614fae81613fa4565b92915050565b600060208284031215614fca57614fc9613e60565b5b6000614fd884828501614f9f565b91505092915050565b7f4465706f73697473206172652074656d706f726172696c792064697361626c6560008201527f642e000000000000000000000000000000000000000000000000000000000000602082015250565b600061503d602283613dd9565b915061504882614fe1565b604082019050919050565b6000602082019050818103600083015261506c81615030565b9050919050565b7f4465706f73697420616d6f756e74206973206c657373207468616e207468652060008201527f6d696e696d756d206465706f7369742e00000000000000000000000000000000602082015250565b60006150cf603083613dd9565b91506150da82615073565b604082019050919050565b600060208201905081810360008301526150fe816150c2565b9050919050565b7f596f75206d75737420627579206174206c65617374206f6e652073686172652e600082015250565b600061513b602083613dd9565b915061514682615105565b602082019050919050565b6000602082019050818103600083015261516a8161512e565b9050919050565b60006040820190506151866000830185613f3e565b6151936020830184613f3e565b9392505050565b7f4e487b7100000000000000000000000000000000000000000000000000000000600052604160045260246000fd5b600080fd5b600080fd5b6151dc826142e7565b810181811067ffffffffffffffff821117156151fb576151fa61519a565b5b80604052505050565b600061520e613e56565b905061521a82826151d3565b919050565b600067ffffffffffffffff82111561523a5761523961519a565b5b615243826142e7565b9050602081019050919050565b600061526361525e8461521f565b615204565b90508281526020810184848401111561527f5761527e6151ce565b5b61528a8482856142bd565b509392505050565b600082601f8301126152a7576152a66151c9565b5b81516152b7848260208601615250565b91505092915050565b6000602082840312156152d6576152d5613e60565b5b600082015167ffffffffffffffff8111156152f4576152f3613e65565b5b61530084828501615292565b91505092915050565b600061531482613e6a565b91507fffffffffffffffffffffffffffffffffffffffffffffffffffffffffffffffff8203615346576153456146a7565b5b600182019050919050565b7f4e6f7420656e6f75676820756e6c6f636b656420736861726573000000000000600082015250565b6000615387601a83613dd9565b915061539282615351565b602082019050919050565b600060208201905081810360008301526153b68161537a565b9050919050565b60006153c882613e6a565b9150600082036153db576153da6146a7565b5b600182039050919050565b7f496e73756666696369656e7420746f6b656e2062616c616e63652e0000000000600082015250565b600061541c601b83613dd9565b9150615427826153e6565b602082019050919050565b6000602082019050818103600083015261544b8161540f565b9050919050565b600081519050615461816140a0565b92915050565b60006020828403121561547d5761547c613e60565b5b600061548b84828501615452565b91505092915050565b600060a0820190506154a96000830188613f3e565b6154b66020830187613f3e565b81810360408301526154c88186614159565b90506154d76060830185613f7a565b6154e46080830184613f3e565b9695505050505050565b60006040820190506155036000830185613f3e565b81810360208301526155158184614159565b90509392505050565b600067ffffffffffffffff8211156155395761553861519a565b5b602082029050602081019050919050565b600080fd5b600061556261555d8461551e565b615204565b905080838252602082019050602084028301858111156155855761558461554a565b5b835b818110156155ae578061559a8882614966565b845260208401935050602081019050615587565b5050509392505050565b600082601f8301126155cd576155cc6151c9565b5b81516155dd84826020860161554f565b91505092915050565b6000602082840312156155fc576155fb613e60565b5b600082015167ffffffffffffffff81111561561a57615619613e65565b5b615626848285016155b8565b91505092915050565b7f496e73756666696369656e7420574554482062616c616e63652e000000000000600082015250565b6000615665601a83613dd9565b91506156708261562f565b602082019050919050565b6000602082019050818103600083015261569481615658565b905091905056fea26469706673582212207df7baa40d0b3f1fffd9ceaf5e80f638ed71ab18b988b98f3137757885b8cbdb64736f6c63430008190033608060405234801561001057600080fd5b506040516119563803806119568339818101604052810190610032919061031b565b338282816003908161004491906105b4565b50806004908161005491906105b4565b505050600073ffffffffffffffffffffffffffffffffffffffff168173ffffffffffffffffffffffffffffffffffffffff16036100c95760006040517f1e4fbdf70000000000000000000000000000000000000000000000000000000081526004016100c091906106c7565b60405180910390fd5b6100d8816100e060201b60201c565b5050506106e2565b6000600560009054906101000a900473ffffffffffffffffffffffffffffffffffffffff16905081600560006101000a81548173ffffffffffffffffffffffffffffffffffffffff021916908373ffffffffffffffffffffffffffffffffffffffff1602179055508173ffffffffffffffffffffffffffffffffffffffff168173ffffffffffffffffffffffffffffffffffffffff167f8be0079c531659141344cd1fd0a4f28419497f9722a3daafe3b4186f6b6457e060405160405180910390a35050565b6000604051905090565b600080fd5b600080fd5b600080fd5b600080fd5b6000601f19601f8301169050919050565b7f4e487b7100000000000000000000000000000000000000000000000000000000600052604160045260246000fd5b61020d826101c4565b810181811067ffffffffffffffff8211171561022c5761022b6101d5565b5b80604052505050565b600061023f6101a6565b905061024b8282610204565b919050565b600067ffffffffffffffff82111561026b5761026a6101d5565b5b610274826101c4565b9050602081019050919050565b60005b8381101561029f578082015181840152602081019050610284565b60008484015250505050565b60006102be6102b984610250565b610235565b9050828152602081018484840111156102da576102d96101bf565b5b6102e5848285610281565b509392505050565b600082601f830112610302576103016101ba565b5b81516103128482602086016102ab565b91505092915050565b60008060408385031215610332576103316101b0565b5b600083015167ffffffffffffffff8111156103505761034f6101b5565b5b61035c858286016102ed565b925050602083015167ffffffffffffffff81111561037d5761037c6101b5565b5b610389858286016102ed565b9150509250929050565b600081519050919050565b7f4e487b7100000000000000000000000000000000000000000000000000000000600052602260045260246000fd5b600060028204905060018216806103e557607f821691505b6020821081036103f8576103f761039e565b5b50919050565b60008190508160005260206000209050919050565b60006020601f8301049050919050565b600082821b905092915050565b6000600883026104607fffffffffffffffffffffffffffffffffffffffffffffffffffffffffffffffff82610423565b61046a8683610423565b95508019841693508086168417925050509392505050565b6000819050919050565b6000819050919050565b60006104b16104ac6104a784610482565b61048c565b610482565b9050919050565b6000819050919050565b6104cb83610496565b6104df6104d7826104b8565b848454610430565b825550505050565b600090565b6104f46104e7565b6104ff8184846104c2565b505050565b5b81811015610523576105186000826104ec565b600181019050610505565b5050565b601f82111561056857610539816103fe565b61054284610413565b81016020851015610551578190505b61056561055d85610413565b830182610504565b50505b505050565b600082821c905092915050565b600061058b6000198460080261056d565b1980831691505092915050565b60006105a4838361057a565b9150826002028217905092915050565b6105bd82610393565b67ffffffffffffffff8111156105d6576105d56101d5565b5b6105e082546103cd565b6105eb828285610527565b600060209050601f83116001811461061e576000841561060c578287015190505b6106168582610598565b86555061067e565b601f19841661062c866103fe565b60005b828110156106545784890151825560018201915060208501945060208101905061062f565b86831015610671578489015161066d601f89168261057a565b8355505b6001600288020188555050505b505050505050565b600073ffffffffffffffffffffffffffffffffffffffff82169050919050565b60006106b182610686565b9050919050565b6106c1816106a6565b82525050565b60006020820190506106dc60008301846106b8565b92915050565b611265806106f16000396000f3fe608060405234801561001057600080fd5b50600436106100ea5760003560e01c8063715018a61161008c5780639dc29fac116100665780639dc29fac1461023b578063a9059cbb14610257578063dd62ed3e14610287578063f2fde38b146102b7576100ea565b8063715018a6146101f55780638da5cb5b146101ff57806395d89b411461021d576100ea565b806323b872dd116100c857806323b872dd1461015b578063313ce5671461018b57806340c10f19146101a957806370a08231146101c5576100ea565b806306fdde03146100ef578063095ea7b31461010d57806318160ddd1461013d575b600080fd5b6100f76102d3565b6040516101049190610eb9565b60405180910390f35b61012760048036038101906101229190610f74565b610365565b6040516101349190610fcf565b60405180910390f35b610145610388565b6040516101529190610ff9565b60405180910390f35b61017560048036038101906101709190611014565b610392565b6040516101829190610fcf565b60405180910390f35b6101936103c1565b6040516101a09190611083565b60405180910390f35b6101c360048036038101906101be9190610f74565b6103c6565b005b6101df60048036038101906101da919061109e565b6103dc565b6040516101ec9190610ff9565b60405180910390f35b6101fd610424565b005b610207610438565b60405161021491906110da565b60405180910390f35b610225610462565b6040516102329190610eb9565b60405180910390f35b61025560048036038101906102509190610f74565b6104f4565b005b610271600480360381019061026c9190610f74565b61050a565b60405161027e9190610fcf565b60405180910390f35b6102a1600480360381019061029c91906110f5565b61052d565b6040516102ae9190610ff9565b60405180910390f35b6102d160048036038101906102cc919061109e565b6105b4565b005b6060600380546102e290611164565b80601f016020809104026020016040519081016040528092919081815260200182805461030e90611164565b801561035b5780601f106103305761010080835404028352916020019161035b565b820191906000526020600020905b81548152906001019060200180831161033e57829003601f168201915b5050505050905090565b60008061037061063a565b905061037d818585610642565b600191505092915050565b6000600254905090565b60008061039d61063a565b90506103aa858285610654565b6103b58585856106e8565b60019150509392505050565b600090565b6103ce6107dc565b6103d88282610863565b5050565b60008060008373ffffffffffffffffffffffffffffffffffffffff1673ffffffffffffffffffffffffffffffffffffffff168152602001908152602001600020549050919050565b61042c6107dc565b61043660006108e5565b565b6000600560009054906101000a900473ffffffffffffffffffffffffffffffffffffffff16905090565b60606004805461047190611164565b80601f016020809104026020016040519081016040528092919081815260200182805461049d90611164565b80156104ea5780601f106104bf576101008083540402835291602001916104ea565b820191906000526020600020905b8154815290600101906020018083116104cd57829003601f168201915b5050505050905090565b6104fc6107dc565b61050682826109ab565b5050565b60008061051561063a565b90506105228185856106e8565b600191505092915050565b6000600160008473ffffffffffffffffffffffffffffffffffffffff1673ffffffffffffffffffffffffffffffffffffffff16815260200190815260200160002060008373ffffffffffffffffffffffffffffffffffffffff1673ffffffffffffffffffffffffffffffffffffffff16815260200190815260200160002054905092915050565b6105bc6107dc565b600073ffffffffffffffffffffffffffffffffffffffff168173ffffffffffffffffffffffffffffffffffffffff160361062e5760006040517f1e4fbdf700000000000000000000000000000000000000000000000000000000815260040161062591906110da565b60405180910390fd5b610637816108e5565b50565b600033905090565b61064f8383836001610a2d565b505050565b6000610660848461052d565b90507fffffffffffffffffffffffffffffffffffffffffffffffffffffffffffffffff81146106e257818110156106d2578281836040517ffb8f41b20000000000000000000000000000000000000000000000000000000081526004016106c993929190611195565b60405180910390fd5b6106e184848484036000610a2d565b5b50505050565b600073ffffffffffffffffffffffffffffffffffffffff168373ffffffffffffffffffffffffffffffffffffffff160361075a5760006040517f96c6fd1e00000000000000000000000000000000000000000000000000000000815260040161075191906110da565b60405180910390fd5b600073ffffffffffffffffffffffffffffffffffffffff168273ffffffffffffffffffffffffffffffffffffffff16036107cc5760006040517fec442f050000000000000000000000000000000000000000000000000000000081526004016107c391906110da565b60405180910390fd5b6107d7838383610c04565b505050565b6107e461063a565b73ffffffffffffffffffffffffffffffffffffffff16610802610438565b73ffffffffffffffffffffffffffffffffffffffff16146108615761082561063a565b6040517f118cdaa700000000000000000000000000000000000000000000000000000000815260040161085891906110da565b60405180910390fd5b565b600073ffffffffffffffffffffffffffffffffffffffff168273ffffffffffffffffffffffffffffffffffffffff16036108d55760006040517fec442f050000000000000000000000000000000000000000000000000000000081526004016108cc91906110da565b60405180910390fd5b6108e160008383610c04565b5050565b6000600560009054906101000a900473ffffffffffffffffffffffffffffffffffffffff16905081600560006101000a81548173ffffffffffffffffffffffffffffffffffffffff021916908373ffffffffffffffffffffffffffffffffffffffff1602179055508173ffffffffffffffffffffffffffffffffffffffff168173ffffffffffffffffffffffffffffffffffffffff167f8be0079c531659141344cd1fd0a4f28419497f9722a3daafe3b4186f6b6457e060405160405180910390a35050565b600073ffffffffffffffffffffffffffffffffffffffff168273ffffffffffffffffffffffffffffffffffffffff1603610a1d5760006040517f96c6fd1e000000000000000000000000000000000000000000000000000000008152600401610a1491906110da565b60405180910390fd5b610a2982600083610c04565b5050565b600073ffffffffffffffffffffffffffffffffffffffff168473ffffffffffffffffffffffffffffffffffffffff1603610a9f5760006040517fe602df05000000000000000000000000000000000000000000000000000000008152600401610a9691906110da565b60405180910390fd5b600073ffffffffffffffffffffffffffffffffffffffff168373ffffffffffffffffffffffffffffffffffffffff1603610b115760006040517f94280d62000000000000000000000000000000000000000000000000000000008152600401610b0891906110da565b60405180910390fd5b81600160008673ffffffffffffffffffffffffffffffffffffffff1673ffffffffffffffffffffffffffffffffffffffff16815260200190815260200160002060008573ffffffffffffffffffffffffffffffffffffffff1673ffffffffffffffffffffffffffffffffffffffff168152602001908152602001600020819055508015610bfe578273ffffffffffffffffffffffffffffffffffffffff168473ffffffffffffffffffffffffffffffffffffffff167f8c5be1e5ebec7d5bd14f71427d1e84f3dd0314c0f7b2291e5b200ac8c7c3b92584604051610bf59190610ff9565b60405180910390a35b50505050565b600073ffffffffffffffffffffffffffffffffffffffff168373ffffffffffffffffffffffffffffffffffffffff1603610c56578060026000828254610c4a91906111fb565b92505081905550610d29565b60008060008573ffffffffffffffffffffffffffffffffffffffff1673ffffffffffffffffffffffffffffffffffffffff16815260200190815260200160002054905081811015610ce2578381836040517fe450d38c000000000000000000000000000000000000000000000000000000008152600401610cd993929190611195565b60405180910390fd5b8181036000808673ffffffffffffffffffffffffffffffffffffffff1673ffffffffffffffffffffffffffffffffffffffff16815260200190815260200160002081905550505b600073ffffffffffffffffffffffffffffffffffffffff168273ffffffffffffffffffffffffffffffffffffffff1603610d725780600260008282540392505081905550610dbf565b806000808473ffffffffffffffffffffffffffffffffffffffff1673ffffffffffffffffffffffffffffffffffffffff168152602001908152602001600020600082825401925050819055505b8173ffffffffffffffffffffffffffffffffffffffff168373ffffffffffffffffffffffffffffffffffffffff167fddf252ad1be2c89b69c2b068fc378daa952ba7f163c4a11628f55a4df523b3ef83604051610e1c9190610ff9565b60405180910390a3505050565b600081519050919050565b600082825260208201905092915050565b60005b83811015610e63578082015181840152602081019050610e48565b60008484015250505050565b6000601f19601f8301169050919050565b6000610e8b82610e29565b610e958185610e34565b9350610ea5818560208601610e45565b610eae81610e6f565b840191505092915050565b60006020820190508181036000830152610ed38184610e80565b905092915050565b600080fd5b600073ffffffffffffffffffffffffffffffffffffffff82169050919050565b6000610f0b82610ee0565b9050919050565b610f1b81610f00565b8114610f2657600080fd5b50565b600081359050610f3881610f12565b92915050565b6000819050919050565b610f5181610f3e565b8114610f5c57600080fd5b50565b600081359050610f6e81610f48565b92915050565b60008060408385031215610f8b57610f8a610edb565b5b6000610f9985828601610f29565b9250506020610faa85828601610f5f565b9150509250929050565b60008115159050919050565b610fc981610fb4565b82525050565b6000602082019050610fe46000830184610fc0565b92915050565b610ff381610f3e565b82525050565b600060208201905061100e6000830184610fea565b92915050565b60008060006060848603121561102d5761102c610edb565b5b600061103b86828701610f29565b935050602061104c86828701610f29565b925050604061105d86828701610f5f565b9150509250925092565b600060ff82169050919050565b61107d81611067565b82525050565b60006020820190506110986000830184611074565b92915050565b6000602082840312156110b4576110b3610edb565b5b60006110c284828501610f29565b91505092915050565b6110d481610f00565b82525050565b60006020820190506110ef60008301846110cb565b92915050565b6000806040838503121561110c5761110b610edb565b5b600061111a85828601610f29565b925050602061112b85828601610f29565b9150509250929050565b7f4e487b7100000000000000000000000000000000000000000000000000000000600052602260045260246000fd5b6000600282049050600182168061117c57607f821691505b60208210810361118f5761118e611135565b5b50919050565b60006060820190506111aa60008301866110cb565b6111b76020830185610fea565b6111c46040830184610fea565b949350505050565b7f4e487b7100000000000000000000000000000000000000000000000000000000600052601160045260246000fd5b600061120682610f3e565b915061121183610f3e565b9250828201905080821115611229576112286111cc565b5b9291505056fea26469706673582212204abad9cd1cd0e01be2f2ec17d87e1a3e490f674e0160ad0a3839cff18f697b6164736f6c63430008190033",
  "linkReferences": {},
  "deployedLinkReferences": {}
}